AFLY017w 04336
HFDTE030416
HFFXA010
HFPLTPILOT:Owen McDermott-B
HFGTYGLIDERTYPE:Sport 2 155     
HFGIDGLIDERID:not-set         
HFDTM100GPSDATUM:WGS84
HFRFWFIRMWAREVERSION: 1.3.07  Eng
HFRHWHARDWAREVERSION:1.00
HFFTYFRTYPE:Flytec,6015
HFGPS:FASTRAX,IT430,48
HFPRSPRESSALTSENSOR:INTERSEMA,MS5401BM,12000
HFTZNUTCOFFSET: -4
I033638FXA3940SIU4143TAS
C030416032324030416002701
C2831942N08150792WTakeoff
C2831982N08150800W00000000005000000000360000StartArea,QUEST           
C2822584N08149398W00000000001000000000360000TurnArea,T47433          
C2811548N08200071W00000000009000000000360000FinishArea,ROK98           
C2827136N08149856WLanding
F18463703080916222326273132
B1846372831908N08150791WA000010004200610000
F18470703080916222326273132
B1847072831911N08150791WA000010003900310000
F18473703080916222326273132
B1847372831911N08150791WA000010003900510000
F184807030809162223262731
B1848072831911N08150791WA000010003900509000
F184837030809162223262731
B1848372831911N08150791WA000010003900509000
F184907030809162223262731
B1849072831911N08150791WA000020003900409000
F184937030809162223262731
B1849372831913N08150791WA000020003900509000
F185007030809162223262731
B1850072831913N08150791WA000020003800309000
F185037030809162223262731
B1850372831913N08150791WA000020003800409000
E185045STA
E185045ATS1017.7
LFLYA100038
B1850452831942N08150792WA000020003800409000
B1850502831988N08150795WA000110004100509000
B1850552832034N08150796WA000250004700609000
B1851002832076N08150788WA000380005600709000
B1851052832117N08150773WA000510006900709000
B1851102832155N08150750WA000650008600709000
B1851152832192N08150729WA000810010200809000
B1851202832228N08150709WA000940011800609000
B1851252832267N08150697WA001060013100609000
B1851302832305N08150694WA001170014400509000
B1851352832343N08150702WA001320015700509000
B1851402832377N08150725WA001400017000609000
B1851452832402N08150759WA001590018800709000
B1851502832420N08150803WA001820021300809000
B1851552832429N08150856WA002040023800609000
B1852002832418N08150913WA002270026300709000
B1852052832382N08150958WA002430028300609000
B1852102832335N08150980WA002580030000509000
B1852152832288N08150972WA002730031500609000
B1852202832260N08150934WA002920033200909000
B1852252832252N08150886WA003170035500509000
B1852302832265N08150838WA003460038000609000
B1852352832300N08150808WA003770041000609000
B1852402832344N08150807WA004010043500709000
B1852452832379N08150838WA004280046300909000
B1852502832393N08150890WA004520049101009000
B1852552832382N08150951WA004650050901009000
B1853002832347N08150994WA004860052900509000
B1853052832298N08151013WA005060055000609000
B1853102832250N08151003WA005180056801009000
B1853152832223N08150969WA005340058000909000
B1853202832216N08150926WA005520059600509000
B1853252832233N08150891WA005690061200509000
B1853302832265N08150864WA005870062900509000
B1853352832297N08150853WA006010064400809000
B1853402832327N08150854WA006050065000809000
B1853452832358N08150864WA006070065400709000
B1853502832381N08150892WA005950064600609000
B1853552832385N08150933WA005860063600609000
B1854002832352N08150968WA005750062500909000
B1854052832314N08150983WA005690061500509000
B1854102832272N08150995WA005700061200809000
B1854152832233N08150989WA005700061000609000
B1854202832209N08150963WA005740061300809000
B1854252832201N08150932WA005730061400809000
B1854302832192N08150893WA005790061700609000
B1854352832187N08150858WA005910062300609000
B1854402832180N08150820WA005950062900609000
B1854452832180N08150781WA005910063100509000
B1854502832189N08150747WA005920063200609000
B1854552832194N08150713WA005820062600709000
B1855002832207N08150683WA005710061600409000
B1855052832227N08150686WA005620060500709000
B1855102832225N08150718WA005520059400509000
B1855152832205N08150750WA005390058100609000
B1855202832183N08150781WA005340057100509000
B1855252832162N08150816WA005310056700509000
B1855302832135N08150847WA005330056800509000
B1855352832102N08150874WA005360056900609000
B1855402832071N08150878WA005340057100509000
B1855452832033N08150881WA005290056900809000
B1855502831993N08150896WA005330057100909000
B1855552831958N08150915WA005380057400609000
B1856002831933N08150949WA005490057800709000
B1856052831909N08150983WA005610059000609000
B1856102831877N08151000WA005710060000609000
B1856152831847N08150987WA005690060601109000
B1856202831857N08150946WA005750061000909000
B1856252831883N08150926WA005820061600609000
B1856302831912N08150920WA005880062100609000
F1856350809162223262731
B1856352831941N08150922WA005980062900708000
F185640030809162223262731
B1856402831967N08150929WA006030063500409000
B1856452831996N08150935WA006120064200509000
B1856502832020N08150949WA006090064500609000
B1856552832027N08150985WA006050064300509000
B1857002832002N08151025WA006040064100709000
B1857052831969N08151052WA006110064500609000
B1857102831932N08151068WA006170064900609000
B1857152831896N08151067WA006260065400509000
B1857202831868N08151048WA006350066200509000
B1857252831862N08151019WA006380067000509000
B1857302831886N08151005WA006450067500609000
B1857352831912N08151026WA006570068200609000
B1857402831912N08151070WA006680069500609000
B1857452831893N08151109WA006720070200609000
B1857502831855N08151129WA006750070400709000
B1857552831826N08151112WA006780070801309000
B1858002831839N08151088WA006790070900709000
B1858052831865N08151086WA006860071500709000
B1858102831883N08151109WA006940072200609000
B1858152831882N08151150WA006960072700509000
B1858202831859N08151191WA006960072901009000
B1858252831820N08151193WA006900072900809000
B1858302831800N08151161WA006860072400809000
B1858352831806N08151129WA006890072500509000
B1858402831823N08151101WA006890072400609000
B1858452831841N08151068WA006960072700409000
B1858502831866N08151045WA007040073400509000
B1858552831898N08151038WA007120074100509000
B1859002831926N08151049WA007260075200409000
B1859052831948N08151068WA007240075700509000
B1859102831948N08151110WA007200075500509000
B1859152831926N08151149WA007140075100609000
B1859202831888N08151180WA007090074600709000
B1859252831842N08151189WA007090074200509000
B1859302831807N08151170WA007110074300909000
B1859352831795N08151136WA007140074500709000
B1859402831801N08151098WA007180074900709000
B1859452831806N08151067WA007240075500609000
B1859502831814N08151041WA007250075700509000
B1859552831839N08151027WA007290076000609000
B1900002831863N08151040WA007350076500709000
B1900052831873N08151076WA007400076900409000
B1900102831873N08151116WA007440077500509000
B1900152831857N08151151WA007440077800509000
B1900202831817N08151158WA007420077901309000
B1900252831798N08151126WA007440078100909000
B1900302831790N08151093WA007430078100709000
B1900352831791N08151064WA007490078500709000
B1900402831800N08151037WA007530078700609000
B1900452831820N08151024WA007580078900509000
B1900502831843N08151026WA007670079400609000
B1900552831865N08151035WA007580079500609000
B1901002831875N08151074WA007480078900609000
B1901052831845N08151108WA007390078100909000
B1901102831805N08151111WA007430077700709000
B1901152831776N08151092WA007480078100809000
B1901202831762N08151063WA007530078600809000
B1901252831768N08151037WA007570079100409000
B1901302831789N08151034WA007580079300709000
F1901350308091623262731
B1901352831802N08151064WA007500079100508000
F190140030809162223262731
B1901402831786N08151104WA007440078600809000
B1901452831749N08151131WA007490078400709000
B1901502831708N08151137WA007530078600609000
B1901552831668N08151129WA007570078900609000
B1902002831629N08151119WA007610079500709000
B1902052831592N08151106WA007680080200509000
B1902102831561N08151085WA007840081000709000
B1902152831563N08151056WA007910081800609000
B1902202831586N08151059WA007950082400609000
B1902252831595N08151095WA008040083000509000
B1902302831578N08151132WA008120084000709000
B1902352831545N08151163WA008200084900909000
B1902402831508N08151176WA008290085700509000
B1902452831467N08151175WA008330086300609000
B1902502831452N08151146WA008350086700809000
B1902552831474N08151126WA008330086900609000
B1903002831505N08151141WA008400087300709000
B1903052831521N08151172WA008530088300409000
B1903102831518N08151208WA008620089400609000
B1903152831490N08151237WA008660090300909000
B1903202831465N08151215WA008700090901209000
B1903252831477N08151191WA008740090900709000
B1903302831501N08151203WA008810091201009000
B1903352831480N08151241WA008830091401209000
B1903402831442N08151231WA008840091801109000
B1903452831433N08151196WA008900092500709000
B1903502831448N08151175WA008940092800609000
B1903552831473N08151185WA008970093100709000
B1904002831476N08151224WA008940093200709000
B1904052831438N08151248WA008940093200809000
B1904102831405N08151231WA008980093601109000
B1904152831405N08151203WA009020093800809000
B1904202831429N08151211WA009000093801009000
B1904252831433N08151251WA008980093700609000
B1904302831407N08151286WA008970093500809000
B1904352831370N08151296WA009000093500709000
B1904402831334N08151288WA008950093500809000
B1904452831311N08151258WA008950093400609000
B1904502831294N08151227WA008980093600809000
B1904552831290N08151196WA008970093700509000
B1905002831305N08151173WA008940093600409000
B1905052831331N08151179WA008910093200509000
B1905102831356N08151202WA008890093000409000
B1905152831381N08151220WA008900092900509000
B1905202831405N08151236WA008900093000409000
B1905252831414N08151268WA008860092900409000
B1905302831391N08151308WA008830092700609000
B1905352831360N08151336WA008860092700509000
B1905402831330N08151363WA008870092700609000
B1905452831295N08151384WA008840092600709000
B1905502831257N08151384WA008810092400509000
B1905552831233N08151359WA008770092000809000
B1906002831232N08151326WA008720091600509000
B1906052831245N08151293WA008700091200709000
B1906102831248N08151259WA008730091200409000
B1906152831246N08151221WA008770091600709000
B1906202831249N08151181WA008770091700509000
B1906252831255N08151144WA008770091700509000
B1906302831260N08151106WA008760091700509000
B1906352831271N08151079WA008840091800509000
B1906402831290N08151060WA008810091900509000
B1906452831314N08151065WA008760091600609000
B1906502831323N08151095WA008730091400409000
B1906552831309N08151130WA008720091300709000
B1907002831279N08151157WA008710091200709000
B1907052831243N08151184WA008710091000709000
B1907102831206N08151183WA008710091100509000
B1907152831189N08151151WA008720091100909000
B1907202831206N08151128WA008740091000609000
B1907252831231N08151133WA008750091100609000
B1907302831243N08151167WA008740091100409000
B1907352831229N08151205WA008740091100609000
B1907402831199N08151234WA008730091100709000
F1907450308092223262731
B1907452831166N08151262WA008760091300508000
F190750030809162223262731
B1907502831138N08151296WA008770091300509000
B1907552831110N08151327WA008770091300609000
B1908002831072N08151344WA008740091100409000
B1908052831035N08151331WA008690091000909000
B1908102831024N08151295WA008690090900809000
B1908152831027N08151260WA008720090900709000
B1908202831029N08151228WA008650090700509000
B1908252831043N08151199WA008590090200509000
B1908302831065N08151178WA008530089800409000
B1908352831091N08151162WA008480089300509000
B1908402831115N08151149WA008470089000509000
B1908452831139N08151146WA008420088600509000
B1908502831165N08151145WA008330087900509000
B1908552831191N08151139WA008270087200509000
B1909002831216N08151138WA008190086500609000
B1909052831241N08151139WA008080085300509000
B1909102831269N08151144WA007950084100609000
B1909152831298N08151155WA007870082900409000
B1909202831322N08151168WA007910082300509000
B1909252831349N08151180WA007790081500609000
B1909302831379N08151184WA007680080600609000
B1909352831410N08151193WA007590079600409000
B1909402831438N08151191WA007450078700609000
B1909452831469N08151185WA007310077300609000
B1909502831503N08151188WA007180076000609000
B1909552831538N08151192WA007090074800509000
B1910002831572N08151194WA007000073800509000
B1910052831603N08151195WA006930073000509000
B1910102831635N08151197WA006820072200509000
B1910152831666N08151200WA006730071300509000
B1910202831698N08151198WA006700070900409000
B1910252831725N08151195WA006690070600509000
B1910302831751N08151199WA006720070600509000
B1910352831778N08151212WA006710070500509000
B1910402831807N08151216WA006780070900509000
B1910452831835N08151227WA006860071400409000
B1910502831854N08151258WA006950072300509000
B1910552831853N08151295WA007060073300409000
B1911002831834N08151332WA007090073800709000
B1911052831797N08151346WA007110074000709000
F1911100308091622262731
B1911102831770N08151325WA007140074401108000
F191115030809162223262731
B1911152831772N08151292WA007220075000609000
B1911202831791N08151277WA007280075600809000
B1911252831812N08151294WA007360076200609000
B1911302831811N08151336WA007390076800609000
B1911352831776N08151363WA007390077200709000
B1911402831741N08151345WA007390077401209000
B1911452831736N08151311WA007470078000809000
B1911502831754N08151288WA007560078700709000
B1911552831779N08151272WA007600079100709000
B1912002831801N08151289WA007690079800709000
B1912052831806N08151328WA007680080200509000
B1912102831780N08151358WA007730080600909000
B1912152831741N08151354WA007740081000509000
B1912202831718N08151325WA007760081500909000
B1912252831722N08151292WA007800081800509000
B1912302831740N08151271WA007860082100509000
B1912352831765N08151270WA007870082300609000
B1912402831777N08151305WA007770082000609000
B1912452831753N08151348WA007770081500809000
B1912502831726N08151382WA007780081500809000
B1912552831693N08151406WA007760081300509000
B1913002831655N08151408WA007780081300609000
B1913052831632N08151382WA007740081200809000
B1913102831636N08151344WA007710081000509000
B1913152831657N08151318WA007730081100509000
B1913202831685N08151308WA007700081000409000
B1913252831712N08151316WA007720081100409000
B1913302831736N08151336WA007690081000509000
B1913352831766N08151348WA007680080900409000
B1913402831791N08151363WA007700081000409000
B1913452831820N08151373WA007660080800609000
B1913502831849N08151385WA007670080700409000
B1913552831868N08151417WA007600080400409000
B1914002831869N08151459WA007520079800409000
B1914052831837N08151488WA007400078800609000
B1914102831801N08151487WA007350078000709000
B1914152831765N08151475WA007280077400609000
B1914202831727N08151476WA007260076700709000
B1914252831689N08151470WA007250076500609000
B1914302831652N08151454WA007210076300509000
B1914352831617N08151432WA007140076000509000
B1914402831586N08151412WA007120075700709000
B1914452831557N08151385WA007040075100609000
B1914502831529N08151352WA007000074600709000
B1914552831513N08151314WA007040074300609000
B1915002831502N08151272WA007070074400609000
B1915052831491N08151233WA007100074600709000
B1915102831487N08151192WA007070074700509000
B1915152831503N08151159WA007040074600409000
B1915202831527N08151148WA006980074200509000
B1915252831553N08151142WA006860073500609000
B1915302831577N08151138WA006730072300609000
B1915352831604N08151150WA006610071000509000
B1915402831620N08151181WA006490069700509000
B1915452831612N08151222WA006390068400709000
B1915502831580N08151256WA006400067900509000
B1915552831552N08151289WA006440067900609000
B1916002831536N08151327WA006410067700509000
B1916052831531N08151368WA006440067800509000
B1916102831528N08151405WA006430067700409000
B1916152831511N08151441WA006390067600909000
B1916202831473N08151443WA006360067600609000
B1916252831440N08151424WA006380067600709000
B1916302831417N08151392WA006440067900809000
B1916352831399N08151358WA006540068500709000
B1916402831382N08151324WA006610069300609000
B1916452831384N08151293WA006660069800409000
B1916502831406N08151287WA006660070000509000
B1916552831420N08151320WA006680070200509000
B1917002831426N08151357WA006700070700509000
B1917052831437N08151390WA006680070700509000
B1917102831432N08151430WA006660070600609000
B1917152831400N08151453WA006640070400609000
B1917202831366N08151439WA006660070300709000
B1917252831356N08151402WA006700070700809000
B1917302831371N08151370WA006800071100609000
B1917352831388N08151350WA006830071500509000
B1917402831410N08151359WA006750071500809000
B1917452831393N08151396WA006710071101309000
B1917502831352N08151386WA006690071001209000
B1917552831340N08151347WA006670070800509000
B1918002831346N08151311WA006640070600709000
B1918052831352N08151279WA006610070300509000
B1918102831367N08151253WA006540069800409000
B1918152831386N08151234WA006580069800709000
B1918202831407N08151242WA006540069600509000
B1918252831428N08151261WA006460069000509000
B1918302831450N08151274WA006350068300409000
B1918352831474N08151287WA006210067300609000
B1918402831502N08151286WA006100066000509000
B1918452831528N08151275WA005970064500409000
B1918502831551N08151262WA005830063000509000
B1918552831575N08151241WA005690061600409000
B1919002831602N08151221WA005580060200609000
B1919052831630N08151200WA005540059400409000
B1919102831659N08151184WA005520058900509000
B1919152831683N08151175WA005520058900609000
B1919202831708N08151173WA005440058600509000
B1919252831731N08151174WA005470058600709000
B1919302831756N08151177WA005430058400609000
B1919352831783N08151188WA005450058400609000
B1919402831808N08151185WA005530058700409000
B1919452831831N08151188WA005620059300409000
B1919502831850N08151206WA005740060300409000
B1919552831852N08151234WA005820061100509000
B1920002831815N08151247WA005850061700909000
B1920052831775N08151222WA005940062600809000
B1920102831753N08151187WA006050063801009000
B1920152831758N08151153WA006100064600609000
B1920202831781N08151154WA006150065100509000
B1920252831793N08151181WA006190065700409000
F1920300309162223262731
B1920302831788N08151220WA006240066100408000
B1920352831765N08151255WA006310066900508000
F192040030809162223262731
B1920402831729N08151277WA006380067600509000
B1920452831689N08151277WA006510068400609000
B1920502831653N08151260WA006580069300609000
B1920552831643N08151228WA006620070100609000
B1921002831663N08151215WA006670070500709000
B1921052831691N08151217WA006760071400609000
B1921102831716N08151216WA006860072300509000
B1921152831730N08151237WA006940073200509000
B1921202831713N08151269WA007010074100609000
B1921252831674N08151273WA006980074600509000
B1921302831645N08151244WA007080075001009000
B1921352831651N08151220WA007190075500609000
B1921402831662N08151241WA007200075800909000
B1921452831630N08151262WA007310076201109000
B1921502831604N08151235WA007380077101109000
B1921552831609N08151206WA007450078100509000
B1922002831631N08151201WA007530078900509000
B1922052831641N08151223WA007580079600409000
B1922102831619N08151253WA007650080300509000
B1922152831579N08151268WA007720081100509000
B1922202831540N08151261WA007810082100609000
B1922252831517N08151232WA007860082800609000
B1922302831529N08151207WA007880083100609000
B1922352831551N08151223WA007930083400709000
B1922402831546N08151262WA008000083900509000
B1922452831512N08151289WA008050084500809000
B1922502831472N08151284WA008100085100509000
B1922552831445N08151253WA008120085500609000
B1923002831449N08151220WA008120085700509000
B1923052831474N08151209WA008120085700509000
B1923102831501N08151216WA008140085800609000
B1923152831528N08151224WA008170086000609000
B1923202831552N08151235WA008200086200609000
B1923252831566N08151265WA008230086500409000
B1923302831550N08151298WA008280086900409000
B1923352831515N08151313WA008320087100509000
B1923402831478N08151296WA008400087800509000
B1923452831448N08151268WA008460088500609000
B1923502831443N08151235WA008500089200409000
B1923552831466N08151229WA008480089300809000
B1924002831477N08151260WA008530089700409000
B1924052831470N08151298WA008580090100409000
B1924102831452N08151335WA008650090600409000
B1924152831432N08151371WA008730091300409000
B1924202831406N08151399WA008690091500909000
F19242503070809162223262731
B1924252831367N08151398WA008630091400510000
B1924302831354N08151357WA008600090700610000
B1924352831363N08151319WA008580090400410000
B1924402831387N08151297WA008610090400410000
B1924452831411N08151287WA008650090600310000
B1924502831437N08151296WA008670090900310000
B1924552831455N08151321WA008720091200410000
B1925002831458N08151358WA008710091400510000
B1925052831434N08151389WA008650091000510000
B1925102831397N08151410WA008610090700610000
B1925152831352N08151411WA008610090500510000
B1925202831309N08151398WA008660090800710000
B1925252831277N08151373WA008660090900510000
B1925302831271N08151338WA008640090700510000
B1925352831287N08151308WA008690090800410000
B1925402831308N08151295WA008680090900510000
B1925452831329N08151310WA008670091000510000
B1925502831328N08151345WA008680091100410000
B1925552831301N08151373WA008710091400610000
B1926002831263N08151376WA008750091800310000
B1926052831232N08151350WA008750092000610000
B1926102831231N08151312WA008790092300510000
F192615030708162223262731
B1926152831235N08151280WA008780092500509000
F19262003070809162223262731
B1926202831255N08151263WA008760092300510000
B1926252831274N08151284WA008750092300510000
B1926302831277N08151321WA008720092100410000
B1926352831267N08151361WA008690091700410000
B1926402831248N08151396WA008700091500310000
B1926452831219N08151427WA008720091500510000
B1926502831180N08151431WA008740091700310000
B1926552831157N08151399WA008740091800610000
B1927002831169N08151367WA008710091600510000
B1927052831196N08151365WA008730091800410000
B1927102831213N08151385WA008700091700410000
B1927152831219N08151419WA008690091500310000
B1927202831215N08151456WA008670091300410000
B1927252831209N08151496WA008690091300410000
B1927302831200N08151538WA008720091400410000
B1927352831196N08151579WA008760091900510000
B1927402831177N08151619WA008820092300610000
B1927452831139N08151642WA008790092600510000
B1927502831098N08151638WA008750092400710000
B1927552831087N08151604WA008670091700610000
B1928002831105N08151581WA008680091300510000
B1928052831125N08151563WA008750091600410000
B1928102831149N08151551WA008810092300310000
B1928152831175N08151553WA008860092800310000
B1928202831197N08151571WA008940093500310000
B1928252831201N08151609WA009050094300510000
B1928302831173N08151637WA009120095000710000
B1928352831139N08151627WA009190095800710000
B1928402831137N08151599WA009310097100810000
B1928452831162N08151597WA009460098600510000
B1928502831176N08151629WA009560099800510000
B1928552831157N08151668WA009610100500910000
B1929002831120N08151676WA009630101000510000
B1929052831096N08151649WA009630101301010000
B1929102831108N08151621WA009780101800410000
B1929152831128N08151603WA009890102900410000
B1929202831153N08151607WA009930103700410000
B1929252831157N08151641WA009960104100610000
B1929302831124N08151667WA009980104300510000
B1929352831088N08151654WA010000104600610000
B1929402831071N08151620WA010100105200710000
B1929452831061N08151581WA010240106100610000
B1929502831058N08151548WA010360107500410000
B1929552831073N08151521WA010380108100510000
B1930002831095N08151535WA010420108700610000
B1930052831095N08151574WA010410108800410000
B1930102831075N08151609WA010390108700510000
B1930152831037N08151628WA010360108400710000
B1930202830995N08151627WA010480108600410000
B1930252830958N08151614WA010650109700410000
B1930302830930N08151590WA010780111100510000
B1930352830934N08151563WA010850112500610000
B1930402830960N08151561WA010900113400410000
B1930452830970N08151589WA010940114000510000
B1930502830938N08151618WA010980114300610000
B1930552830897N08151599WA011100115100610000
B1931002830867N08151569WA011230116500510000
B1931052830856N08151533WA011210117400610000
B1931102830880N08151535WA011200117500710000
B1931152830895N08151568WA011240117600510000
B1931202830905N08151603WA011260117800410000
B1931252830912N08151639WA011320118100410000
B1931302830914N08151678WA011270118200410000
B1931352830905N08151724WA011140117600610000
B1931402830861N08151740WA011010116100710000
B1931452830816N08151722WA010860114700710000
B1931502830772N08151701WA010870113900610000
B1931552830734N08151675WA010930113700910000
B1932002830716N08151638WA011010114200810000
F193205030708162223262731
B1932052830718N08151603WA010990114500609000
F19321003070809162223262731
B1932102830735N08151577WA011030114800410000
B1932152830757N08151583WA011060115100410000
F193220070809162223262731
B1932202830764N08151615WA011070115300509000
F19322503070809162223262731
B1932252830743N08151651WA011130115700510000
B1932302830701N08151664WA011240116500510000
B1932352830661N08151648WA011300117300610000
B1932402830646N08151612WA011390118200610000
B1932452830658N08151583WA011410118800510000
B1932502830682N08151586WA011400118900410000
B1932552830688N08151619WA011390118900410000
B1933002830660N08151651WA011430118900510000
B1933052830620N08151671WA011420118900610000
B1933102830571N08151673WA011460119100510000
B1933152830524N08151667WA011520119500410000
B1933202830486N08151644WA011490119600510000
B1933252830481N08151611WA011420119000810000
B1933302830500N08151602WA011370118700410000
B1933352830524N08151611WA011350118500410000
B1933402830546N08151625WA011370118600310000
B1933452830551N08151659WA011380118600410000
B1933502830524N08151695WA011360118400510000
B1933552830485N08151721WA011270117800610000
B1934002830440N08151740WA011180117000510000
B1934052830389N08151735WA011060116300610000
B1934102830347N08151711WA011010115700510000
B1934152830300N08151683WA010900114900510000
B1934202830271N08151654WA010800113800510000
B1934252830239N08151614WA010610111800410000
B1934302830194N08151591WA010500110400610000
B1934352830144N08151580WA010500109800510000
B1934402830102N08151565WA010470109500510000
B1934452830059N08151547WA010420109200410000
B1934502830019N08151527WA010350108800410000
B1934552829972N08151517WA010240108000610000
B1935002829929N08151517WA010200107300610000
B1935052829882N08151515WA010140106600310000
B1935102829839N08151513WA010090106100410000
B1935152829799N08151505WA010010105400410000
B1935202829759N08151500WA010010105000410000
B1935252829722N08151501WA009980104800410000
B1935302829685N08151503WA010020104800410000
B1935352829647N08151491WA010000104900310000
B1935402829611N08151472WA010050105100410000
B1935452829581N08151449WA010110105400510000
B1935502829567N08151416WA010110105500510000
B1935552829581N08151380WA010090105600710000
B1936002829611N08151370WA010120105700510000
B1936052829637N08151383WA010090105700510000
B1936102829649N08151411WA009970105100510000
B1936152829628N08151449WA009890104200710000
B1936202829594N08151468WA009910104000510000
B1936252829557N08151464WA009970104300410000
B1936302829524N08151446WA010010104600410000
B1936352829499N08151417WA010000104700610000
B1936402829480N08151380WA010040105000510000
B1936452829474N08151342WA010040105200410000
B1936502829494N08151311WA009990104900510000
F193655070809162223262731
B1936552829522N08151310WA009890104300409000
F19370003070809162223262731
B1937002829528N08151339WA009820103600610000
B1937052829492N08151355WA009780102900410000
B1937102829451N08151348WA009750102400410000
B1937152829414N08151343WA009720102100710000
B1937202829376N08151337WA009720102100510000
B1937252829343N08151322WA009700101900510000
B1937302829310N08151297WA009570101300610000
B1937352829269N08151283WA009440100100710000
B1937402829225N08151280WA009370098900410000
B1937452829183N08151273WA009290098200510000
B1937502829144N08151253WA009250097700410000
B1937552829103N08151242WA009170097000510000
B1938002829058N08151233WA009070096100410000
B1938052829013N08151222WA009040095600410000
B1938102828976N08151211WA009030095300410000
B1938152828938N08151194WA008980094900410000
B1938202828907N08151167WA008910094500410000
B1938252828878N08151134WA008850093800510000
B1938302828844N08151108WA008770093200310000
B1938352828804N08151089WA008690092300410000
B1938402828764N08151070WA008620091600410000
B1938452828726N08151041WA008590090900410000
B1938502828688N08151016WA008580090700510000
B1938552828645N08150988WA008620090900410000
B1939002828605N08150965WA008680091200510000
B1939052828569N08150936WA008570091000810000
B1939102828537N08150905WA008530090400510000
B1939152828502N08150883WA008450089700510000
B1939202828465N08150859WA008360089000510000
B1939252828426N08150836WA008270088100510000
B1939302828400N08150805WA008240087200710000
B1939352828398N08150772WA008140086200610000
B1939402828411N08150756WA008030085100410000
B1939452828431N08150756WA007900084100410000
B1939502828453N08150773WA007770083000410000
B1939552828456N08150806WA007670081900510000
B1940002828414N08150826WA007540080500710000
B1940052828374N08150806WA007460079500610000
B1940102828338N08150780WA007340078400510000
B1940152828295N08150760WA007200077100410000
B1940202828258N08150737WA007110075900410000
B1940252828222N08150712WA007000074800510000
B1940302828187N08150695WA006910074000410000
B1940352828150N08150675WA006790073000410000
B1940402828112N08150658WA006700072100510000
B1940452828073N08150643WA006590070800510000
B1940502828037N08150627WA006500069700410000
B1940552828001N08150612WA006340068500410000
B1941002827967N08150590WA006230067200610000
B1941052827937N08150559WA006110065800510000
B1941102827905N08150531WA005970064400410000
B1941152827868N08150507WA005850063100410000
B1941202827830N08150481WA005760062100410000
B1941252827787N08150467WA005710061300510000
B1941302827745N08150459WA005680060800410000
B1941352827711N08150440WA005600060300410000
B1941402827683N08150416WA005510059700410000
B1941452827656N08150394WA005430059000510000
B1941502827623N08150375WA005350058100410000
B1941552827589N08150358WA005360057900510000
B1942002827575N08150329WA005370057900810000
B1942052827573N08150297WA005330057700710000
B1942102827580N08150266WA005370057700610000
B1942152827596N08150240WA005370057600410000
B1942202827609N08150213WA005380057800410000
B1942252827622N08150185WA005390058000310000
B1942302827642N08150166WA005400058100310000
B1942352827667N08150156WA005370058000310000
B1942402827696N08150161WA005330057800410000
B1942452827726N08150180WA005270057300310000
B1942502827747N08150214WA005250056900310000
B1942552827741N08150261WA005310056900510000
B1943002827715N08150296WA005370057400710000
B1943052827680N08150313WA005390057900310000
B1943102827650N08150296WA005320058001110000
B1943152827655N08150260WA005410058000510000
B1943202827682N08150257WA005500058600510000
B1943252827695N08150296WA005520058800610000
B1943302827666N08150325WA005570059500710000
B1943352827628N08150323WA005540059800510000
B1943402827606N08150295WA005600060000510000
B1943452827599N08150262WA005680060600510000
B1943502827593N08150229WA005740061200510000
B1943552827591N08150196WA005780061900510000
B1944002827573N08150163WA005850062500810000
B1944052827540N08150158WA005810062800910000
B1944102827510N08150177WA005760062600710000
B1944152827481N08150198WA005670061800410000
B1944202827451N08150191WA005600061200510000
B1944252827453N08150158WA005520060400810000
B1944302827483N08150144WA005450059300510000
B1944352827512N08150143WA005370058400510000
B1944402827539N08150141WA005290057500410000
B1944452827564N08150140WA005260056900410000
B1944502827587N08150134WA005180056500410000
B1944552827607N08150124WA005130055800310000
B1945002827628N08150110WA005090055200310000
B1945052827650N08150099WA005040054800310000
B1945102827675N08150097WA004910054200410000
B1945152827691N08150123WA004780053000410000
B1945202827662N08150151WA004600050800510000
B1945252827620N08150142WA004670050100710000
B1945302827583N08150128WA004740050400710000
B1945352827542N08150122WA004740050800510000
B1945402827511N08150100WA004710050900810000
B1945452827512N08150069WA004650050600610000
B1945502827533N08150060WA004530050100710000
B1945552827555N08150064WA004380049200410000
B1946002827582N08150066WA004230047300410000
B1946052827581N08150034WA004040045300810000
B1946102827552N08150003WA003890043500710000
B1946152827514N08149987WA003730041800610000
B1946202827474N08149980WA003550040000510000
B1946252827433N08149975WA003350038100510000
B1946302827393N08149963WA003180036400610000
B1946352827350N08149966WA003010034300710000
B1946402827309N08149975WA002860032400610000
B1946452827268N08149980WA002700030900510000
B1946502827228N08149990WA002590029500610000
B1946552827191N08150005WA002480028200510000
B1947002827154N08150019WA002370027100410000
B1947052827115N08150023WA002230026000310000
B1947102827077N08150021WA002090024700310000
B1947152827037N08150026WA001980023700510000
B1947202826998N08150021WA001890022800310000
B1947252826958N08150007WA001810021900310000
B1947302826918N08149993WA001730021200310000
B1947352826880N08149972WA001720020800410000
B1947402826861N08149935WA001730020600510000
B1947452826868N08149901WA001710020500510000
B1947502826894N08149881WA001680020300510000
F194755030708091623262731
B1947552826918N08149893WA001660020100409000
B1948002826905N08149927WA001640020000909000
B1948052826867N08149936WA001620019900409000
B1948102826844N08149907WA001640019800909000
B1948152826856N08149873WA001590019400709000
B1948202826875N08149843WA001540019000709000
B1948252826886N08149810WA001520018700509000
B1948302826883N08149772WA001530018800609000
B1948352826891N08149741WA001500018700709000
B1948402826913N08149761WA001460018600709000
B1948452826930N08149793WA001380018200509000
B1948502826940N08149829WA001290017500409000
B1948552826928N08149869WA001180016200809000
B1949002826900N08149903WA001220015800809000
B1949052826864N08149929WA001260016000709000
B1949102826823N08149933WA001300016400409000
B1949152826811N08149901WA001290016600909000
B1949202826841N08149892WA001320016800509000
B1949252826869N08149904WA001380017000509000
B1949302826875N08149934WA001410017100609000
B1949352826845N08149959WA001460017700509000
B1949402826819N08149933WA001420017801309000
B1949452826840N08149908WA001440017900809000
B1949502826867N08149914WA001530018400609000
B1949552826889N08149913WA001530018500509000
B1950002826913N08149924WA001560018700409000
B1950052826899N08149962WA001580018901109000
B1950102826857N08149971WA001590019200609000
B1950152826836N08149941WA001640019700809000
B1950202826839N08149909WA001640019900709000
B1950252826859N08149899WA001600019900509000
B1950302826879N08149917WA001540019600509000
B1950352826882N08149958WA001540019200609000
B1950402826856N08149990WA001550019100509000
B1950452826817N08149978WA001530019100809000
B1950502826812N08149939WA001560019200709000
B1950552826831N08149925WA001550019300609000
B1951002826855N08149940WA001510019000509000
B1951052826876N08149960WA001460018800409000
B1951102826892N08149989WA001410018300409000
B1951152826877N08150024WA001330017500609000
B1951202826842N08150011WA001260016901009000
B1951252826853N08149977WA001210016000909000
B1951302826867N08149947WA001180015500709000
B1951352826877N08149917WA001140015100609000
B1951402826884N08149882WA001030014400609000
B1951452826900N08149847WA000940013500809000
B1951502826901N08149807WA000840012600909000
B1951552826895N08149771WA000760011800809000
B1952002826910N08149734WA000680010600809000
B1952052826937N08149753WA000560009401209000
B1952102826923N08149799WA000470008400709000
B1952152826921N08149844WA000350007200609000
B1952202826937N08149884WA000250006101209000
B1952252826980N08149877WA000140004901109000
B1952302827019N08149866WA000070004300609000
B1952352827054N08149863WA000020003800609000
B1952402827075N08149859WA000030003500809000
B1952452827079N08149859WA000030003500509000
B1952502827083N08149860WA000030003500709000
B1952552827087N08149860WA000030003600309000
B1953002827092N08149860WA000030003600409000
B1953052827096N08149860WA000040003700409000
B1953102827100N08149860WA000040003700409000
B1953152827104N08149860WA000040003600409000
B1953202827107N08149861WA000040003500409000
B1953252827112N08149861WA000040003500409000
B1953302827116N08149861WA000040003500309000
B1953352827121N08149861WA000040003500309000
B1953402827125N08149862WA000040003500409000
B1953452827129N08149862WA000040003500409000
B1953502827133N08149861WA000040003500509000
B1953552827137N08149859WA000040003500309000
B1954002827136N08149856WA000040003500509000
B1954052827136N08149856WA000030003500309000
B1954102827136N08149856WA000030003500309000
B1954152827136N08149856WA000030003500309000
B1954202827136N08149856WA000030003500309000
B1954252827136N08149856WA000030003500309000
B1954302827136N08149856WA000030003500309000
B1954352827136N08149856WA000030003500309000
F1954400307080916232731
B1954402827136N08149856WA000030003500408000
F195445030708091623262731
B1954452827136N08149856WA000030003500309000
B1954502827136N08149856WA000030003500309000
B1954552827136N08149856WA000030003500409000
B1955002827136N08149856WA000020003500409000
L   FlyChart®
L   Version 4.57, Sep. 1st 2014
G058EFF3FFD689F8E149058B09A2F463EFC4F8266886C67E7BC19F467C94044E5
