AFLY017w 04336
HFDTE040416
HFFXA010
HFPLTPILOT:Owen McDermott-B
HFGTYGLIDERTYPE:Sport 2 155     
HFGIDGLIDERID:not-set         
HFDTM100GPSDATUM:WGS84
HFRFWFIRMWAREVERSION: 1.3.07  Eng
HFRHWHARDWAREVERSION:1.00
HFFTYFRTYPE:Flytec,6015
HFGPS:FASTRAX,IT430,48
HFPRSPRESSALTSENSOR:INTERSEMA,MS5401BM,12000
HFTZNUTCOFFSET: -4
I033638FXA3940SIU4143TAS
C040416144716040416002803
C2831935N08150793WTakeoff
C2831982N08150800W00000000003000000000360000StartArea,QUEST           
C2829050N08146564W00000000001000000000360000TurnArea,SAWMIL          
C2828681N08154417W00000000000400000000360000TurnArea,BAYLK           
C2834856N08157645W00000000000400000000360000TurnArea,T50469          
C2831982N08150800W00000000000400000000360000FinishArea,QUEST           
C2830715N08154776WLanding
F17273803162223262932
B1727382831898N08150789WA-00260004300707000
F17280803162223262932
B1728082831898N08150789WA-00250004300907000
F17283803162223262932
B1728382831902N08150790WA-00240004400507000
F17290803162223262932
B1729082831901N08150791WA-00240004301307000
F1729380316222326293132
B1729382831901N08150791WA-00230004300808000
F1730080316222326293132
B1730082831901N08150791WA-00230004300708000
F1730380316222326293132
B1730382831905N08150791WA-00220004400608000
F1731080316222326293132
B1731082831907N08150791WA-00220004400408000
F1731380316222326293132
B1731382831916N08150792WA-00220004400508000
E173141STA
E173141ATS1021.3
LFLYA100043
B1731412831935N08150793WA-00220004300508000
B1731462831976N08150799WA-00110004600808000
B1731512832014N08150801WA000030005700908000
B1731562832052N08150801WA000150007300908000
B1732012832092N08150800WA000210008700908000
B1732062832131N08150809WA000340009901008000
B1732112832172N08150811WA000470011200808000
B1732162832212N08150799WA000590012400908000
B1732212832252N08150785WA000760014000908000
B1732262832288N08150765WA000970015900808000
B1732312832323N08150743WA001140017800708000
B1732362832358N08150722WA001290019500708000
B1732412832388N08150697WA001440021100708000
B1732462832420N08150674WA001580022500708000
B1732512832457N08150655WA001680023700708000
B1732562832492N08150634WA001830024900808000
B1733012832528N08150616WA002040026600708000
B1733062832558N08150598WA002280028800708000
B1733112832590N08150574WA002490031200608000
B1733162832623N08150551WA002670033200608000
B1733212832657N08150529WA002870035300508000
B1733262832695N08150510WA003100037600608000
B1733312832731N08150492WA003330039900608000
B1733362832764N08150470WA003520042100608000
B1733412832799N08150447WA003660043900708000
B1733462832832N08150436WA003800045200708000
B1733512832862N08150448WA003970046700908000
B1733562832880N08150479WA004140048200408000
B1734012832881N08150523WA004340049900508000
B1734062832861N08150567WA004570052200608000
B1734112832839N08150612WA004800054500608000
B1734162832814N08150656WA005030056600708000
B1734212832789N08150696WA005240059000808000
B1734262832755N08150726WA005480061400908000
B1734312832714N08150740WA005780064100708000
B1734362832683N08150738WA005880066400708000
B1734412832665N08150709WA005950067600708000
B1734462832673N08150681WA006010068100508000
B1734512832705N08150683WA006030068100908000
B1734562832738N08150698WA006050068200708000
B1735012832774N08150695WA006050068101008000
B1735062832786N08150654WA006050068000708000
B1735112832764N08150610WA006100068200808000
B1735162832736N08150583WA006200068600908000
B1735212832711N08150556WA006230068900508000
F17352603141622232627293132
B1735262832709N08150522WA006210069300310000
B1735312832733N08150504WA006200069300710000
B1735362832754N08150523WA006190069300610000
B1735412832739N08150555WA006210069300610000
B1735462832698N08150558WA006300069801010000
B1735512832663N08150544WA006290070300710000
B1735562832624N08150547WA006330070400610000
B1736012832590N08150555WA006410071000410000
B1736062832556N08150543WA006510071900510000
B1736112832521N08150527WA006590072800610000
B1736162832490N08150535WA006610073400510000
B1736212832464N08150558WA006680073900510000
F173626031416232627293132
B1736262832470N08150594WA006760074301209000
F17363103141622232627293132
B1736312832503N08150599WA006840074600710000
B1736362832533N08150579WA006900074900710000
B1736412832557N08150557WA006940075300510000
B1736462832586N08150544WA006980075900510000
B1736512832617N08150550WA007010076100510000
B1736562832646N08150543WA007060076600510000
B1737012832673N08150525WA007080077000510000
B1737062832694N08150500WA007130077500510000
B1737112832720N08150497WA007190077900510000
B1737162832743N08150513WA007250078500610000
B1737212832767N08150532WA007270078900510000
B1737262832795N08150530WA007330079300510000
B1737312832816N08150496WA007330079400910000
B1737362832810N08150448WA007330079500510000
B1737412832797N08150400WA007330079400710000
B1737462832805N08150360WA007330079700610000
B1737512832824N08150373WA007240079300910000
B1737562832806N08150408WA007260079200610000
B1738012832783N08150435WA007240078900510000
B1738062832758N08150453WA007250078800610000
B1738112832725N08150470WA007290079000410000
B1738162832694N08150488WA007410079600510000
B1738212832668N08150507WA007490080400410000
B1738262832638N08150519WA007510081100810000
B1738312832622N08150545WA007560081700710000
B1738362832636N08150573WA007560081900710000
B1738412832668N08150561WA007570081900710000
B1738462832693N08150532WA007620082100610000
B1738512832713N08150503WA007690082600510000
B1738562832722N08150464WA007700083000410000
B1739012832706N08150417WA007690083100510000
B1739062832668N08150391WA007700083100410000
B1739112832626N08150380WA007750083500610000
B1739162832586N08150369WA007830084000510000
B1739212832549N08150366WA007780084200610000
B1739262832517N08150378WA007770084100410000
B1739312832500N08150414WA007750083900410000
B1739362832493N08150448WA007770084000310000
B1739412832473N08150482WA007780084000410000
B1739462832457N08150518WA007720083800410000
B1739512832447N08150554WA007680083300410000
B1739562832442N08150587WA007640083000410000
B1740012832436N08150624WA007620082700410000
B1740062832433N08150658WA007680083000410000
B1740112832423N08150693WA007750083500410000
B1740162832409N08150728WA007910084600410000
B1740212832401N08150765WA007970085400410000
B1740262832418N08150790WA008070086500610000
B1740312832444N08150773WA008190087400810000
B1740362832433N08150732WA008300088600710000
B1740412832395N08150710WA008450090000710000
B1740462832360N08150710WA008560091400710000
B1740512832345N08150738WA008600092200910000
B1740562832370N08150755WA008670092700710000
B1741012832392N08150726WA008790093501110000
B1741062832386N08150679WA008920094500510000
B1741112832376N08150635WA009000095500510000
B1741162832361N08150596WA009090096600410000
B1741212832349N08150559WA009120097200510000
B1741262832328N08150531WA009040097200810000
B1741312832302N08150555WA008930096801110000
F174136141622232627293132
B1741362832322N08150595WA008860095801009000
F17414103141622232627293132
B1741412832352N08150612WA008860095200510000
B1741462832377N08150628WA008950095400810000
B1741512832400N08150641WA009080096200710000
B1741562832427N08150659WA009260097500710000
B1742012832449N08150680WA009430099300610000
B1742062832475N08150692WA009550100900510000
B1742112832504N08150670WA009650102200610000
B1742162832507N08150627WA009750103300610000
B1742212832487N08150590WA009780103900510000
B1742262832457N08150564WA009860104500510000
B1742312832417N08150551WA009940105100510000
B1742362832377N08150557WA010030106000510000
B1742412832348N08150581WA010050106600610000
B1742462832342N08150620WA010140107000410000
B1742512832344N08150656WA010260108100510000
B1742562832349N08150693WA010470110000510000
B1743012832350N08150727WA010600111800510000
B1743062832359N08150762WA010670112900410000
B1743112832385N08150768WA010730113500610000
B1743162832390N08150729WA010780114000610000
B1743212832361N08150703WA010930115200710000
B1743262832322N08150714WA011030116400710000
B1743312832309N08150747WA011080117200910000
B1743362832330N08150767WA011110117600610000
B1743412832358N08150755WA011140117800510000
B1743462832379N08150726WA011200118100510000
B1743512832403N08150702WA011350118800510000
B1743562832430N08150679WA011450119900710000
B1744012832442N08150640WA011550121100510000
B1744062832428N08150602WA011620122200310000
B1744112832397N08150575WA011680122900510000
B1744162832359N08150561WA011760123600410000
F174421031622232627293132
B1744212832320N08150556WA011890124700409000
F17442603141622232627293132
B1744262832279N08150541WA012050126300510000
B1744312832247N08150513WA012100127600510000
B1744362832210N08150503WA012070127900810000
B1744412832183N08150525WA011990127500510000
B1744462832186N08150560WA011940126900710000
B1744512832209N08150575WA012040126900810000
B1744562832231N08150581WA012190127400610000
B1745012832257N08150590WA012270128300810000
B1745062832275N08150615WA012340129200610000
B1745112832294N08150638WA012400130000610000
B1745162832319N08150663WA012450130500610000
B1745212832344N08150687WA012500131000610000
B1745262832365N08150712WA012560131800610000
B1745312832396N08150730WA012570132100610000
B1745362832428N08150735WA012660132700610000
B1745412832455N08150733WA012810133600610000
B1745462832477N08150713WA012870134500610000
B1745512832494N08150677WA012850135100710000
B1745562832492N08150629WA012820134900610000
B1746012832473N08150585WA012840135000410000
B1746062832445N08150544WA012960135500410000
B1746112832411N08150513WA013040136200510000
B1746162832379N08150492WA013050136900510000
B1746212832342N08150494WA013030137100710000
B1746262832314N08150529WA013070137200510000
B1746312832291N08150560WA013130137600610000
B1746362832256N08150581WA013280138100710000
B1746412832225N08150589WA013440139400610000
F174646031416222327293132
B1746462832188N08150588WA013560140700609000
F17465103141622232627293132
B1746512832150N08150585WA013790142900710000
B1746562832125N08150559WA013830144600510000
B1747012832124N08150512WA013880145400610000
B1747062832151N08150483WA014000145900910000
B1747112832185N08150496WA014020146200710000
B1747162832203N08150523WA014060146700710000
B1747212832216N08150551WA014140147400510000
B1747262832221N08150585WA014270148300410000
F174731031416222327293132
B1747312832213N08150616WA014310149000409000
F17473603141622232627293132
B1747362832188N08150643WA014390149700510000
B1747412832154N08150648WA014450150500810000
B1747462832125N08150621WA014460151000510000
B1747512832126N08150578WA014530151600410000
B1747562832157N08150558WA014650152301010000
B1748012832189N08150561WA014750153500510000
B1748062832221N08150569WA014800154400610000
B1748112832255N08150565WA014800154800510000
B1748162832271N08150528WA014810154900910000
B1748212832254N08150491WA014790154800710000
B1748262832217N08150476WA014800154800410000
B1748312832180N08150480WA014790154700510000
B1748362832142N08150491WA014830154900510000
B1748412832105N08150507WA014890155300410000
B1748462832072N08150515WA014940155600710000
B1748512832040N08150484WA015050156500610000
B1748562832044N08150441WA015110157400610000
B1749012832072N08150421WA015130157800610000
B1749062832104N08150415WA015070157800510000
B1749112832141N08150406WA015180158000610000
B1749162832172N08150394WA015200158300410000
B1749212832202N08150378WA015170158200510000
B1749262832224N08150348WA015130158000610000
B1749312832226N08150302WA015000157500710000
B1749362832194N08150255WA014990156800710000
B1749412832170N08150214WA014880156200510000
B1749462832156N08150167WA014860155700510000
B1749512832135N08150124WA014780154900410000
B1749562832103N08150089WA014690154000810000
B1750012832070N08150056WA014540152600710000
F175006031416222326272932
B1750062832026N08150015WA014460151201009000
F17501103141622232627293132
B1750112831985N08149984WA014410150500610000
B1750162831950N08149950WA014380149900410000
B1750212831914N08149922WA014290149200510000
B1750262831873N08149896WA014160148500610000
B1750312831838N08149867WA014080147700710000
B1750362831807N08149829WA014020146800510000
B1750412831782N08149788WA013920145900310000
B1750462831759N08149743WA013860145100310000
B1750512831730N08149704WA013810144400410000
B1750562831692N08149675WA013720143600610000
B1751012831661N08149638WA013680143000410000
B1751062831641N08149591WA013600142400510000
B1751112831621N08149544WA013520141700410000
B1751162831598N08149501WA013500141200410000
B1751212831577N08149461WA013470141000310000
B1751262831567N08149416WA013420140600410000
B1751312831557N08149370WA013350140100410000
B1751362831541N08149327WA013300139600310000
B1751412831524N08149283WA013250139000310000
B1751462831504N08149237WA013150138200410000
B1751512831490N08149191WA013130137800510000
B1751562831479N08149150WA013100137400510000
B1752012831467N08149113WA012990136900510000
B1752062831453N08149073WA012890135800510000
B1752112831417N08149046WA012860134700610000
B1752162831372N08149036WA012940134600610000
B1752212831327N08149028WA013050135600510000
B1752262831306N08148993WA013110136700510000
B1752312831314N08148958WA013100137100610000
B1752362831341N08148952WA013100137100710000
B1752412831357N08148982WA013140137300410000
F175246031622232627293132
B1752462831336N08149019WA013250137700609000
F17525103141622232627293132
B1752512831297N08149035WA013360138700710000
B1752562831255N08149031WA013420139600610000
B1753012831222N08149004WA013420140300410000
B1753062831217N08148961WA013390140400910000
B1753112831234N08148935WA013340140100710000
B1753162831262N08148930WA013330139700710000
B1753212831286N08148946WA013320139400610000
B1753262831298N08148976WA013380139600710000
B1753312831316N08149001WA013420140000410000
B1753362831332N08149028WA013380140300510000
B1753412831331N08149069WA013340140200510000
B1753462831299N08149093WA013280139701110000
B1753512831254N08149076WA013310139500910000
B1753562831218N08149052WA013380139800510000
B1754012831189N08149020WA013400140100510000
B1754062831185N08148978WA013470140700310000
B1754112831197N08148944WA013460140900510000
B1754162831220N08148927WA013480141000410000
B1754212831234N08148949WA013500141200410000
B1754262831214N08148981WA013530141400410000
B1754312831172N08148984WA013550141701110000
B1754362831137N08148953WA013570141800510000
B1754412831133N08148913WA013510141800710000
B1754462831158N08148898WA013470141300810000
B1754512831182N08148916WA013550141400810000
B1754562831197N08148938WA013570141900710000
B1755012831209N08148966WA013510141800610000
B1755062831195N08148999WA013420141200510000
B1755112831149N08148996WA013330140300810000
B1755162831128N08148955WA013330140000710000
B1755212831135N08148919WA013300139700510000
B1755262831157N08148904WA013280139300710000
B1755312831185N08148900WA013340139400610000
B1755362831204N08148881WA013320139400610000
B1755412831231N08148870WA013290139200510000
B1755462831262N08148867WA013300139100410000
B1755512831285N08148885WA013380139400510000
B1755562831276N08148921WA013430140100410000
B1756012831238N08148934WA013460140700910000
B1756062831206N08148907WA013330140400610000
B1756112831196N08148859WA013260139500710000
B1756162831207N08148816WA013290139200410000
B1756212831224N08148784WA013320139500510000
B1756262831243N08148755WA013350139700410000
B1756312831268N08148745WA013410140100510000
B1756362831287N08148764WA013440140400410000
B1756412831281N08148794WA013470140800310000
B1756462831247N08148806WA013580141300810000
B1756512831216N08148776WA013660142000510000
B1756562831211N08148731WA013680142500510000
B1757012831225N08148698WA013700142900410000
B1757062831245N08148668WA013670143000410000
B1757112831272N08148659WA013590142800610000
B1757162831292N08148685WA013550142200610000
B1757212831297N08148715WA013650142300510000
B1757262831306N08148746WA013750142900710000
B1757312831333N08148764WA013870144100710000
B1757362831351N08148783WA013940145400710000
B1757412831342N08148814WA013930145800410000
B1757462831304N08148814WA013960145800710000
B1757512831289N08148774WA013980146100910000
B1757562831300N08148738WA014100146600610000
B1758012831323N08148722WA014150147300510000
B1758062831348N08148719WA014050147300510000
B1758112831366N08148739WA013960146800610000
B1758162831350N08148769WA013900146300510000
B1758212831312N08148772WA013940146000810000
B1758262831279N08148738WA014000146300410000
B1758312831258N08148697WA014100146800410000
B1758362831237N08148657WA014130147200410000
B1758412831250N08148625WA014110147400810000
B1758462831276N08148634WA014070147400710000
B1758512831286N08148659WA014020147000510000
B1758562831273N08148695WA014010146700410000
B1759012831240N08148714WA014060146700410000
B1759062831199N08148706WA014090147000810000
B1759112831165N08148682WA014110147400610000
B1759162831132N08148655WA014150147700510000
B1759212831101N08148628WA014160147900510000
B1759262831073N08148598WA014150147900310000
B1759312831045N08148562WA014170148000510000
F175936031416222326272932
B1759362831015N08148531WA014110147800409000
F17594103141622232627293132
B1759412830979N08148505WA013980146800610000
B1759462830940N08148480WA013870145600510000
B1759512830901N08148451WA013750144200510000
B1759562830863N08148420WA013660143000510000
B1800012830823N08148390WA013530141900510000
B1800062830783N08148364WA013420140700610000
B1800112830745N08148334WA013340139800610000
B1800162830708N08148308WA013230138800410000
B1800212830667N08148285WA013080137600410000
B1800262830621N08148264WA012970136500510000
B1800312830582N08148233WA012870135400510000
B1800362830543N08148206WA012760134200410000
B1800412830503N08148180WA012640132800710000
B1800462830464N08148150WA012480131400610000
B1800512830425N08148125WA012330129900510000
B1800562830389N08148092WA012190128300410000
B1801012830356N08148052WA012040127000410000
B1801062830320N08148021WA011930125900510000
B1801112830278N08147995WA011860125000510000
B1801162830241N08147971WA011790124200610000
B1801212830209N08147938WA011700123500610000
B1801262830176N08147907WA011650122900510000
B1801312830139N08147881WA011610122400510000
B1801362830114N08147842WA011510121800410000
B1801412830097N08147798WA011400120800310000
B1801462830082N08147753WA011320119800410000
B1801512830067N08147712WA011220118800410000
B1801562830043N08147675WA011140117800510000
B1802012830021N08147641WA011070117000310000
B1802062830009N08147601WA010990116400310000
B1802112829992N08147557WA010920115700310000
B1802162829969N08147512WA010930115200610000
B1802212829937N08147479WA011020115600610000
B1802262829906N08147444WA011100116400410000
B1802312829895N08147404WA011210117300810000
B1802362829917N08147385WA011250118001010000
B1802412829941N08147398WA011370119300610000
B1802462829937N08147432WA011490120500410000
B1802512829908N08147458WA011600121700410000
B1802562829872N08147471WA011710122800310000
B1803012829829N08147471WA011800123800510000
B1803062829796N08147440WA011890125000410000
B1803112829797N08147403WA011910125700710000
B1803162829823N08147388WA011900125801110000
B1803212829853N08147389WA011910125700710000
B1803262829878N08147400WA011930125700510000
B1803312829884N08147434WA011980125900510000
B1803362829864N08147467WA012040126400510000
F180341031416222326293132
B1803412829838N08147494WA012030126600409000
F18034603141622232627293132
B1803462829800N08147506WA012080126900510000
B1803512829765N08147480WA012110127300510000
B1803562829754N08147440WA012190127900410000
B1804012829768N08147416WA012190128300510000
B1804062829787N08147419WA012120128100610000
B1804112829796N08147445WA012190128200510000
B1804162829789N08147480WA012170128200410000
B1804212829759N08147508WA012190128300410000
B1804262829717N08147520WA012210128400410000
B1804312829672N08147521WA012180128300510000
B1804362829627N08147507WA012130128000410000
B1804412829586N08147482WA012070127500410000
B1804462829555N08147444WA011950127000310000
B1804512829541N08147400WA011920126400310000
B1804562829547N08147361WA011840125700610000
B1805012829564N08147328WA011730124900510000
B1805062829583N08147301WA011600123900510000
B1805112829612N08147288WA011520122600710000
B1805162829644N08147299WA011450121400510000
B1805212829677N08147319WA011370120400510000
B1805262829711N08147335WA011340120000610000
B1805312829744N08147338WA011330119700610000
B1805362829775N08147328WA011310119500610000
B1805412829801N08147322WA011280119400710000
B1805462829826N08147318WA011220118900610000
B1805512829854N08147310WA011130118400610000
B1805562829877N08147318WA011090117900510000
B1806012829887N08147347WA011160117900610000
B1806062829902N08147367WA011200118200510000
B1806112829918N08147390WA011190118400510000
B1806162829912N08147420WA011160118400410000
B1806212829883N08147436WA011090118200410000
B1806262829845N08147421WA011120118100610000
B1806312829832N08147375WA011140117900910000
B1806362829853N08147344WA011160117900810000
B1806412829883N08147344WA011110117700710000
B1806462829904N08147359WA011070117500510000
B1806512829912N08147385WA011020117200510000
B1806562829919N08147414WA011050117100510000
B1807012829932N08147439WA011050117200510000
B1807062829953N08147459WA010980116600410000
B1807112829970N08147479WA010910116000410000
B1807162829970N08147507WA010860115500410000
B1807212829947N08147529WA010800115000410000
B1807262829910N08147525WA010750114500610000
B1807312829876N08147502WA010710114000510000
B1807362829844N08147473WA010670113500510000
B1807412829812N08147446WA010690113400410000
B1807462829773N08147430WA010700113400410000
B1807512829733N08147407WA010680113400310000
B1807562829723N08147362WA010680113301010000
B1808012829744N08147341WA010700113401110000
B1808062829757N08147366WA010700113400610000
B1808112829738N08147396WA010750113800410000
B1808162829701N08147400WA010720113700510000
B1808212829669N08147367WA010710113600510000
B1808262829664N08147321WA010690113600510000
B1808312829668N08147276WA010700113500710000
B1808362829666N08147232WA010670113300610000
B1808412829680N08147195WA010610113000610000
B1808462829706N08147188WA010560112600910000
B1808512829714N08147217WA010490112100610000
B1808562829679N08147239WA010430111600810000
B1809012829635N08147229WA010370110900610000
B1809062829598N08147206WA010350110300610000
B1809112829568N08147181WA010300109700410000
B1809162829534N08147156WA010220108900610000
B1809212829502N08147124WA010130108000310000
B1809262829474N08147092WA010060107100510000
B1809312829450N08147064WA009990106400310000
B1809362829426N08147033WA009920105900410000
B1809382829415N08147021WA009890105500510000
B1809392829408N08147016WA009870105300510000
E180940TPC
B1809402829401N08147011WA009860105200410000
B1809412829394N08147006WA009840105000510000
B1809422829388N08147001WA009830104800510000
B1809432829381N08146996WA009820104600510000
B1809442829373N08146991WA009800104500510000
B1809452829366N08146988WA009780104400610000
B1809462829359N08146985WA009780104200510000
B1809512829325N08146997WA009660103400510000
B1809562829325N08147038WA009480102000610000
B1810012829342N08147076WA009360100800510000
B1810062829357N08147113WA009250099700410000
B1810112829374N08147152WA009160098700410000
B1810162829390N08147185WA009130098000510000
B1810212829409N08147216WA009050097300510000
F181026031416222326273132
B1810262829425N08147246WA009010096700409000
B1810312829438N08147278WA008960096300409000
B1810362829450N08147310WA008910096000509000
B1810412829466N08147343WA008860095500609000
B1810462829483N08147375WA008790094900409000
B1810512829496N08147405WA008730094100509000
B1810562829496N08147441WA008670093300409000
B1811012829489N08147481WA008530092300609000
B1811062829457N08147509WA008450091400809000
B1811112829421N08147531WA008340090400809000
B1811162829422N08147570WA008160089201009000
B1811212829443N08147604WA008060087700709000
F1811260314162223262731
B1811262829468N08147638WA007980086600708000
F181131031416222326273132
B1811312829495N08147651WA007980086100709000
B1811362829516N08147628WA007950085800809000
B1811412829504N08147588WA007890085501009000
B1811462829464N08147584WA007830084900709000
B1811512829435N08147611WA007720084000909000
B1811562829439N08147653WA007650083100709000
B1812012829451N08147687WA007640082700609000
B1812062829453N08147721WA007620082500409000
B1812112829442N08147756WA007590082400509000
B1812162829424N08147790WA007570082200509000
B1812212829407N08147826WA007520081800709000
B1812262829393N08147863WA007420081100709000
B1812312829395N08147900WA007290080000509000
B1812362829420N08147905WA007180078700809000
B1812412829439N08147882WA007140078101009000
B1812462829460N08147860WA007100077700909000
B1812512829484N08147840WA007040077300709000
B1812562829511N08147818WA007050077000809000
B1813012829534N08147796WA007060077100809000
B1813062829562N08147783WA007060077000709000
B1813112829589N08147780WA007040076800709000
B1813162829615N08147780WA007030076600509000
B1813212829642N08147782WA007010076400509000
B1813262829661N08147806WA007060076400509000
B1813312829661N08147842WA007100076800409000
B1813362829643N08147874WA007150077100409000
B1813412829612N08147897WA007130077300409000
B1813462829573N08147891WA007140077400609000
B1813512829560N08147855WA007200077700909000
B1813562829576N08147825WA007220078000809000
B1814012829607N08147819WA007260078400609000
B1814062829635N08147832WA007300078900509000
B1814112829651N08147862WA007310079000709000
B1814162829629N08147896WA007230079100609000
B1814212829587N08147904WA007200078800609000
B1814262829547N08147907WA007180078400409000
B1814312829507N08147910WA007170078200409000
B1814362829470N08147931WA007170078101209000
B1814412829464N08147976WA007160078000709000
B1814462829451N08148017WA007130077600809000
B1814512829429N08148053WA007130077500509000
B1814562829409N08148091WA007130077500609000
B1815012829411N08148133WA007180077700809000
B1815062829428N08148163WA007260078400509000
B1815112829433N08148202WA007280078700509000
B1815162829431N08148246WA007360079400509000
B1815212829423N08148290WA007450080500609000
B1815262829416N08148334WA007410080800609000
B1815312829437N08148358WA007350080501009000
B1815362829453N08148328WA007290080201309000
B1815412829439N08148293WA007240079700709000
B1815462829424N08148262WA007280079600809000
F18155103081416222326273132
B1815512829414N08148227WA007320080000710000
B1815562829392N08148195WA007380080600510000
B1816012829364N08148176WA007440081300410000
B1816062829329N08148166WA007440081400410000
B1816112829296N08148176WA007430081400510000
B1816162829273N08148210WA007400081200810000
B1816212829291N08148240WA007410081000810000
B1816262829322N08148233WA007450081000710000
B1816312829351N08148223WA007480081200510000
B1816362829381N08148220WA007520081700410000
B1816412829413N08148224WA007570082100410000
B1816462829446N08148229WA007640082600410000
B1816512829477N08148223WA007690083200510000
B1816562829487N08148192WA007690083600910000
B1817012829468N08148164WA007760084300710000
B1817062829439N08148145WA007890085100610000
B1817112829415N08148120WA007970086000610000
B1817162829386N08148094WA007970086600610000
B1817212829345N08148091WA007970086800510000
B1817262829317N08148122WA007980086900810000
B1817312829321N08148165WA007990087100610000
B1817362829331N08148203WA008050087500410000
B1817412829339N08148242WA008080087900510000
B1817462829363N08148265WA008080088100310000
B1817512829396N08148263WA008110088200510000
B1817562829424N08148250WA008110088200810000
B1818012829449N08148228WA008070087900510000
B1818062829465N08148195WA008080087800510000
B1818112829460N08148157WA008100087900710000
B1818162829426N08148143WA008150087900810000
B1818212829389N08148153WA008290088900410000
B1818262829353N08148167WA008420090400510000
B1818312829332N08148202WA008500091600810000
B1818362829349N08148231WA008520092200810000
B1818412829376N08148226WA008570092500710000
B1818462829385N08148192WA008630092901010000
B1818512829371N08148160WA008740094000810000
B1818562829340N08148142WA008800094700610000
B1819012829302N08148146WA008870095400410000
B1819062829277N08148178WA008950096200510000
B1819112829282N08148215WA008960096500610000
B1819162829309N08148231WA008980096900510000
B1819212829338N08148219WA008960096800610000
B1819262829361N08148203WA009070097200610000
B1819312829383N08148180WA009170097700610000
B1819362829383N08148145WA009310099001110000
B1819412829356N08148120WA009430100600610000
B1819462829319N08148122WA009510101600410000
B1819512829281N08148140WA009550102300410000
B1819562829262N08148174WA009620103000910000
B1820012829284N08148200WA009630103200610000
B1820062829317N08148204WA009590103000410000
B1820112829354N08148196WA009650103000610000
B1820162829382N08148176WA009750103800610000
F1820210308091416222326273132
B1820212829400N08148151WA009800104400511000
B1820262829384N08148115WA009940105500711000
B1820312829353N08148120WA010090107000511000
B1820362829347N08148157WA010200108500811000
B1820412829376N08148173WA010240109300511000
B1820462829400N08148155WA010320110100611000
B1820512829396N08148117WA010460111000511000
B1820562829374N08148087WA010530112000411000
B1821012829345N08148069WA010620113100411000
B1821062829315N08148072WA010730114300311000
B1821112829293N08148101WA010700114800911000
B1821162829307N08148149WA010820115100711000
B1821212829330N08148174WA010870115700611000
B1821262829357N08148193WA010920116300411000
B1821312829391N08148197WA010920116500511000
B1821362829421N08148197WA010950116700411000
B1821412829463N08148199WA010850116500611000
B1821462829489N08148164WA010780115901211000
B1821512829473N08148123WA010710115100611000
B1821562829456N08148088WA010760115000511000
B1822012829441N08148053WA010820115200411000
B1822062829424N08148019WA010800115200411000
B1822112829397N08148000WA010750115000411000
B1822162829367N08148009WA010760114600511000
B1822212829349N08148036WA010890115000511000
B1822262829341N08148068WA011050116600511000
B1822312829348N08148101WA011140118100411000
B1822362829378N08148117WA011230119000511000
B1822412829410N08148096WA011310120000611000
B1822462829418N08148057WA011390121000711000
B1822512829402N08148027WA011470121800411000
B1822562829375N08148009WA011530122500411000
B1823012829349N08147977WA011550123000611000
B1823062829323N08147956WA011590123400411000
B1823112829288N08147947WA011650123800711000
B1823162829275N08147983WA011800124901011000
B1823212829304N08148010WA011920126100511000
B1823262829338N08147997WA012000127101011000
B1823312829339N08147950WA012110128100811000
B1823362829307N08147931WA012110128400611000
B1823412829269N08147944WA012240129100511000
B1823462829254N08147981WA012370130500611000
B1823512829269N08148019WA012440131600411000
B1823562829301N08148032WA012400131900611000
B1824012829336N08148009WA012410131701311000
B1824062829339N08147961WA012480131900611000
B1824112829310N08147934WA012600132700711000
B1824162829279N08147953WA012700133800711000
B1824212829274N08147984WA012810135300711000
B1824262829291N08148012WA012720135500511000
B1824312829329N08148008WA012660134900711000
B1824362829345N08147964WA012680134500911000
B1824412829332N08147919WA012770134800511000
B1824462829313N08147879WA012830135400611000
B1824512829287N08147839WA012840135700311000
B1824562829258N08147849WA012820135901111000
B1825012829274N08147892WA012960136600711000
B1825062829290N08147920WA013080137900511000
B1825112829294N08147946WA013060138500511000
B1825162829298N08147981WA012970137900711000
B1825212829335N08147984WA012920137200811000
B1825262829370N08147958WA012850136300511000
B1825312829407N08147935WA012910136000511000
B1825362829444N08147921WA012930136200411000
B1825412829479N08147914WA012890136300411000
B1825462829515N08147907WA012850136000411000
B1825512829545N08147881WA012720135200911000
B1825562829537N08147835WA012550133700511000
B1826012829498N08147820WA012360131700711000
B1826062829460N08147837WA012270130400411000
B1826112829428N08147852WA012160129000411000
B1826162829394N08147866WA012140128200611000
B1826212829369N08147879WA012080127900311000
B1826262829335N08147887WA012020127400311000
B1826312829305N08147900WA012080127600311000
B1826362829274N08147910WA012170128000311000
B1826412829241N08147905WA012240128800411000
B1826462829201N08147890WA012280129400311000
B1826512829166N08147899WA012310129600411000
B1826562829152N08147929WA012330130000411000
B1827012829161N08147963WA012360130300511000
B1827062829190N08147982WA012290130100511000
B1827112829225N08147968WA012210129600711000
B1827162829236N08147919WA012190129100611000
B1827212829227N08147865WA012200128800611000
B1827262829217N08147823WA012330129600711000
B1827312829212N08147780WA012390130500611000
B1827362829212N08147741WA012420131100611000
B1827412829207N08147699WA012410131100511000
B1827462829176N08147684WA012420131300711000
B1827512829165N08147716WA012340131000911000
B1827562829176N08147749WA012360130900811000
B1828012829175N08147785WA012380130800411000
B1828062829171N08147822WA012440131200411000
B1828112829171N08147854WA012400131200411000
B1828162829154N08147884WA012490131500511000
B1828212829123N08147864WA012490131700811000
B1828262829130N08147824WA012570132200511000
B1828312829158N08147811WA012610132500511000
B1828362829188N08147821WA012600132300511000
B1828412829209N08147850WA012650132700411000
B1828462829203N08147879WA012560132800811000
B1828512829164N08147879WA012460132300611000
B1828562829128N08147867WA012440131900411000
B1829012829095N08147840WA012440131700511000
B1829062829082N08147797WA012420131600611000
B1829112829104N08147771WA012400131300411000
B1829162829134N08147755WA012360131000411000
B1829212829165N08147731WA012370130900411000
B1829262829193N08147706WA012430131200411000
B1829312829224N08147681WA012490131600411000
B1829362829259N08147661WA012560132200411000
B1829412829299N08147655WA012720133300411000
B1829462829334N08147653WA012770134200411000
B1829512829360N08147668WA012710134300511000
B1829562829353N08147695WA012630134100611000
B1830012829328N08147707WA012570133600511000
B1830062829295N08147704WA012470132700411000
B1830112829263N08147688WA012520132200511000
B1830162829234N08147673WA012520132100411000
B1830212829206N08147660WA012550132200411000
B1830262829179N08147638WA012600132700311000
B1830312829156N08147607WA012780133600411000
B1830362829155N08147566WA012890134700511000
B1830412829180N08147541WA012960135500411000
B1830462829205N08147558WA012970135900811000
B1830512829201N08147596WA013050136500511000
B1830562829176N08147617WA013180137600511000
B1831012829144N08147619WA013250138700411000
B1831062829114N08147597WA013310139600311000
B1831112829100N08147556WA013280140000811000
B1831162829128N08147522WA013290140000811000
B1831212829163N08147534WA013420140600611000
B1831262829179N08147566WA013500141400411000
B1831312829165N08147594WA013570142200511000
B1831362829134N08147587WA013690143000611000
B1831412829132N08147545WA013720143700711000
B1831462829158N08147507WA013750144500411000
B1831512829194N08147508WA013860145400511000
B1831562829207N08147536WA013960146300411000
B1832012829189N08147556WA013970146800411000
B1832062829158N08147550WA014020147100611000
B1832112829138N08147516WA014000147400711000
B1832162829148N08147467WA014080147900611000
B1832212829177N08147436WA014150148300311000
B1832262829206N08147444WA014180148600411000
B1832312829208N08147476WA014220149000511000
B1832362829192N08147498WA014280149700511000
B1832412829164N08147507WA014290150100311000
B1832462829135N08147486WA014330150400511000
B1832512829127N08147440WA014310150500711000
B1832562829155N08147405WA014320150500711000
B1833012829178N08147430WA014360150700711000
B1833062829156N08147452WA014370150800611000
B1833112829127N08147429WA014390150900611000
B1833162829138N08147388WA014370150900711000
B1833212829171N08147394WA014370150800711000
B1833262829171N08147428WA014370151000611000
B1833312829147N08147451WA014340150800411000
B1833362829132N08147476WA014290150600511000
B1833412829127N08147507WA014190149700511000
B1833462829126N08147541WA014090148500511000
B1833512829125N08147581WA013950147400511000
B1833562829122N08147617WA013870146400511000
B1834012829114N08147649WA013700144900611000
F18340603091416222326273132
B1834062829099N08147676WA013500143400610000
F1834110308091416222326273132
B1834112829082N08147712WA013480142000611000
B1834162829065N08147740WA013430141100611000
B1834212829047N08147777WA013450140900511000
B1834262829027N08147813WA013530141500511000
B1834312829013N08147843WA013550142000411000
B1834362829026N08147875WA013530142200511000
B1834412829061N08147881WA013610142600611000
B1834462829086N08147854WA013610143200511000
B1834512829077N08147810WA013710143600811000
B1834562829045N08147792WA013710144000511000
B1835012829023N08147814WA013680144000911000
B1835062829040N08147850WA013660143700511000
B1835112829076N08147862WA013710143800511000
B1835162829114N08147864WA013720143900511000
B1835212829138N08147838WA013620143800711000
B1835262829123N08147802WA013650143600511000
B1835312829090N08147799WA013660143600611000
B1835362829065N08147817WA013610143300511000
B1835412829064N08147852WA013570143100411000
B1835462829095N08147873WA013590142900411000
B1835512829128N08147879WA013550142800411000
B1835562829162N08147885WA013440141900311000
B1836012829191N08147892WA013190140400511000
B1836062829202N08147922WA013060138700311000
B1836112829209N08147949WA012930137200411000
B1836162829225N08147976WA012780135600411000
B1836212829235N08148007WA012630134000411000
B1836262829240N08148032WA012560132700411000
F18363103080916222326273132
B1836312829245N08148059WA012490131700610000
B1836362829263N08148088WA012470131500510000
B1836412829282N08148115WA012480131500510000
B1836462829297N08148143WA012420131400610000
B1836512829310N08148174WA012320130500610000
B1836562829328N08148204WA012220129400610000
B1837012829345N08148237WA012130128400410000
B1837062829353N08148270WA012040127600410000
B1837112829361N08148305WA011970126800510000
B1837162829371N08148337WA011940126400510000
B1837212829385N08148371WA011970126300410000
F183726030809162326273132
B1837262829398N08148404WA011990126400409000
F18373103080916222326273132
B1837312829409N08148437WA012040126800410000
B1837362829426N08148464WA012120127300410000
B1837412829452N08148475WA012230128000410000
B1837462829480N08148488WA012290128700410000
B1837512829497N08148519WA012350129400510000
B1837562829489N08148553WA012400130200310000
B1838012829456N08148571WA012450130800410000
B1838062829424N08148554WA012480131300810000
B1838112829437N08148519WA012560131700910000
B1838162829469N08148528WA012620132400510000
B1838212829481N08148560WA012650132800610000
B1838262829463N08148595WA012610133000510000
B1838312829426N08148599WA012590132900510000
B1838362829412N08148564WA012620133000810000
B1838412829441N08148547WA012650133100610000
B1838462829474N08148564WA012690133300510000
B1838512829494N08148590WA012670133500510000
B1838562829507N08148628WA012650133200410000
B1839012829526N08148665WA012580132800510000
B1839062829534N08148706WA012540132400510000
B1839112829525N08148749WA012470131800510000
B1839162829512N08148785WA012450131400410000
B1839212829494N08148820WA012380130900610000
B1839262829489N08148858WA012360130600410000
B1839312829495N08148891WA012320130200310000
B1839362829514N08148904WA012190129700410000
B1839412829547N08148897WA012250129400510000
B1839462829566N08148875WA012290129500510000
B1839512829580N08148841WA012300129700710000
B1839562829560N08148803WA012370129801010000
B1840012829522N08148812WA012340129900810000
B1840062829506N08148848WA012290129500810000
B1840112829523N08148877WA012230129000510000
B1840162829555N08148874WA012250128800510000
B1840212829583N08148855WA012280128900410000
B1840262829614N08148838WA012330129200510000
B1840312829634N08148807WA012390130000710000
B1840362829633N08148765WA012440130400610000
B1840412829612N08148728WA012440130800610000
B1840462829573N08148719WA012440131000610000
B1840512829545N08148750WA012400130900710000
B1840562829539N08148796WA012390130700510000
B1841012829549N08148835WA012430130900410000
B1841062829571N08148865WA012420130900410000
B1841112829603N08148876WA012430130700310000
B1841162829636N08148865WA012420130600410000
B1841212829646N08148828WA012460130800710000
B1841262829627N08148792WA012530131300510000
B1841312829596N08148771WA012560131800510000
B1841362829561N08148783WA012560132100910000
B1841412829553N08148828WA012560132200510000
B1841462829569N08148866WA012640132800710000
B1841512829593N08148886WA012630133100410000
B1841562829624N08148875WA012540132900710000
B1842012829623N08148831WA012520132501310000
B1842062829592N08148812WA012570132500910000
B1842112829557N08148820WA012570132700510000
B1842162829528N08148847WA012560132600610000
B1842212829527N08148888WA012520132300610000
B1842262829560N08148899WA012500132000810000
B1842312829581N08148869WA012460131500610000
B1842362829577N08148827WA012420131200710000
B1842412829549N08148799WA012400131000410000
B1842462829511N08148789WA012430131000610000
B1842512829472N08148797WA012380130900710000
B1842562829451N08148838WA012300130200610000
B1843012829452N08148888WA012270129600510000
B1843062829457N08148933WA012240129200510000
B1843112829466N08148972WA012180128800410000
B1843162829471N08149015WA012100128200410000
B1843212829469N08149053WA012120128100410000
B1843262829465N08149091WA012030127600710000
B1843312829472N08149133WA011900126600710000
B1843362829480N08149175WA011780125300410000
B1843412829483N08149216WA011690124200410000
B1843462829483N08149254WA011550122800610000
F184351030809162223262731
B1843512829481N08149295WA011400121300509000
B1843562829477N08149334WA011280119800509000
B1844012829478N08149377WA011140118200509000
B1844062829483N08149416WA011020117000609000
B1844112829487N08149463WA010960116000509000
B1844162829477N08149511WA011010115800609000
B1844212829466N08149547WA010980115800709000
B1844262829458N08149584WA010920115600509000
B1844312829446N08149620WA010870115300609000
B1844362829432N08149653WA010820115000509000
B1844412829424N08149693WA010750114500609000
B1844462829418N08149726WA010700114100509000
B1844512829406N08149762WA010630113500509000
B1844562829394N08149795WA010570112900409000
B1845012829386N08149829WA010470112000409000
B1845062829375N08149866WA010410111100409000
B1845112829365N08149903WA010440111000609000
B1845162829354N08149939WA010370110600609000
B1845212829336N08149975WA010380110400509000
B1845262829316N08150007WA010310110000609000
B1845312829297N08150042WA010220109300709000
B1845362829277N08150078WA010200108600509000
B1845412829257N08150104WA010130108100509000
B1845462829245N08150143WA010110107500509000
B1845512829244N08150180WA010040106900609000
B1845562829240N08150219WA010020106700509000
B1846012829226N08150255WA009960106200509000
B1846062829212N08150292WA009880105700609000
B1846112829202N08150330WA009860105300609000
B1846162829194N08150365WA009800104700409000
B1846212829189N08150398WA009790104500409000
B1846262829187N08150430WA009780104300609000
B1846312829175N08150462WA009780104200609000
B1846362829154N08150487WA009780104400609000
B1846412829137N08150517WA009750104200509000
B1846462829134N08150555WA009710103800609000
B1846512829127N08150590WA009690103600609000
B1846562829110N08150620WA009660103400509000
B1847012829094N08150653WA009600102900609000
B1847062829081N08150685WA009540102400509000
B1847112829060N08150718WA009520102100709000
B1847162829034N08150747WA009470101800709000
B1847212829012N08150781WA009590101800609000
B1847262828997N08150817WA009610102000509000
B1847312828975N08150850WA009710102700709000
B1847362828954N08150884WA009750103700609000
B1847412828960N08150922WA009750104000509000
B1847462828985N08150938WA009750104100709000
B1847512829011N08150918WA009750104200609000
F1847560308091622232731
B1847562829012N08150880WA009820104600608000
F184801030809162223262731
B1848012828991N08150846WA009880105000509000
B1848062828962N08150817WA009930105500609000
B1848112828948N08150776WA010010106300709000
B1848162828947N08150736WA010110107300709000
B1848212828969N08150720WA010150107900709000
B1848262828971N08150752WA010220108401309000
B1848312828931N08150755WA010320108901209000
B1848362828911N08150714WA010410110201109000
B1848412828922N08150678WA010460111100609000
B1848462828949N08150678WA010560111900909000
B1848512828944N08150711WA010650113101209000
B1848562828903N08150716WA010730113800809000
B1849012828866N08150703WA010820114700809000
B1849062828840N08150723WA010830115201009000
B1849112828858N08150750WA010840115401009000
B1849162828886N08150752WA010860115700809000
B1849212828911N08150728WA010850115600809000
B1849262828926N08150688WA010950115900609000
B1849312828950N08150674WA011040116700509000
B1849362828972N08150691WA011030117000509000
B1849412828966N08150723WA011040117200509000
B1849462828932N08150743WA011090117400709000
B1849512828887N08150750WA011090117600809000
B1849562828855N08150783WA011110117701009000
B1850012828869N08150811WA011080117901009000
B1850062828898N08150790WA011080117900809000
B1850112828900N08150751WA011130118301009000
B1850162828877N08150721WA011130118500709000
B1850212828843N08150731WA011180118701009000
B1850262828837N08150763WA011170118701009000
B1850312828857N08150792WA011140118600709000
B1850362828892N08150798WA011110118400709000
B1850412828925N08150783WA011160118600709000
B1850462828959N08150767WA011250119000509000
B1850512828977N08150732WA011300119600609000
B1850562828966N08150688WA011420120601009000
B1851012828929N08150667WA011540121601009000
B1851062828899N08150681WA011610122500809000
B1851112828902N08150717WA011660123200709000
B1851162828932N08150729WA011720123700709000
B1851212828963N08150719WA011780124300509000
B1851262828984N08150687WA011860125000709000
B1851312828974N08150641WA011930126000909000
B1851362828936N08150626WA012030126701409000
B1851412828912N08150654WA012190128000909000
B1851462828922N08150685WA012270129200709000
B1851512828955N08150690WA012300129800609000
B1851562828979N08150660WA012380130401109000
B1852012828967N08150612WA012460131000709000
B1852062828931N08150580WA012540131800809000
B1852112828893N08150588WA012650132900809000
B1852162828884N08150620WA012740133900709000
B1852212828904N08150642WA012860135300709000
B1852262828937N08150639WA012890136100609000
B1852312828945N08150595WA013010136901109000
B1852362828909N08150568WA013080137601009000
B1852412828877N08150587WA013190138601209000
B1852462828891N08150614WA013320139800809000
B1852512828923N08150601WA013390140800709000
B1852562828922N08150557WA013490141801309000
B1853012828882N08150541WA013550142601309000
B1853062828856N08150570WA013650143401109000
B1853112828869N08150596WA013740144300809000
B1853162828900N08150588WA013710144401009000
B1853212828910N08150538WA013790144801109000
B1853262828879N08150500WA013850145101509000
B1853312828840N08150517WA013930145801209000
B1853362828837N08150547WA014000146700809000
B1853412828866N08150552WA014010147201109000
B1853462828882N08150507WA014100147600809000
B1853512828858N08150467WA014150148101109000
B1853562828816N08150463WA014160148500909000
B1854012828793N08150490WA014200148900909000
B1854062828804N08150519WA014270149400709000
B1854112828831N08150515WA014280149800709000
B1854162828848N08150474WA014340150300809000
B1854212828825N08150430WA014340150600909000
B1854262828785N08150433WA014330150701309000
B1854312828792N08150472WA014360150801109000
B1854362828821N08150479WA014400151000809000
B1854412828846N08150449WA014430151200709000
B1854462828838N08150402WA014420151501209000
B1854512828797N08150391WA014420151601009000
B1854562828760N08150406WA014450151800609000
B1855012828745N08150436WA014470152000609000
B1855062828761N08150456WA014500152200909000
B1855112828790N08150435WA014530152300909000
B1855162828796N08150392WA014540152500809000
B1855212828775N08150351WA014550152701109000
B1855262828731N08150347WA014520152701109000
B1855312828718N08150382WA014530152701009000
B1855362828736N08150405WA014540152800809000
B1855412828760N08150413WA014570153000509000
B1855462828785N08150410WA014560153000509000
B1855512828798N08150374WA014550152801009000
B1855562828774N08150334WA014570152901209000
B1856012828733N08150344WA014590153001209000
B1856062828710N08150369WA014600153200709000
B1856112828697N08150400WA014580153100509000
B1856162828711N08150422WA014590153300909000
B1856212828742N08150416WA014600153200609000
B1856262828758N08150385WA014520152900609000
B1856312828748N08150342WA014530152700809000
B1856362828711N08150344WA014470152501409000
B1856412828706N08150380WA014460152000909000
B1856462828716N08150415WA014400151500609000
B1856512828724N08150442WA014400151200809000
B1856562828731N08150469WA014320150800509000
B1857012828734N08150501WA014300150300609000
B1857062828736N08150531WA014310150300509000
B1857112828733N08150562WA014310150100409000
B1857162828721N08150598WA014280149900609000
B1857212828717N08150636WA014230149600609000
B1857262828718N08150673WA014100148800709000
B1857312828725N08150711WA014020147900709000
B1857362828739N08150746WA013960147000409000
B1857412828745N08150782WA013870146200409000
B1857462828748N08150818WA013830145700409000
B1857512828751N08150854WA013770145100409000
F1857560308091623262731
B1857562828751N08150890WA013760144800508000
F185801030809162223262731
B1858012828749N08150927WA013720144400409000
B1858062828745N08150966WA013670143800509000
B1858112828747N08151001WA013670143600409000
B1858162828748N08151033WA013650143400509000
F1858210308091623262731
B1858212828746N08151065WA013590143200608000
F185826030809162223262731
B1858262828745N08151099WA013560142800509000
B1858312828745N08151133WA013520142400409000
B1858362828744N08151165WA013490142100509000
B1858412828738N08151199WA013490141900509000
B1858462828736N08151233WA013490141900509000
B1858512828737N08151268WA013530142000509000
B1858562828741N08151303WA013560142300609000
B1859012828738N08151339WA013580142500509000
B1859062828730N08151374WA013600142700509000
B1859112828726N08151408WA013590142800509000
B1859162828727N08151443WA013530142500509000
B1859212828722N08151477WA013420141600709000
B1859262828714N08151512WA013320140500609000
B1859312828713N08151551WA013210139500509000
B1859362828714N08151589WA013140138600509000
B1859412828717N08151625WA013050137700409000
B1859462828724N08151658WA012930136700609000
B1859512828731N08151692WA012830135600609000
B1859562828732N08151726WA012780134800609000
B1900012828726N08151760WA012740134200609000
B1900062828733N08151794WA012660133600609000
B1900112828741N08151825WA012580133000509000
B1900162828744N08151858WA012470131900709000
B1900212828750N08151893WA012350130800509000
F1900260308091623262731
B1900262828753N08151926WA012230129600708000
F190031030809162223262731
B1900312828757N08151961WA012100128400409000
B1900362828762N08151993WA012030127500409000
F1900410308091623262731
B1900412828765N08152023WA012030127200608000
B1900462828770N08152049WA011980126800608000
F190051030809162223262731
B1900512828769N08152075WA011820126000709000
B1900562828770N08152112WA011660124900609000
B1901012828769N08152147WA011480123000609000
B1901062828774N08152186WA011300120600709000
B1901112828788N08152221WA011090118400609000
B1901162828801N08152255WA010930116300509000
B1901212828806N08152293WA010740114300409000
B1901262828810N08152330WA010570112600509000
B1901312828813N08152365WA010430110900709000
B1901362828824N08152398WA010280109400509000
B1901412828830N08152427WA010240108600509000
B1901462828828N08152456WA010140107900509000
B1901512828824N08152486WA010110107400609000
B1901562828836N08152513WA009970107100609000
B1902012828848N08152542WA009870106200409000
B1902062828843N08152570WA009820105400509000
B1902112828831N08152599WA009870105000609000
B1902162828816N08152624WA009940105500609000
B1902212828789N08152641WA009970105900809000
B1902262828754N08152627WA010000106201009000
B1902312828752N08152581WA009970106300909000
B1902362828785N08152569WA009960106100909000
B1902412828808N08152587WA010000106100609000
B1902462828818N08152614WA010040106300509000
B1902512828827N08152640WA010150106700609000
B1902562828839N08152659WA010170107300509000
B1903012828813N08152665WA010210107501109000
B1903062828804N08152621WA010220108100809000
B1903112828833N08152605WA010260108401009000
B1903162828849N08152623WA010250108700609000
B1903212828824N08152644WA010280108901109000
B1903262828796N08152607WA010320109301409000
B1903312828802N08152558WA010340109600709000
B1903362828832N08152547WA010340109801009000
B1903412828843N08152571WA010360109900709000
B1903462828822N08152590WA010400110201009000
B1903512828790N08152566WA010350110301309000
B1903562828804N08152519WA010320110301009000
B1904012828837N08152525WA010370110201009000
B1904062828853N08152551WA010440110500709000
B1904112828865N08152575WA010530111400509000
B1904162828859N08152604WA010630112200509000
B1904212828828N08152611WA010720112900909000
B1904262828812N08152562WA010800113800909000
B1904312828835N08152543WA010910114800909000
B1904362828841N08152567WA010970115700809000
B1904412828812N08152582WA011090116900809000
B1904462828775N08152560WA011150118000809000
B1904512828766N08152517WA011130118600609000
B1904562828793N08152499WA011190118700809000
B1905012828821N08152501WA011250119100609000
B1905062828846N08152513WA011300119500409000
B1905112828851N08152543WA011360120100409000
B1905162828840N08152573WA011420120700609000
B1905212828811N08152598WA011460121300709000
B1905262828775N08152593WA011470121800509000
B1905312828761N08152546WA011530122101109000
B1905362828790N08152517WA011600122700809000
B1905412828809N08152536WA011650123000809000
B1905462828787N08152562WA011670123200909000
B1905512828750N08152548WA011640123401209000
B1905562828753N08152491WA011700123700909000
B1906012828780N08152466WA011720124000809000
F1906060809162223262731
B1906062828803N08152480WA011730124200608000
F190611030809162223262731
B1906112828805N08152507WA011720124300609000
B1906162828770N08152518WA011700124101009000
B1906212828738N08152483WA011720124201009000
B1906262828724N08152437WA011650124101209000
B1906312828747N08152404WA011610123601009000
B1906362828767N08152426WA011690123600809000
B1906412828778N08152448WA011620123400609000
B1906462828782N08152478WA011610123300509000
B1906512828778N08152502WA011620123300509000
B1906562828773N08152523WA011640123400709000
B1907012828766N08152545WA011570123200609000
B1907062828741N08152564WA011500122600609000
B1907112828729N08152590WA011380122000609000
B1907162828717N08152623WA011350121500609000
B1907212828710N08152653WA011320120900409000
B1907262828710N08152686WA011340120700509000
B1907312828717N08152718WA011340120600509000
B1907362828720N08152750WA011350120600509000
B1907412828720N08152787WA011280120400609000
B1907462828719N08152826WA011260120300609000
B1907512828715N08152863WA011230119900609000
B1907562828707N08152903WA011180119600609000
B1908012828704N08152939WA011050118600709000
B1908062828702N08152980WA010960117400609000
B1908112828705N08153024WA010840116200609000
B1908162828709N08153062WA010760115200509000
B1908212828718N08153101WA010620113900509000
B1908262828724N08153138WA010540112800409000
B1908312828719N08153174WA010410111500609000
B1908362828709N08153212WA010410110900609000
B1908412828708N08153251WA010300110100809000
B1908462828721N08153286WA010230109200509000
B1908512828732N08153318WA010160108500509000
B1908562828744N08153351WA010120108100409000
B1909012828753N08153388WA010040107500409000
B1909062828763N08153425WA009990107000409000
B1909112828776N08153462WA009920106400509000
B1909162828785N08153501WA009870105800409000
B1909212828790N08153539WA009830105300409000
F1909260308091622232631
B1909262828791N08153576WA009780104800408000
F190931030809162223262731
B1909312828785N08153612WA009730104300409000
B1909362828786N08153652WA009670103700409000
B1909412828792N08153692WA009650103300409000
B1909462828795N08153734WA009600102800409000
B1909512828797N08153777WA009560102300509000
B1909562828800N08153817WA009490101800409000
B1910012828792N08153859WA009410101100409000
B1910062828784N08153905WA009340100400609000
B1910112828784N08153949WA009300099900409000
B1910162828780N08153991WA009310099800409000
B1910212828776N08154037WA009270099600709000
B1910262828773N08154083WA009190099100409000
B1910312828765N08154128WA009120098200409000
B1910362828754N08154171WA009030097300509000
B1910372828752N08154180WA009020097100509000
B1910382828750N08154189WA009000096900509000
E191039TPC
B1910392828748N08154197WA008990096800509000
B1910402828746N08154206WA008970096600509000
B1910412828744N08154215WA008950096400409000
B1910422828742N08154224WA008930096300409000
B1910432828741N08154233WA008920096200509000
B1910442828742N08154242WA008920096000509000
B1910462828746N08154257WA008860095600609000
B1910512828778N08154274WA008770094801009000
B1910562828813N08154273WA008680093800509000
B1911012828846N08154275WA008590092800509000
B1911062828877N08154281WA008500091900409000
B1911112828904N08154290WA008400090900609000
B1911162828935N08154301WA008280089800409000
B1911212828965N08154316WA008190088800409000
B1911262828995N08154334WA008090087800409000
B1911312829025N08154350WA008020086900309000
B1911362829055N08154367WA007930086000409000
B1911412829086N08154379WA007870085200609000
B1911462829119N08154384WA007790084500409000
B1911512829154N08154382WA007750084100609000
B1911562829186N08154378WA007670083500509000
B1912012829219N08154384WA007590082600309000
B1912062829251N08154395WA007480081600509000
B1912112829281N08154406WA007370080500509000
B1912162829312N08154415WA007250079200509000
B1912212829344N08154416WA007110077900509000
B1912262829375N08154414WA007020076800409000
B1912312829405N08154416WA006900075500609000
B1912362829435N08154416WA006750074000509000
B1912412829466N08154420WA006590072400409000
B1912462829499N08154427WA006460070800509000
B1912512829535N08154431WA006310069300409000
B1912562829565N08154431WA006170068100509000
B1913012829597N08154434WA006020066500509000
B1913062829629N08154441WA005920065200509000
B1913112829657N08154447WA005930064500509000
B1913162829683N08154451WA005910064300409000
B1913212829701N08154465WA005870064300409000
B1913262829718N08154489WA005800064000509000
B1913312829741N08154504WA005740063500609000
B1913362829765N08154514WA005670063100409000
B1913412829795N08154522WA005640062700609000
B1913462829822N08154526WA005650062500409000
B1913512829846N08154532WA005690062600409000
B1913562829868N08154547WA005690062500409000
B1914012829889N08154558WA005680062600409000
B1914062829913N08154571WA005740062800509000
B1914112829935N08154590WA005780063100609000
B1914162829955N08154614WA005890063800509000
B1914212829954N08154653WA005920064100409000
B1914262829965N08154684WA005870064300809000
B1914312829981N08154666WA005860064301109000
B1914362829978N08154634WA005810064100909000
B1914412829963N08154597WA005830063900709000
B1914462829947N08154563WA005910064300709000
B1914512829936N08154528WA005980065000709000
B1914562829917N08154495WA006050065800709000
B1915012829882N08154473WA006140066500909000
B1915062829841N08154487WA006200067400909000
B1915112829822N08154525WA006220067900909000
B1915162829842N08154550WA006260068300709000
B1915212829870N08154551WA006330068900509000
B1915262829895N08154553WA006430069700409000
B1915312829919N08154554WA006540070600509000
B1915362829939N08154542WA006500070900609000
B1915412829927N08154513WA006400070801309000
B1915462829879N08154522WA006500070801309000
B1915512829859N08154565WA006590071200909000
B1915562829871N08154600WA006660072100909000
B1916012829893N08154607WA006630072300509000
B1916062829914N08154592WA006580072000509000
B1916112829939N08154601WA006520071700709000
B1916162829949N08154634WA006490071500409000
B1916212829936N08154671WA006440070900409000
B1916262829897N08154676WA006320070300909000
B1916312829870N08154644WA006300069700809000
B1916362829840N08154612WA006270069300809000
B1916412829810N08154580WA006250068900509000
B1916462829779N08154556WA006300068900509000
B1916512829752N08154532WA006370069300609000
B1916562829719N08154513WA006440069700809000
B1917012829690N08154535WA006480070300909000
B1917062829691N08154571WA006560071000709000
B1917112829710N08154595WA006670072201009000
B1917162829731N08154594WA006690073100609000
B1917212829740N08154568WA006640073101009000
B1917262829710N08154533WA006710073101209000
B1917312829668N08154542WA006790073800909000
B1917362829642N08154572WA006860074400609000
B1917412829633N08154609WA006860074500709000
B1917462829615N08154650WA006800074500709000
B1917512829630N08154688WA006830074400909000
B1917562829659N08154704WA006910074800609000
B1918012829685N08154708WA006930075000409000
B1918062829704N08154728WA007000075600409000
B1918112829722N08154751WA007080076400709000
B1918162829743N08154752WA007100076900709000
B1918212829741N08154718WA007120077101209000
B1918262829704N08154695WA007140077300909000
B1918312829659N08154706WA007130077701009000
B1918362829633N08154741WA007190078000809000
B1918412829614N08154772WA007230078300709000
B1918462829597N08154809WA007250078600809000
B1918512829615N08154830WA007260078600809000
B1918562829635N08154815WA007310079000609000
B1919012829637N08154781WA007320079200609000
B1919062829612N08154748WA007350079500909000
B1919112829573N08154742WA007380079800909000
B1919162829550N08154774WA007380080001009000
B1919212829563N08154805WA007390080200909000
B1919262829582N08154823WA007430080500609000
B1919312829599N08154841WA007470081000509000
B1919362829615N08154862WA007520081600509000
B1919412829633N08154877WA007540082000609000
B1919462829651N08154893WA007550082200409000
B1919512829639N08154920WA007500081900909000
B1919562829605N08154905WA007460081701409000
B1920012829604N08154868WA007560081800809000
F19200603070809162223262731
B1920062829608N08154837WA007610082300510000
B1920112829625N08154813WA007610082400310000
B1920162829635N08154830WA007530082200710000
B1920212829602N08154852WA007550081900810000
B1920262829559N08154832WA007590082001010000
B1920312829527N08154806WA007580082300510000
B1920362829489N08154780WA007570082500510000
B1920412829449N08154764WA007610082600510000
B1920462829414N08154743WA007600082800610000
B1920512829387N08154708WA007590082500510000
B1920562829365N08154672WA007620082400610000
B1921012829334N08154646WA007610082400410000
B1921062829305N08154621WA007640082600710000
B1921112829297N08154590WA007630082600510000
B1921162829300N08154559WA007620082500410000
B1921212829292N08154528WA007570082400410000
B1921262829268N08154502WA007530082000610000
B1921312829230N08154502WA007490081700810000
B1921362829215N08154537WA007440081000810000
B1921412829234N08154558WA007350080400710000
B1921462829263N08154550WA007290079700610000
B1921512829290N08154548WA007260079000410000
B1921562829311N08154543WA007200078600510000
B1922012829335N08154534WA007230078300410000
B1922062829357N08154521WA007200078000410000
B1922112829377N08154520WA007180077900410000
B1922162829398N08154533WA007200078000310000
B1922212829415N08154558WA007160077800410000
B1922262829431N08154581WA007100077500510000
B1922312829449N08154604WA007010076900410000
B1922362829469N08154632WA006940076100510000
B1922412829492N08154656WA006920075500310000
B1922462829513N08154686WA006910075200310000
B1922512829523N08154724WA006980075400410000
B1922562829530N08154757WA006970075700510000
B1923012829548N08154789WA006970075700610000
B1923062829570N08154808WA006910075600510000
B1923112829566N08154843WA006820075001110000
B1923162829528N08154850WA006730074100510000
B1923212829494N08154833WA006680073500610000
B1923262829477N08154801WA006610072700510000
B1923312829463N08154763WA006610072300710000
B1923362829449N08154731WA006650072400710000
B1923412829452N08154700WA006660072500410000
B1923462829468N08154676WA006630072400410000
B1923512829494N08154672WA006570072000310000
B1923562829509N08154699WA006560071700410000
B1924012829498N08154733WA006540071500810000
B1924062829465N08154729WA006470071300610000
B1924112829444N08154697WA006460071000610000
B1924162829431N08154667WA006450070800410000
B1924212829416N08154641WA006400070600510000
B1924262829415N08154612WA006340070100610000
B1924312829435N08154599WA006290069600510000
B1924362829458N08154603WA006230069100310000
B1924412829483N08154615WA006090068100410000
B1924462829510N08154621WA005930066500410000
B1924512829538N08154623WA005800064800310000
B1924562829568N08154620WA005650063200310000
B1925012829598N08154626WA005530061700310000
B1925062829623N08154641WA005390060200410000
B1925112829649N08154661WA005340059100610000
B1925162829673N08154676WA005240058100310000
B1925212829701N08154690WA005190057400510000
B1925262829727N08154704WA005180057100310000
B1925312829752N08154719WA005110056800510000
B1925362829777N08154732WA005090056600310000
B1925412829796N08154751WA005030056300510000
B1925462829816N08154765WA004930055800410000
B1925512829846N08154762WA004840054900310000
B1925562829875N08154754WA004760053800310000
B1926012829903N08154753WA004660052800510000
B1926062829932N08154756WA004610051900510000
B1926112829963N08154758WA004620051400410000
B1926162829989N08154760WA004680051600310000
B1926212830014N08154767WA004680051900310000
B1926262830041N08154767WA004700052000410000
B1926312830063N08154766WA004770052400610000
B1926362830085N08154770WA004830052800310000
B1926412830108N08154777WA004830053200310000
B1926462830131N08154787WA004790053300310000
B1926512830140N08154813WA004710052900510000
B1926562830104N08154837WA004640052300710000
B1927012830071N08154813WA004600051900610000
B1927062830060N08154778WA004650051900610000
B1927112830050N08154743WA004660052100610000
B1927162830047N08154707WA004740052600510000
B1927212830055N08154678WA004750052800410000
B1927262830074N08154658WA004730052900510000
B1927312830099N08154652WA004720052900410000
B1927362830123N08154659WA004670052800310000
B1927412830135N08154688WA004660052600410000
B1927462830131N08154723WA004670052500310000
B1927512830112N08154757WA004650052200410000
B1927562830076N08154767WA004610051900310000
B1928012830050N08154738WA004600051700510000
B1928062830038N08154701WA004610051700510000
B1928112830028N08154665WA004630051600410000
B1928162830018N08154635WA004590051700610000
B1928212830018N08154599WA004570051600410000
B1928262830032N08154570WA004570051500410000
B1928312830056N08154546WA004540051200310000
B1928362830083N08154539WA004510050900410000
B1928412830105N08154545WA004460050500410000
B1928462830127N08154553WA004390050100510000
B1928512830150N08154553WA004350049500410000
B1928562830175N08154553WA004260048900410000
B1929012830200N08154557WA004210048300610000
B1929062830226N08154563WA004090047300310000
B1929112830253N08154556WA004080046600310000
B1929162830273N08154557WA003950045600410000
B1929212830292N08154564WA003840044400310000
B1929262830313N08154570WA003680042900410000
B1929312830337N08154571WA003510041300310000
B1929362830362N08154565WA003400039800410000
B1929412830388N08154563WA003350038900310000
B1929462830411N08154570WA003350038700310000
B1929512830436N08154576WA003370038700410000
B1929562830463N08154577WA003340038700310000
B1930012830493N08154579WA003330038500310000
B1930062830522N08154587WA003400038800310000
B1930112830549N08154591WA003380038900310000
B1930162830576N08154593WA003330038700310000
B1930212830603N08154595WA003380038600310000
B1930262830626N08154595WA003370038700310000
B1930312830646N08154589WA003300038400410000
B1930362830667N08154572WA003250038000410000
B1930412830688N08154565WA003190037600310000
B1930462830709N08154569WA003090036900310000
B1930512830730N08154582WA002960035700510000
B1930562830750N08154599WA002810034000610000
B1931012830770N08154601WA002710032700410000
B1931062830791N08154601WA002650031700310000
B1931112830809N08154613WA002530030600310000
B1931162830826N08154628WA002540030100510000
B1931212830842N08154628WA002450030100510000
B1931262830860N08154640WA002280029400410000
B1931312830866N08154671WA002100027500410000
B1931362830870N08154695WA002000025700510000
B1931412830874N08154720WA001870024100310000
B1931462830853N08154750WA001790022800410000
F193151030709162223262731
B1931512830825N08154772WA001820022300609000
F19315603070809162223262731
B1931562830794N08154797WA001820022100510000
B1932012830754N08154816WA001860022300510000
B1932062830721N08154801WA001880023000610000
B1932112830725N08154766WA001870023200810000
B1932162830755N08154772WA001850023500610000
B1932212830761N08154807WA001920023700710000
B1932262830721N08154824WA001940023800810000
B1932312830703N08154789WA001970024300810000
B1932362830728N08154764WA001960024600610000
B1932412830758N08154761WA002020025000510000
B1932462830779N08154754WA001990025100510000
B1932512830801N08154763WA002020025100410000
B1932562830817N08154783WA001980025400410000
B1933012830826N08154812WA001950025000410000
B1933062830809N08154845WA001930024700410000
B1933112830776N08154868WA001940024600410000
B1933162830742N08154862WA001800024200610000
B1933212830740N08154823WA001730023300710000
B1933262830756N08154793WA001760023100910000
B1933312830779N08154776WA001770022900510000
B1933362830800N08154764WA001740022900410000
B1933412830819N08154757WA001590022300510000
B1933462830840N08154770WA001450021100410000
B1933512830844N08154801WA001410019700410000
B1933562830827N08154832WA001420019200510000
B1934012830787N08154839WA001450019300410000
B1934062830754N08154806WA001470019700510000
B1934112830755N08154764WA001510020000710000
B1934162830777N08154754WA001360019500510000
B1934212830788N08154775WA001320019000510000
B1934262830787N08154809WA001350018400510000
B1934312830786N08154844WA001410018800510000
B1934362830790N08154873WA001420019200510000
B1934412830797N08154906WA001400019200410000
B1934462830790N08154939WA001400019200310000
B1934512830769N08154969WA001260018800610000
B1934562830734N08154984WA001150017600510000
B1935012830692N08154988WA001040016200710000
B1935062830647N08154985WA000940015000710000
B1935112830604N08154974WA000870014000310000
B1935162830562N08154952WA000820013300310000
B1935212830536N08154915WA000740012600610000
B1935262830547N08154882WA000690011900610000
B1935312830574N08154876WA000620011500510000
B1935362830580N08154908WA000620010900710000
B1935412830585N08154941WA000510010101210000
B1935462830597N08154906WA000390009400910000
B1935512830589N08154855WA000280008300910000
B1935562830601N08154814WA000180006800610000
B1936012830634N08154800WA000050005500410000
B1936062830669N08154807WA-00000004500510000
B1936112830694N08154816WA-00030004200410000
B1936162830708N08154820WA-00030004000410000
B1936212830710N08154819WA-00040004100710000
B1936262830711N08154816WA-00040004000410000
B1936312830712N08154812WA-00040003900310000
B1936362830713N08154808WA-00050003800310000
B1936412830713N08154804WA-00050003800410000
B1936462830713N08154800WA-00050003800310000
B1936512830714N08154795WA-00050003700310000
B1936562830714N08154790WA-00060003700410000
B1937012830714N08154785WA-00060003700410000
B1937062830714N08154781WA-00060003700410000
B1937112830714N08154777WA-00060003700410000
B1937162830715N08154776WA-00060003600210000
B1937212830715N08154776WA-00060003600210000
B1937262830715N08154776WA-00060003600210000
B1937312830715N08154776WA-00070003600210000
B1937362830715N08154776WA-00070003600310000
B1937412830715N08154776WA-00060003600410000
B1937462830715N08154776WA-00070003600410000
F193751030708162223262731
B1937512830715N08154776WA-00070003600509000
F19375603070809162223262731
B1937562830715N08154776WA-00070003600310000
B1938012830715N08154776WA-00070003600310000
B1938062830715N08154776WA-00070003600310000
B1938112830715N08154776WA-00070003600310000
L   FlyChart
L   Version 4.57, Sep. 1st 2014
GC7F4DC9B7899046B6C42B2835CD3A821BC372E66F80D0A08E497D0194B46CFB3
