AFLY017w 04336
HFDTE050416
HFFXA010
HFPLTPILOT:Owen McDermott-B
HFGTYGLIDERTYPE:Sport 2 155     
HFGIDGLIDERID:not-set         
HFDTM100GPSDATUM:WGS84
HFRFWFIRMWAREVERSION: 1.3.07  Eng
HFRHWHARDWAREVERSION:1.00
HFFTYFRTYPE:Flytec,6015
HFGPS:FASTRAX,IT430,48
HFPRSPRESSALTSENSOR:INTERSEMA,MS5401BM,12000
HFTZNUTCOFFSET: -4
I033638FXA3940SIU4143TAS
C050416145949050416002901
C2831931N08150791WTakeoff
C2831982N08150800W00000000005000000000360000StartArea,QUEST           
C2820850N08140550W00000000001000000000360000TurnArea,T27192          
C2735514N08131612W00000000000400000000360000FinishArea,AVONPK          
C2821667N08140850WLanding
F1819350308091416222326273132
B1819352831902N08150789WA-00220003500311000
F1820050308091416222326273132
B1820052831902N08150789WA-00220003500411000
F1820350308091416222326273132
B1820352831902N08150789WA-00210003500511000
F1821050308091416222326273132
B1821052831902N08150789WA-00210003500411000
F1821350308091416222326273132
B1821352831902N08150789WA-00210003500311000
F1822050308091416222326273132
B1822052831902N08150789WA-00210003500311000
F1822350308091416222326273132
B1822352831902N08150789WA-00210003500311000
F1823050308091416222326273132
B1823052831904N08150789WA-00200003500311000
F1823350308091416222326273132
B1823352831905N08150789WA-00200003500311000
E182341STA
E182341ATS1020.0
LFLYA100035
B1823412831931N08150791WA-00210003500211000
B1823462831972N08150794WA-00120003800411000
B1823512832013N08150801WA000010004800411000
B1823562832050N08150810WA000170006400511000
B1824012832088N08150816WA000310008200411000
B1824062832128N08150814WA000450009900411000
B1824112832165N08150812WA000610011500411000
B1824162832201N08150804WA000800013500411000
B1824212832242N08150797WA000970015600411000
B1824262832277N08150790WA001260018000611000
B1824312832302N08150779WA001470020600511000
B1824362832327N08150761WA001520022200511000
F18244103080914162226273132
B1824412832351N08150742WA001600023100510000
F1824460308091416222326273132
B1824462832378N08150722WA001670023800511000
B1824512832402N08150699WA001750024400411000
B1824562832422N08150668WA001820025100311000
B1825012832438N08150628WA001890025500611000
B1825062832435N08150579WA001950026000411000
B1825112832414N08150530WA002080026700511000
B1825162832375N08150488WA002220028200511000
B1825212832322N08150472WA002400029900511000
B1825262832271N08150479WA002620032100511000
B1825312832220N08150487WA002880034600411000
B1825362832169N08150484WA003080036900411000
B1825412832128N08150455WA003300039400511000
B1825462832107N08150411WA003490041700611000
B1825512832114N08150370WA003730044100611000
B1825562832143N08150350WA003920046100511000
B1826012832179N08150364WA004140048200711000
B1826062832198N08150404WA004320050300611000
B1826112832196N08150459WA004450052000611000
B1826162832175N08150509WA004690053900511000
B1826212832138N08150553WA004950056500411000
B1826262832094N08150578WA005150058800311000
B1826312832056N08150568WA005210060500711000
F18263603091416222326273132
B1826362832065N08150533WA005290061200910000
F1826410308091416222326273132
B1826412832090N08150548WA005360061200811000
B1826462832073N08150587WA005390061600711000
B1826512832027N08150593WA005490062100511000
B1826562831993N08150570WA005560062900611000
B1827012831997N08150542WA005600063300611000
B1827062832006N08150571WA005630063300711000
B1827112831974N08150602WA005700064000511000
B1827162831934N08150619WA005740064600411000
B1827212831896N08150605WA005740064800511000
B1827262831888N08150569WA005750064900611000
B1827312831903N08150545WA005810065100511000
B1827362831921N08150520WA005760064700311000
B1827412831941N08150499WA005640064100411000
B1827462831964N08150497WA005510063000511000
B1827512831980N08150527WA005460061800511000
B1827562831967N08150571WA005520061900611000
B1828012831939N08150600WA005570062500311000
B1828062831902N08150600WA005630063000511000
B1828112831883N08150566WA005680063500811000
B1828162831897N08150557WA005790064200711000
B1828212831890N08150595WA005800064700711000
B1828262831851N08150605WA005850065200511000
B1828312831825N08150575WA005880065600711000
B1828362831825N08150542WA005990066300511000
B1828412831840N08150519WA005910066400411000
B1828462831864N08150513WA005840066100511000
B1828512831874N08150543WA005810065500611000
B1828562831847N08150576WA005840065500411000
F18290103080914222326273132
B1829012831808N08150575WA005870065500510000
F1829060308091416222326273132
B1829062831780N08150547WA005900066000711000
B1829112831785N08150516WA005820065800711000
B1829162831805N08150501WA005740065200511000
B1829212831813N08150474WA005650064300911000
B1829262831775N08150447WA005550063500611000
B1829312831727N08150449WA005480062500411000
B1829362831683N08150463WA005540062300411000
B1829412831641N08150480WA005580062700311000
B1829462831604N08150466WA005580063000811000
F18295103081416222326273132
B1829512831610N08150432WA005580063100810000
F1829560308091416222326273132
B1829562831631N08150424WA005620063200411000
B1830012831650N08150440WA005670063400411000
B1830062831647N08150471WA005780064100611000
B1830112831602N08150473WA005780064501211000
B1830162831603N08150437WA005830064800611000
B1830212831625N08150432WA005930065700511000
B1830262831632N08150447WA005960066200511000
B1830312831608N08150481WA005950066300711000
B1830362831564N08150470WA006010066600611000
B1830412831546N08150437WA006060067200611000
B1830462831558N08150410WA006050067500411000
B1830512831578N08150410WA006150067700511000
B1830562831584N08150433WA006120067800611000
B1831012831549N08150459WA006110068000611000
B1831062831513N08150434WA006160068301211000
B1831112831511N08150398WA006180068600511000
B1831162831531N08150381WA006180068700411000
B1831212831551N08150371WA006220068900511000
B1831262831569N08150367WA006270069200511000
B1831312831590N08150377WA006320069700511000
B1831362831605N08150400WA006450070600611000
B1831412831618N08150425WA006550071700411000
B1831462831619N08150458WA006620072700411000
B1831512831581N08150473WA006640073100611000
B1831562831558N08150439WA006750074001111000
B1832012831566N08150406WA006910075500511000
B1832062831585N08150393WA007030076700411000
B1832112831597N08150420WA007140078100511000
B1832162831565N08150441WA007230079000711000
B1832212831532N08150416WA007310079900711000
B1832262831530N08150377WA007450081300611000
B1832312831547N08150358WA007550082600411000
B1832362831566N08150375WA007640083600311000
F18324103080916222326273132
B1832412831569N08150410WA007740084500610000
B1832462831534N08150436WA007880085600810000
B1832512831504N08150408WA007980086701110000
B1832562831519N08150380WA008100087800910000
B1833012831537N08150398WA008210089200610000
B1833062831524N08150436WA008320090500510000
B1833112831484N08150443WA008440091600710000
B1833162831460N08150415WA008560093001010000
B1833212831474N08150392WA008670094000610000
B1833262831493N08150411WA008800095300510000
B1833312831486N08150447WA008870096400610000
B1833362831444N08150459WA008990097100610000
B1833412831419N08150428WA009080097901310000
B1833462831435N08150402WA009230099100610000
B1833512831457N08150412WA009300100000610000
B1833562831454N08150453WA009380101100710000
B1834012831418N08150475WA009470101900710000
B1834062831388N08150449WA009520102501310000
B1834112831390N08150414WA009620103400610000
B1834162831407N08150402WA009700104100410000
B1834212831419N08150427WA009710104400510000
B1834262831394N08150464WA009780104800810000
B1834312831352N08150469WA009790105200710000
B1834362831331N08150434WA009840105800910000
B1834412831340N08150409WA009940106600510000
B1834462831357N08150400WA009970107000510000
B1834512831366N08150430WA009970107200610000
B1834562831335N08150463WA010000107300510000
B1835012831294N08150456WA010020107700710000
B1835062831270N08150425WA010100108400710000
B1835112831281N08150402WA010130108800610000
F183516030916222326273132
B1835162831295N08150429WA010130109001109000
F18352103080916222326273132
B1835212831264N08150464WA010120109100710000
B1835262831218N08150461WA010110109000510000
B1835312831189N08150427WA010130108900910000
B1835362831185N08150391WA010230109600610000
B1835412831189N08150361WA010250110000510000
B1835462831200N08150336WA010280110200410000
B1835512831219N08150344WA010260110200710000
B1835562831210N08150383WA010250110100510000
B1836012831170N08150402WA010260110200510000
B1836062831131N08150382WA010290110300610000
B1836112831110N08150342WA010310110600810000
B1836162831097N08150306WA010350111100710000
B1836212831097N08150274WA010330111200410000
B1836262831117N08150271WA010300111000510000
B1836312831114N08150305WA010250110500810000
B1836362831070N08150317WA010220110200810000
B1836412831032N08150286WA010200109700710000
B1836462831005N08150250WA010210109700710000
B1836512830985N08150215WA010160109400510000
B1836562830969N08150178WA010150109200610000
B1837012830954N08150139WA010090108700510000
B1837062830934N08150101WA010020108200610000
B1837112830912N08150059WA009920107300610000
B1837162830894N08150019WA009850106400510000
B1837212830878N08149979WA009730105300610000
B1837262830848N08149941WA009570103900610000
B1837312830814N08149909WA009450102400510000
B1837362830785N08149872WA009280100800510000
B1837412830753N08149834WA009180099600410000
B1837462830721N08149797WA009100098500510000
B1837512830684N08149766WA009050097800310000
B1837562830642N08149742WA008940096900310000
B1838012830604N08149713WA008850096000510000
B1838062830569N08149682WA008740094900410000
B1838112830530N08149650WA008610093700510000
B1838162830493N08149623WA008490092400510000
B1838212830458N08149591WA008370091000610000
B1838262830424N08149562WA008260089700510000
B1838312830392N08149531WA008140088600310000
B1838362830359N08149502WA008090087700410000
B1838412830328N08149481WA008090087300610000
B1838462830297N08149460WA008100087300610000
B1838512830264N08149439WA008120087400510000
B1838562830233N08149414WA008170087800510000
B1839012830215N08149381WA008260088400610000
B1839062830219N08149348WA008310089200410000
B1839112830243N08149336WA008400089900510000
B1839162830252N08149372WA008530091100810000
B1839212830223N08149409WA008630092400610000
B1839262830182N08149414WA008680093100610000
B1839312830152N08149389WA008740093900610000
F183936030809162223262731
B1839362830138N08149352WA008770094700509000
B1839412830150N08149318WA008820095100409000
B1839462830171N08149307WA008990095900509000
B1839512830194N08149315WA009070096900509000
B1839562830204N08149351WA009130097800609000
B1840012830179N08149388WA009210098601209000
B1840062830142N08149384WA009300099300709000
B1840112830119N08149349WA009360100101009000
B1840162830119N08149312WA009450101100709000
B1840212830134N08149289WA009620102600709000
B1840262830145N08149269WA009690103700609000
B1840312830167N08149268WA009690104101109000
B1840362830169N08149309WA009650103900709000
B1840412830137N08149341WA009620103500709000
B1840462830096N08149346WA009690103600709000
B1840512830057N08149341WA009760104100509000
B1840562830017N08149322WA009830104600809000
B1841012829999N08149285WA009890105500809000
B1841062830018N08149264WA010000106200709000
B1841112830034N08149295WA010140107201009000
B1841162830000N08149309WA010250108401309000
B1841212830000N08149273WA010390109700809000
B1841262830028N08149275WA010570111601209000
B1841312830012N08149308WA010690113601209000
B1841362829977N08149300WA010830115201109000
B1841412829982N08149270WA011000116900909000
B1841462830007N08149280WA011150118601109000
B1841512829995N08149315WA011270120200909000
B1841562829958N08149315WA011350121300909000
B1842012829936N08149289WA011500122401109000
B1842062829955N08149266WA011610123500609000
B1842112829976N08149287WA011780124800909000
B1842162829949N08149305WA011850126000809000
B1842212829924N08149277WA011990127100909000
B1842262829936N08149246WA012080128100609000
B1842312829963N08149250WA012170128801109000
B1842362829945N08149279WA012110129201109000
B1842412829914N08149256WA012220129501209000
B1842462829919N08149219WA012240129600709000
B1842512829945N08149220WA012260129800809000
B1842562829940N08149255WA012240129900909000
B1843012829895N08149256WA012210129900909000
B1843062829864N08149218WA012250130201109000
B1843112829848N08149182WA012270130300809000
B1843162829860N08149150WA012300130400509000
B1843212829888N08149163WA012310130401009000
B1843262829874N08149206WA012290130301109000
B1843312829829N08149214WA012280130400609000
B1843362829793N08149189WA012340130700909000
B1843412829786N08149154WA012400131400609000
B1843462829809N08149155WA012440131600809000
B1843512829791N08149198WA012440132001109000
B1843562829749N08149203WA012570132400709000
B1844012829702N08149203WA012650133000609000
B1844062829671N08149174WA012770134300909000
F1844110308091622262731
B1844112829684N08149147WA012910135801008000
F184416030809162223262731
B1844162829695N08149171WA013000137201009000
B1844212829661N08149198WA013100138501209000
B1844262829626N08149172WA013210139401009000
B1844312829633N08149138WA013300140400709000
B1844362829655N08149150WA013400141501109000
B1844412829629N08149187WA013470142401209000
B1844462829584N08149175WA013560143201209000
B1844512829577N08149132WA013660144000609000
B1844562829601N08149121WA013760144700909000
B1845012829605N08149154WA013810145400909000
B1845062829562N08149178WA013900146201109000
B1845112829533N08149145WA013940146801209000
B1845162829552N08149123WA013990147300909000
B1845212829563N08149147WA014060147900909000
B1845262829527N08149180WA014110148501609000
B1845312829483N08149160WA014210149101209000
B1845362829468N08149117WA014260150100609000
B1845412829487N08149098WA014300150800709000
B1845462829505N08149125WA014370151200909000
B1845512829478N08149161WA014440151901009000
B1845562829433N08149155WA014450152201009000
B1846012829422N08149111WA014450152500809000
B1846062829449N08149100WA014500152701209000
B1846112829437N08149141WA014510153101309000
B1846162829386N08149132WA014540153301509000
B1846212829372N08149089WA014580153700909000
B1846262829388N08149058WA014600154000509000
B1846312829410N08149066WA014660154400709000
B1846362829400N08149100WA014730154901109000
B1846412829356N08149119WA014790155600809000
B1846462829315N08149102WA014820156101109000
B1846512829319N08149069WA014810156200709000
B1846562829341N08149075WA014850156300909000
B1847012829339N08149109WA014890156800609000
B1847062829306N08149140WA014960157300709000
B1847112829260N08149141WA014980157600909000
B1847162829230N08149110WA014950157701309000
B1847212829252N08149085WA014980157801009000
F1847260309162223262731
B1847262829266N08149108WA014990158000908000
F184731030809162223262731
B1847312829235N08149142WA015020158300909000
F1847360308092223262731
B1847362829185N08149142WA015050158600808000
F184741030809162223262731
B1847412829151N08149110WA015030158801009000
B1847462829155N08149072WA015020158600709000
B1847512829170N08149045WA014960158400609000
B1847562829180N08149015WA015000158300609000
B1848012829188N08148986WA015000158300409000
B1848062829209N08148975WA014980158200609000
B1848112829218N08149006WA014960158000709000
B1848162829191N08149040WA015000158200809000
B1848212829146N08149049WA015010158200509000
B1848262829113N08149023WA014990158301209000
B1848312829128N08148995WA014940157900809000
B1848362829151N08149010WA014900157500909000
B1848412829157N08149046WA014910157400609000
B1848462829152N08149089WA015000157800709000
B1848512829149N08149129WA015120158800509000
B1848562829143N08149166WA015250160100409000
B1849012829125N08149202WA015320161000609000
B1849062829082N08149206WA015360161501309000
B1849112829078N08149167WA015430161900809000
B1849162829101N08149154WA015520162700709000
B1849212829115N08149177WA015600163600609000
B1849262829093N08149209WA015620164000909000
B1849312829053N08149195WA015640164401409000
B1849362829049N08149153WA015700164900709000
B1849412829067N08149126WA015770165500609000
B1849462829089N08149115WA015900166300509000
B1849512829111N08149104WA015960167000709000
B1849562829131N08149114WA015960167500709000
B1850012829123N08149147WA015920167500709000
B1850062829084N08149143WA015980167800709000
B1850112829060N08149100WA016020168200909000
B1850162829051N08149060WA016110168801009000
B1850212829055N08149023WA016090169100609000
B1850262829075N08149022WA015980168801109000
B1850312829071N08149057WA015810167901009000
B1850362829023N08149062WA015710166801109000
B1850412828991N08149021WA015720166101109000
B1850462828966N08148984WA015710165500709000
B1850512828933N08148952WA015650165100709000
B1850562828903N08148926WA015590164800709000
B1851012828874N08148892WA015530164200909000
B1851062828845N08148858WA015450163400509000
B1851112828814N08148825WA015380162600609000
B1851162828786N08148785WA015280161700709000
B1851212828765N08148746WA015230160900709000
B1851262828739N08148707WA015050159800709000
B1851312828703N08148672WA014850158500609000
B1851362828664N08148641WA014690156900809000
B1851412828629N08148608WA014590155100609000
B1851462828597N08148567WA014430153300709000
B1851512828565N08148532WA014320151900609000
B1851562828527N08148500WA014170150400609000
B1852012828489N08148464WA014100149100709000
B1852062828450N08148430WA014040148200609000
B1852112828411N08148403WA014000147700709000
B1852162828379N08148371WA013960147300609000
B1852212828349N08148336WA013910147100709000
B1852262828325N08148299WA013860146600609000
B1852312828299N08148259WA013780145900509000
B1852362828274N08148222WA013720145100409000
B1852412828245N08148190WA013660144500409000
B1852462828214N08148159WA013560143800509000
B1852512828179N08148128WA013490143200609000
B1852562828151N08148093WA013410142500509000
B1853012828119N08148059WA013290141500709000
B1853062828082N08148029WA013210140500509000
B1853112828047N08147996WA013120139500609000
B1853162828015N08147961WA013050138600709000
B1853212827980N08147933WA012960137600509000
B1853262827944N08147905WA012860136600609000
B1853312827912N08147875WA012780135700609000
B1853362827880N08147844WA012660134600509000
B1853412827846N08147816WA012570133700509000
B1853462827813N08147784WA012490132800809000
B1853512827790N08147748WA012490132200809000
B1853562827773N08147713WA012550132300709000
B1854012827768N08147680WA012590132800509000
B1854062827773N08147652WA012530132800509000
B1854112827772N08147620WA012470132600509000
B1854162827743N08147587WA012400132200609000
B1854212827706N08147563WA012420132000609000
B1854262827674N08147538WA012510132300509000
B1854312827649N08147507WA012600132800609000
F1854360308091622262731
B1854362827629N08147474WA012590133100808000
F185441030809162223262731
B1854412827645N08147452WA012560133101009000
B1854462827662N08147477WA012630133300709000
B1854512827652N08147513WA012700133800609000
F1854560308091622232627
B1854562827616N08147533WA012780134500708000
F185501030809162223262731
B1855012827580N08147516WA012820135101009000
B1855062827575N08147478WA012790135400709000
B1855112827600N08147468WA012780135500609000
B1855162827617N08147494WA012830135600509000
B1855212827600N08147530WA012880136000709000
B1855262827555N08147536WA012930136300809000
B1855312827524N08147504WA012970136701009000
B1855362827525N08147469WA012940136900609000
B1855412827550N08147464WA012940137000609000
B1855462827570N08147473WA013000137400709000
B1855512827593N08147471WA013080137900609000
B1855562827615N08147463WA013070138200709000
B1856012827635N08147479WA013020138100509000
B1856062827617N08147512WA013030137900709000
B1856112827576N08147510WA013050138000909000
B1856162827553N08147473WA013030138001009000
B1856212827555N08147429WA013060138400509000
B1856262827574N08147401WA013090138600709000
B1856312827595N08147409WA013050138600809000
B1856362827584N08147445WA013020138300709000
B1856412827543N08147455WA013030138300709000
B1856462827501N08147434WA013040138300709000
B1856512827480N08147395WA013090138500709000
B1856562827494N08147371WA013080138500809000
B1857012827501N08147394WA013060138400909000
B1857062827468N08147423WA013110138600909000
B1857112827422N08147428WA013170138800609000
B1857162827389N08147397WA013210139300909000
B1857212827398N08147369WA013180139400709000
B1857262827411N08147389WA013160139301109000
B1857312827374N08147416WA013210139401009000
B1857362827338N08147389WA013150139601509000
B1857412827353N08147360WA013120139300809000
B1857462827365N08147388WA013090139000809000
B1857512827339N08147418WA013160139101009000
F1857560308091622232627
B1857562827297N08147430WA013180139200708000
F185801030809162223262731
B1858012827260N08147414WA013180139500909000
B1858062827258N08147373WA013130139300909000
B1858112827283N08147361WA013090139100809000
B1858162827303N08147380WA013080138800509000
B1858212827302N08147416WA013110138900509000
B1858262827277N08147446WA013190139400709000
B1858312827235N08147459WA013190139600509000
B1858362827187N08147467WA013170139800709000
B1858412827154N08147493WA013090139500909000
B1858462827163N08147529WA013050139001109000
B1858512827188N08147524WA013040138700609000
B1858562827195N08147490WA013070138700809000
B1859012827184N08147450WA013050138600609000
B1859062827179N08147412WA013040138400509000
B1859112827187N08147380WA013040138300409000
B1859162827201N08147348WA013040138300509000
B1859212827202N08147310WA013070138500509000
B1859262827188N08147273WA013080138600509000
F1859310308091622232731
B1859312827168N08147237WA013050138500608000
F185936030809162223262731
B1859362827141N08147203WA012990138300509000
B1859412827112N08147169WA012930137800509000
B1859462827089N08147134WA012850137100409000
B1859512827066N08147093WA012760136200509000
B1859562827040N08147061WA012670135400509000
B1900012827009N08147028WA012540134500509000
B1900062826981N08146993WA012390133000709000
B1900112826962N08146953WA012290131400509000
B1900162826938N08146918WA012180130300609000
B1900212826913N08146883WA012060129100609000
B1900262826889N08146847WA011960127900509000
B1900312826864N08146814WA011870126900609000
B1900362826839N08146780WA011770125700709000
B1900412826814N08146745WA011670124600509000
B1900462826787N08146713WA011580123600409000
B1900512826761N08146681WA011470122600409000
B1900562826739N08146646WA011390121800409000
B1901012826718N08146614WA011300120900409000
B1901062826692N08146581WA011170119800609000
B1901112826664N08146547WA011050118700609000
B1901162826637N08146513WA010940117500509000
B1901212826611N08146480WA010810116400609000
B1901262826587N08146446WA010700115100609000
F1901310308091622232627
B1901312826562N08146415WA010590114000508000
F1901360308091622232731
B1901362826536N08146382WA010490112900508000
F190141030809162223262731
B1901412826510N08146347WA010390112000609000
B1901462826483N08146313WA010320111000409000
B1901512826457N08146278WA010290110300809000
B1901562826434N08146247WA010180109500709000
B1902012826409N08146210WA010150109000609000
B1902062826384N08146179WA010200108800609000
B1902112826363N08146149WA010240109100709000
B1902162826349N08146118WA010290109600709000
B1902212826360N08146087WA010340110000409000
B1902262826385N08146079WA010370110400609000
B1902312826398N08146110WA010400110801009000
B1902362826370N08146133WA010430111300709000
B1902412826338N08146114WA010480111801209000
B1902462826339N08146081WA010490112101009000
B1902512826371N08146080WA010490112200809000
B1902562826392N08146112WA010550112500709000
B1903012826392N08146149WA010600112900609000
B1903062826370N08146180WA010640113400909000
B1903112826337N08146195WA010720114100809000
B1903162826303N08146186WA010740114500809000
B1903212826298N08146149WA010780114900609000
B1903262826323N08146134WA010790115200809000
B1903312826342N08146163WA010790115300509000
B1903362826327N08146203WA010840115600909000
B1903412826305N08146230WA010870115900809000
B1903462826269N08146242WA010820115900609000
B1903512826238N08146221WA010880116101009000
B1903562826224N08146190WA010920116700809000
B1904012826220N08146158WA010950116900609000
B1904062826231N08146128WA010890116900509000
B1904112826264N08146129WA010920117000809000
B1904162826282N08146164WA010980117300609000
B1904212826261N08146199WA010980117500709000
B1904262826226N08146192WA010990117701209000
B1904312826222N08146156WA011030117900709000
B1904362826243N08146128WA011030117900509000
B1904412826273N08146137WA011090118300809000
B1904462826276N08146177WA011080118500609000
B1904512826249N08146209WA011100118500909000
B1904562826213N08146217WA011090118400609000
B1905012826187N08146196WA011100118400709000
B1905062826184N08146164WA011080118600509000
B1905112826210N08146149WA011070118500609000
B1905162826233N08146171WA011080118600509000
B1905212826218N08146212WA011070118600709000
B1905262826183N08146229WA011080118600709000
B1905312826153N08146219WA011060118600709000
B1905362826142N08146188WA010990118200809000
B1905412826161N08146165WA010980117900509000
B1905462826190N08146176WA010980117800509000
B1905512826208N08146207WA010980117600609000
B1905562826220N08146244WA010950117500609000
B1906012826241N08146275WA010870117100609000
B1906062826260N08146302WA010840116700409000
B1906112826243N08146338WA010720116001009000
B1906162826196N08146331WA010610115201009000
B1906212826168N08146300WA010530114400709000
B1906262826141N08146272WA010440113300709000
B1906312826120N08146241WA010390112300709000
B1906362826100N08146210WA010290111300609000
B1906412826076N08146178WA010310110900709000
B1906462826045N08146151WA010270110500709000
F1906510308092223262731
B1906512826019N08146122WA010280110500808000
F190656030809162223262731
B1906562825982N08146097WA010210110200709000
B1907012825957N08146063WA010200109901009000
B1907062825956N08146026WA010120109400509000
B1907112825967N08145992WA010080108900609000
B1907162825966N08145953WA010050108600609000
B1907212825950N08145917WA010080108500609000
B1907262825929N08145889WA010020108100609000
B1907312825908N08145856WA009950107500709000
B1907362825894N08145822WA009950107400409000
B1907412825882N08145791WA009980107400609000
B1907462825869N08145765WA009950107200409000
B1907512825862N08145733WA009900107000409000
B1907562825848N08145702WA009850106500509000
B1908012825825N08145670WA009860106300709000
B1908062825804N08145639WA009850106200809000
B1908112825810N08145610WA009810105800509000
B1908162825834N08145610WA009730105200709000
B1908212825847N08145644WA009720105000509000
B1908262825837N08145686WA009690104700509000
B1908312825805N08145712WA009680104400709000
B1908362825770N08145703WA009660104400709000
B1908412825748N08145678WA009660104200909000
B1908462825747N08145644WA009660104400609000
B1908512825765N08145621WA009660104300509000
B1908562825793N08145629WA009560104000709000
B1909012825782N08145674WA009590103700909000
B1909062825750N08145703WA009610103700609000
B1909112825710N08145726WA009560103500809000
B1909162825672N08145725WA009500103200609000
B1909212825633N08145704WA009410102600809000
B1909262825596N08145684WA009420102400709000
B1909312825558N08145661WA009390102000609000
B1909362825523N08145634WA009360101600609000
F1909410308091622232731
B1909412825491N08145601WA009350101400708000
F190946030809162223262731
B1909462825452N08145573WA009340101300809000
B1909512825413N08145546WA009330101200609000
B1909562825378N08145518WA009310101100609000
B1910012825350N08145486WA009300101100609000
B1910062825330N08145447WA009220100700609000
B1910112825314N08145409WA009180100300809000
B1910162825298N08145368WA009060099500709000
B1910212825278N08145331WA008950098500709000
B1910262825259N08145291WA008860097300509000
B1910312825249N08145247WA008740096000509000
B1910362825236N08145209WA008650094700609000
B1910412825219N08145172WA008540093400409000
B1910462825203N08145133WA008440092200609000
B1910512825175N08145103WA008330091100509000
B1910562825144N08145078WA008120089600709000
B1911012825116N08145048WA007900087000809000
B1911062825086N08145014WA007690084900709000
B1911112825051N08144984WA007500082700609000
B1911162825010N08144965WA007280080400709000
B1911212824970N08144937WA007040077900609000
B1911262824933N08144904WA006860075600709000
B1911312824902N08144865WA006680073600909000
B1911362824874N08144825WA006590072200709000
B1911412824843N08144797WA006480071100709000
B1911462824814N08144763WA006330069800709000
B1911512824790N08144725WA006280069200709000
B1911562824768N08144690WA006230068900509000
B1912012824751N08144656WA006200068500409000
B1912062824731N08144619WA006130068000509000
B1912112824714N08144581WA006080067500509000
B1912162824702N08144540WA006100067300509000
B1912212824709N08144508WA006240067900609000
B1912262824730N08144509WA006410069200709000
B1912312824737N08144536WA006550070800609000
B1912362824713N08144567WA006480071101109000
B1912412824666N08144573WA006460070900709000
B1912462824625N08144552WA006400070800809000
B1912512824600N08144512WA006470071000509000
B1912562824587N08144469WA006560071600809000
B1913012824578N08144423WA006670072500609000
B1913062824567N08144383WA006810073800509000
B1913112824566N08144343WA006870075100609000
B1913162824590N08144343WA006880075900809000
B1913212824583N08144380WA006910076001109000
B1913262824543N08144384WA006980076300809000
B1913312824519N08144347WA007040077101009000
B1913362824521N08144305WA007080077600509000
B1913412824550N08144288WA007100078000709000
B1913462824567N08144309WA007090078100409000
B1913512824549N08144342WA007060077800809000
B1913562824512N08144354WA007120077900609000
B1914012824481N08144330WA007160078201209000
B1914062824505N08144300WA007200078701409000
B1914112824522N08144326WA007240079100709000
B1914162824499N08144354WA007280079400909000
B1914212824460N08144349WA007350079900809000
B1914262824427N08144330WA007480080700709000
B1914312824406N08144294WA007570081901109000
B1914362824429N08144269WA007600082701309000
B1914412824441N08144301WA007640083200809000
B1914462824411N08144325WA007680083600809000
B1914512824377N08144308WA007840084600909000
B1914562824364N08144268WA007940085700909000
B1915012824381N08144239WA007980086500709000
B1915062824404N08144241WA008020087000609000
B1915112824406N08144273WA007990087300709000
B1915162824371N08144290WA008070087600709000
B1915212824336N08144265WA008130088300809000
B1915262824323N08144227WA008210089100709000
B1915312824332N08144192WA008200089500509000
B1915362824358N08144177WA008140089200609000
B1915412824376N08144196WA008170089200709000
B1915462824372N08144227WA008130089000509000
B1915512824340N08144251WA008120088800909000
B1915562824296N08144242WA008150088900609000
B1916012824263N08144209WA008250089400709000
B1916062824243N08144181WA008320090200709000
B1916112824251N08144152WA008250090400809000
B1916162824271N08144172WA008220090100709000
B1916212824254N08144208WA008200089800809000
B1916262824212N08144220WA008210089800609000
B1916312824173N08144203WA008300090000609000
B1916362824139N08144173WA008420090600709000
B1916412824116N08144136WA008500091700509000
B1916462824112N08144097WA008600092800509000
F19165103070809162223262731
B1916512824134N08144086WA008650093600410000
B1916562824146N08144109WA008650094000610000
B1917012824126N08144139WA008680094200910000
B1917062824084N08144131WA008730094900710000
F191711030809162223262731
B1917112824078N08144088WA008770095200909000
F19171603070809162223262731
B1917162824100N08144096WA008820095600710000
B1917212824079N08144128WA008870096101210000
B1917262824039N08144132WA008950096800510000
B1917312824008N08144104WA008980097300510000
B1917362824006N08144065WA009010097900610000
B1917412824030N08144051WA009050098300510000
B1917462824038N08144074WA009100098600410000
B1917512824006N08144091WA009120098700510000
B1917562823969N08144071WA009160099100510000
B1918012823945N08144036WA009170099500810000
B1918062823943N08143994WA009120099400610000
B1918112823966N08143970WA009120099400510000
B1918162823987N08143960WA009160099500310000
B1918212824009N08143952WA009110099400310000
B1918262824032N08143935WA009090099100510000
B1918312824037N08143897WA009090099000410000
B1918362824040N08143858WA009070098700310000
B1918412824049N08143824WA009020098500510000
B1918462824055N08143789WA008920097800410000
B1918512824030N08143753WA008740096800610000
B1918562823997N08143730WA008620095700610000
B1919012823968N08143706WA008480094200610000
B1919062823940N08143679WA008290092100810000
B1919112823913N08143650WA008050089400510000
B1919162823882N08143621WA007890087200510000
B1919212823853N08143595WA007750085400610000
B1919262823822N08143565WA007610084000710000
B1919312823791N08143538WA007440082400510000
B1919362823761N08143509WA007310080900510000
B1919412823731N08143482WA007210079700410000
B1919462823708N08143452WA007100078400710000
B1919512823687N08143418WA006940076900510000
B1919562823665N08143386WA006820075400710000
B1920012823644N08143354WA006690074000610000
B1920062823622N08143319WA006550072600610000
B1920112823594N08143290WA006410071300310000
B1920162823572N08143262WA006230069700510000
B1920212823552N08143224WA006030067600410000
B1920262823525N08143193WA005860065700510000
B1920312823495N08143162WA005680063800710000
B1920362823469N08143128WA005510061900510000
B1920412823435N08143097WA005320059900310000
B1920462823403N08143067WA005180058300310000
B1920512823373N08143034WA005010056600510000
B1920562823343N08142996WA004870055000410000
B1921012823307N08142959WA004750053700610000
B1921062823273N08142923WA004620052400510000
B1921112823240N08142887WA004470050900510000
B1921162823208N08142850WA004320049400510000
B1921212823178N08142815WA004170047900410000
B1921262823149N08142776WA004040046500610000
B1921312823121N08142734WA003950045500510000
B1921362823096N08142692WA003840044400510000
B1921412823069N08142651WA003730043200410000
B1921462823038N08142615WA003620042100310000
B1921512823004N08142579WA003520041200310000
B1921562822969N08142547WA003450040400310000
B1922012822936N08142512WA003360039600410000
B1922062822909N08142468WA003270038700610000
B1922112822884N08142425WA003190037900410000
B1922162822852N08142390WA003100037000310000
B1922212822813N08142357WA003080036500410000
B1922262822774N08142326WA003030036200410000
B1922312822739N08142292WA003000035900410000
B1922362822707N08142253WA003000035700710000
B1922412822676N08142214WA002960035300310000
B1922462822643N08142183WA002910034900310000
B1922512822610N08142152WA002840034400410000
F192256030708091622232731
B1922562822576N08142120WA002770033900409000
F19230103070809162223262731
B1923012822546N08142085WA002690033100510000
F192306030708091622232731
B1923062822519N08142052WA002610032500409000
F19231103070809162223262731
B1923112822493N08142014WA002460031000510000
B1923162822467N08141973WA002300029500410000
B1923212822436N08141932WA002240028300510000
B1923262822406N08141890WA002180027300510000
B1923312822375N08141850WA002170027000410000
B1923362822341N08141814WA002140026700310000
B1923412822311N08141780WA002230026900410000
B1923462822282N08141748WA002340027800410000
F192351030708091622262731
B1923512822266N08141710WA002480029200509000
F19235603070809162223262731
B1923562822279N08141692WA002570030500610000
B1924012822282N08141703WA002580031300510000
B1924062822258N08141722WA002710032200710000
B1924112822223N08141717WA002810033500410000
B1924162822214N08141686WA002840034100510000
B1924212822218N08141662WA002850034300510000
B1924262822229N08141659WA002780034200610000
B1924312822240N08141669WA002790033900410000
B1924362822248N08141688WA002830034000510000
B1924412822228N08141709WA002880034300610000
B1924462822186N08141703WA002970035000410000
B1924512822170N08141661WA003110035900910000
B1924562822183N08141652WA003090036200610000
B1925012822174N08141679WA003110036501010000
B1925062822130N08141666WA003180037000910000
B1925112822117N08141631WA003200037400710000
B1925162822126N08141610WA003210037600410000
B1925212822133N08141626WA003230037900510000
B1925262822107N08141656WA003270038300710000
B1925312822059N08141650WA003240038400510000
B1925362822028N08141614WA003300038600510000
B1925412822010N08141584WA003260038700610000
B1925462822004N08141551WA003270038900610000
B1925512821998N08141519WA003260039000510000
B1925562821999N08141492WA003240038900510000
B1926012822014N08141474WA003190038600410000
B1926062822038N08141475WA003120038300410000
B1926112822043N08141505WA003100037800510000
B1926162822018N08141539WA003130037700710000
B1926212821973N08141558WA003180038000510000
B1926262821934N08141542WA003210038400510000
B1926312821929N08141506WA003220038300710000
B1926362821942N08141481WA003280038500610000
B1926412821962N08141477WA003290038900410000
B1926462821969N08141508WA003300039000610000
B1926512821925N08141517WA003250039001010000
B1926562821908N08141478WA003310039200810000
B1927012821924N08141459WA003340039400610000
B1927062821943N08141472WA003320039500410000
B1927112821933N08141504WA003230039000910000
B1927162821886N08141511WA003240038700810000
B1927212821854N08141485WA003250038800810000
B1927262821841N08141447WA003290039200710000
B1927312821831N08141409WA003330039400810000
B1927362821829N08141377WA003170038900810000
B1927412821844N08141360WA003000037700510000
B1927462821854N08141384WA002850035600510000
B1927512821825N08141417WA002730033700610000
B1927562821781N08141406WA002650032800710000
B1928012821751N08141372WA002550031900810000
B1928062821736N08141332WA002410030700910000
B1928112821729N08141294WA002250029300610000
B1928162821714N08141256WA002130028000710000
B1928212821698N08141217WA002040026800710000
B1928262821689N08141181WA001970026000510000
B1928312821680N08141148WA001900025100610000
B1928362821669N08141112WA001780024200510000
B1928412821651N08141074WA001750023700610000
B1928462821627N08141034WA001640022800610000
B1928512821599N08141000WA001600022000410000
B1928562821572N08140962WA001520021300410000
B1929012821557N08140922WA001480020900410000
B1929062821554N08140881WA001460020500410000
B1929112821561N08140840WA001480020300610000
B1929162821584N08140835WA001490020300810000
B1929212821590N08140870WA001450020000610000
B1929262821581N08140908WA001350019600510000
B1929312821567N08140943WA001260019000610000
B1929362821573N08140980WA001190018100510000
B1929412821584N08141011WA001080017000410000
B1929462821597N08141041WA000950015600410000
B1929512821616N08141067WA000880014500410000
B1929562821638N08141085WA000820013800610000
B1930012821654N08141050WA000780013200710000
B1930062821650N08141005WA000690012600810000
B1930112821638N08140964WA000640012200610000
B1930162821635N08140922WA000550011400510000
B1930212821629N08140878WA000510010600510000
B1930262821631N08140836WA000440009900610000
B1930312821660N08140829WA000430009500710000
B1930362821666N08140870WA000420009300910000
B1930412821643N08140912WA000440009200710000
B1930462821634N08140953WA000340008701110000
B1930512821652N08140941WA000260008001010000
B1930562821661N08140906WA000220007500710000
B1931012821685N08140888WA000050006700610000
B1931062821716N08140909WA000000005600610000
B1931112821737N08140926WA-00020005200610000
B1931162821741N08140931WA-00010005000610000
B1931212821741N08140931WA-00020004900410000
B1931262821741N08140931WA-00020004900410000
B1931312821741N08140931WA-00020004900310000
B1931362821741N08140931WA-00020004900310000
B1931412821741N08140929WA-00010004900410000
B1931452821738N08140925WA-00020004800510000
B1931512821735N08140923WA-00010004900310000
B1931562821732N08140920WA-00020004800310000
B1932012821729N08140916WA-00020004800310000
B1932062821725N08140912WA-00020004800310000
B1932112821723N08140910WA-00020004700210000
B1932162821719N08140906WA-00020004600310000
B1932212821717N08140904WA-00030004600210000
B1932262821715N08140902WA-00020004600310000
B1932312821712N08140899WA-00020004600310000
B1932362821710N08140895WA-00020004600510000
B1932412821707N08140892WA-00030004500310000
B1932462821706N08140891WA-00030004600210000
B1932512821703N08140888WA-00030004600510000
B1932562821701N08140885WA-00030004700310000
B1933012821697N08140882WA-00030004800310000
B1933062821694N08140880WA-00030004800310000
B1933112821691N08140878WA-00040004700310000
B1933162821691N08140878WA-00040004700310000
B1933212821690N08140877WA-00040004700310000
B1933262821687N08140875WA-00030004600410000
B1933312821683N08140874WA-00030004600310000
B1933362821680N08140872WA-00030004600310000
B1933412821676N08140870WA-00040004500310000
B1933462821673N08140869WA-00040004500310000
B1933512821672N08140868WA-00040004500310000
B1933562821670N08140867WA-00040004600310000
B1934012821668N08140864WA-00050004500310000
B1934062821667N08140861WA-00060004400310000
F193411070809162223262731
B1934112821667N08140861WA-00060004400309000
F19341603070809162223262731
B1934162821667N08140861WA-00060004400310000
B1934212821665N08140857WA-00070004400310000
B1934262821665N08140856WA-00070004400310000
B1934312821666N08140853WA-00080004300310000
F193436070809162223262731
B1934362821666N08140853WA-00080004300309000
F19344103070809162223262731
B1934412821666N08140853WA-00080004300310000
B1934462821667N08140850WA-00080004200310000
F193451030708091623262731
B1934512821667N08140850WA-00090004100509000
F19345603070809162223262731
B1934562821667N08140850WA-00090004100310000
F193501030708091623262731
B1935012821667N08140850WA-00090004100409000
F19350603070809162223262731
B1935062821667N08140850WA-00090004100310000
B1935112821667N08140850WA-00090004100310000
B1935162821667N08140850WA-00090004100310000
B1935212821667N08140850WA-00090004100310000
B1935262821667N08140850WA-00090004100310000
B1935312821667N08140850WA-00090004100310000
B1935362821667N08140850WA-00090004100410000
B1935412821667N08140850WA-00090004100410000
B1935462821667N08140850WA-00090004100410000
L   FlyChart®
L   Version 4.57, Sep. 1st 2014
GEB37A0EDFF9C9A10E351A0EAB6802610F5473AF6548AF94C26D426C9003D8817
