AFLY01FF 04789
HFDTE090416
HFFXA010
HFPLTPILOT:questAr         
HFGTYGLIDERTYPE:HangGlid        
HFGIDGLIDERID:not-set         
HFDTM100GPSDATUM:WGS84
HFRFWFIRMWAREVERSION: 1.3.07  Eng
HFRHWHARDWAREVERSION:1.00
HFFTYFRTYPE:Flytec,6015
HFGPS:FASTRAX,IT430,48
HFPRSPRESSALTSENSOR:INTERSEMA,MS5401BM,12000
HFTZNUTCOFFSET: -4
I033638FXA3940SIU4143TAS
C090416172328090416000801
C2831933N08150789WTakeoff
C2831982N08150800W00000000005000000000360000StartArea,QUEST           
C2815508N08149500W00000000000400000000360000TurnArea,T33DS           
C2803778N08145184W00000000001200000000360000FinishArea,GILBRT          
C2826009N08150170WLanding
F193122030708091623262731
B1931222831900N08150785WA-00210002901909000
F193123030708091623262731
E193123TPC
B1931232831900N08150785WA-00210003002109000
F193152030708091623262731
B1931522831903N08150786WA-00210003201109000
F193222030708091623262731
B1932222831903N08150786WA-00210003100909000
E193247STA
E193247ATS1019.9
LFLYA100033
B1932472831933N08150789WA-00230003300609000
B1932522831974N08150790WA-00100003800709000
B1932572832012N08150795WA000050005100709000
B1933022832047N08150806WA000220006600509000
B1933072832084N08150817WA000380008700709000
B1933122832122N08150831WA000600011200809000
B1933172832157N08150834WA000810013700709000
B1933222832191N08150837WA001050016100709000
B1933272832221N08150834WA001240018300809000
B1933322832254N08150826WA001400020300609000
B1933372832286N08150810WA001490021500509000
B1933422832318N08150797WA001590022400709000
B1933472832353N08150784WA001710023400709000
B1933522832389N08150776WA001850024600609000
B1933572832423N08150778WA002020026100309000
B1934022832458N08150795WA002190027700509000
B1934072832487N08150827WA002370029600409000
B1934122832506N08150871WA002590031700609000
B1934172832520N08150920WA002830034100609000
B1934222832528N08150972WA003060036600609000
B1934272832524N08151025WA003270039000409000
B1934322832515N08151080WA003470041100609000
B1934372832500N08151132WA003720043500909000
B1934422832489N08151181WA003950046100909000
B1934472832483N08151229WA004190048600609000
B1934522832483N08151275WA004410050900509000
B1934572832489N08151320WA004640053200609000
B1935022832488N08151366WA004820055201009000
B1935072832480N08151416WA004980056900609000
B1935122832471N08151465WA005060058400609000
B1935172832465N08151512WA005180059300709000
B1935222832470N08151557WA005270060100709000
B1935272832485N08151598WA005420061100509000
B1935322832507N08151632WA005530062200709000
B1935372832534N08151662WA005670063400509000
B1935422832565N08151687WA005810064700509000
B1935472832603N08151700WA005900065800609000
B1935522832642N08151699WA006040067000509000
B1935572832682N08151687WA006210068400709000
B1936022832719N08151668WA006400070300509000
B1936072832757N08151651WA006590072200509000
B1936122832793N08151640WA006740074000509000
B1936172832819N08151624WA006690074500709000
B1936222832840N08151612WA006630074200609000
B1936272832866N08151610WA006530073300409000
B1936322832894N08151602WA006360072000809000
B1936372832919N08151593WA006200070200609000
B1936422832946N08151585WA006060068500409000
B1936472832967N08151576WA005970067000409000
B1936522832987N08151574WA005890065700609000
B1936572832999N08151596WA005740064400809000
B1937022833012N08151620WA005600062900509000
B1937072833035N08151634WA005470061600809000
B1937122833049N08151651WA005380060500509000
B1937172833055N08151682WA005210059000709000
B1937222833056N08151710WA005040057500809000
B1937272833032N08151738WA004930056100609000
B1937322832998N08151748WA004810054600509000
B1937372832964N08151751WA004730053500409000
B1937422832931N08151755WA004670052600609000
B1937472832898N08151746WA004590052000709000
B1937522832879N08151719WA004580051900909000
B1937572832873N08151690WA004550051500709000
B1938022832866N08151662WA004460051200609000
B1938072832857N08151630WA004340050400509000
B1938122832849N08151597WA004220049100609000
B1938172832838N08151565WA004100047700409000
B1938222832821N08151538WA004010046600409000
B1938272832800N08151512WA003860045300409000
B1938322832780N08151483WA003740043900509000
B1938372832759N08151453WA003630042700509000
B1938422832732N08151430WA003580041900509000
B1938472832709N08151409WA003470040800409000
B1938522832681N08151386WA003350039500409000
B1938572832656N08151363WA003180038100409000
B1939022832638N08151331WA003070036800509000
B1939072832624N08151297WA002950035700409000
B1939122832601N08151270WA002840034300909000
B1939172832564N08151255WA002680032500909000
B1939222832529N08151229WA002600031200509000
B1939272832502N08151201WA002530030600509000
B1939322832469N08151171WA002520030200609000
B1939372832428N08151155WA002570030700609000
B1939422832385N08151156WA002620031100609000
B1939472832349N08151155WA002680031900709000
B1939522832307N08151141WA002620032100709000
B1939572832272N08151132WA002740032700809000
F19400203070809111623262731
B1940022832246N08151144WA002760032900610000
B1940072832255N08151172WA002750033200510000
B1940122832260N08151203WA002820033600910000
B1940172832229N08151214WA002880034200910000
B1940222832221N08151186WA002900034700810000
B1940272832239N08151191WA002930035200810000
B1940322832224N08151217WA002940035400810000
B1940372832194N08151208WA002950035500610000
B1940422832201N08151185WA002970035500810000
B1940472832198N08151206WA002980035701210000
B1940522832167N08151196WA003030036000910000
B1940572832185N08151177WA003010036200610000
B1941022832198N08151204WA003050036101110000
B1941072832197N08151235WA003110036500510000
B1941122832183N08151269WA003150037100610000
B1941172832147N08151282WA003160037500810000
B1941222832119N08151261WA003190037700610000
B1941272832132N08151242WA003210037900610000
B1941322832143N08151263WA003250038200910000
B1941372832117N08151290WA003270038500610000
B1941422832079N08151281WA003280038800510000
B1941472832055N08151254WA003280038800410000
B1941522832051N08151213WA003290038700510000
B1941572832045N08151177WA003340039000410000
B1942022832044N08151147WA003390039500410000
B1942072832053N08151118WA003450040000610000
B1942122832072N08151108WA003540040700510000
B1942172832079N08151130WA003610041500810000
B1942222832052N08151140WA003650042100910000
B1942272832021N08151127WA003770043400510000
B1942322831993N08151110WA003890044600510000
B1942372831971N08151092WA004030046100510000
B1942422831951N08151070WA004180047600410000
B1942472831942N08151044WA004280048900610000
B1942522831933N08151011WA004330049800410000
B1942572831935N08150996WA004430050700410000
B1943022831949N08151002WA004440050900510000
B1943072831951N08151028WA004490051100510000
B1943122831940N08151062WA004520051200510000
B1943172831922N08151092WA004660052400710000
B1943222831894N08151112WA004770053600410000
B1943272831864N08151107WA004880054800710000
B1943322831856N08151078WA004900055400510000
B1943372831869N08151060WA005020056400710000
B1943422831881N08151052WA005080057300810000
B1943472831895N08151054WA005190058300510000
B1943522831907N08151069WA005330059300610000
B1943572831922N08151083WA005430060300410000
B1944022831936N08151099WA005510061400410000
B1944072831928N08151123WA005660062800910000
B1944122831891N08151119WA005740063900910000
B1944172831904N08151087WA005840065000710000
B1944222831916N08151106WA005930066001010000
B1944272831889N08151124WA006100067501010000
B1944322831861N08151097WA006150068400610000
B1944372831868N08151066WA006290069500610000
B1944422831883N08151054WA006410071100510000
B1944472831897N08151060WA006390071800610000
B1944522831878N08151088WA006470072100810000
B1944572831842N08151082WA006550072400610000
B1945022831837N08151052WA006650073200710000
B1945072831843N08151067WA006640073201210000
B1945122831813N08151091WA006720073600510000
B1945172831777N08151080WA006840074500510000
B1945222831775N08151056WA006990075800810000
B1945272831777N08151082WA007070076801110000
B1945322831739N08151067WA007240078400710000
B1945372831751N08151053WA007360080100810000
B1945422831756N08151080WA007400081000910000
B1945472831719N08151093WA007530082200810000
B1945522831723N08151084WA007660083301410000
B1945572831700N08151100WA007840084901010000
B1946022831704N08151085WA007990086600810000
B1946072831696N08151116WA008140088100910000
B1946122831665N08151099WA008380090500810000
B1946172831682N08151097WA008480092001110000
B1946222831665N08151124WA008730094201010000
B1946272831641N08151112WA008910096500610000
B1946322831634N08151083WA009020097900510000
B1946372831653N08151085WA009120098900710000
B1946422831638N08151114WA009270099600810000
B1946472831620N08151096WA009410100601210000
B1946522831621N08151120WA009570102401110000
B1946572831595N08151107WA009740104201110000
B1947022831613N08151106WA009890106200810000
B1947072831612N08151137WA010000107400810000
B1947122831584N08151135WA010140108900610000
B1947172831591N08151117WA010310110200910000
B1947222831587N08151149WA010400111501110000
B1947272831563N08151131WA010550112801010000
B1947322831584N08151136WA010670114201110000
B1947372831556N08151157WA010800115400810000
B1947422831557N08151132WA010930116700910000
B1947472831569N08151156WA011010117701110000
B1947522831538N08151159WA011150118800810000
B1947572831555N08151150WA011270119900910000
B1948022831544N08151179WA011400121201010000
B1948072831517N08151162WA011520122500810000
B1948122831537N08151155WA011640123800910000
B1948172831535N08151186WA011730124701110000
B1948222831505N08151172WA011830125500810000
B1948272831526N08151168WA011930126601010000
B1948322831506N08151192WA012020127601210000
B1948372831500N08151171WA012120128600810000
B1948422831511N08151193WA012240129601210000
B1948472831479N08151190WA012320130400710000
B1948522831491N08151173WA012410131101010000
B1948572831482N08151201WA012460131601110000
F194902030708091116232627
B1949022831470N08151177WA012550132201309000
B1949072831491N08151189WA012590132701509000
B1949122831464N08151210WA012640133401009000
B1949172831453N08151182WA012690133801509000
B1949222831471N08151196WA012730134401409000
B1949272831442N08151208WA012770135000709000
B1949322831445N08151183WA012800135401209000
B1949372831450N08151208WA012840135701309000
B1949422831418N08151209WA012880136000809000
B1949472831430N08151186WA012870136101109000
B1949522831424N08151217WA012910136401209000
B1949572831398N08151204WA012940136700809000
B1950022831411N08151182WA012940136801109000
B1950072831412N08151208WA012950136901209000
B1950122831379N08151216WA012990137100809000
F1950170708091116232627
B1950172831349N08151201WA012960137000708000
F195022030708091116232627
B1950222831326N08151174WA012970137000509000
B1950272831304N08151145WA013000137100409000
B1950322831281N08151120WA013090137600509000
B1950372831258N08151089WA013200138800509000
B1950422831241N08151057WA013350140400409000
B1950472831233N08151020WA013490141900509000
B1950522831228N08150986WA013590143200509000
B1950572831227N08150954WA013660144200509000
B1951022831225N08150916WA013680144700409000
B1951072831221N08150877WA013740145000509000
B1951122831214N08150838WA013720145200409000
B1951172831220N08150807WA013740145300509000
B1951222831240N08150803WA013580144700609000
B1951272831256N08150828WA013440143700609000
B1951322831255N08150859WA013360142400809000
B1951372831226N08150877WA013230140700909000
B1951422831182N08150888WA013150139300709000
B1951472831140N08150897WA013160138900809000
B1951522831105N08150882WA013240139300609000
B1951572831074N08150853WA013350140200609000
B1952022831040N08150819WA013350140600509000
B1952072831009N08150786WA013420141200409000
B1952122830977N08150754WA013530142200509000
B1952172830943N08150727WA013610143200609000
B1952222830906N08150705WA013670143900409000
B1952272830866N08150684WA013730144400509000
B1952322830829N08150664WA013800145100609000
B1952372830790N08150645WA013810145500609000
B1952422830752N08150627WA013800145500509000
B1952472830712N08150615WA013810145500409000
B1952522830668N08150603WA013800145300509000
B1952572830630N08150582WA013760145000509000
B1953022830592N08150559WA013680144400709000
B1953072830549N08150546WA013610143800509000
B1953122830508N08150539WA013560143200509000
F1953170307081116232627
B1953172830467N08150529WA013500142500408000
F195322030708091116232627
B1953222830426N08150517WA013430141900409000
B1953272830385N08150506WA013340141200509000
F1953320307080911232627
B1953322830343N08150496WA013290140600508000
F195337030708091116232627
B1953372830304N08150480WA013220140000309000
B1953422830263N08150462WA013140139100509000
B1953472830221N08150449WA013080138500509000
B1953522830182N08150437WA013000137800409000
B1953572830141N08150434WA012910136900609000
B1954022830100N08150435WA012820135900509000
B1954072830060N08150431WA012730134900509000
B1954122830023N08150425WA012620133800609000
B1954172829984N08150419WA012500132600409000
B1954222829947N08150414WA012410131700409000
B1954272829905N08150412WA012340130800709000
B1954322829863N08150408WA012260129800509000
B1954372829824N08150400WA012180129000309000
B1954422829783N08150395WA012060128000609000
B1954472829739N08150395WA011980127200609000
B1954522829696N08150391WA011910126400409000
B1954572829656N08150386WA011850125800509000
B1955022829614N08150379WA011800125300309000
B1955072829575N08150370WA011760124900409000
B1955122829540N08150358WA011690124400609000
B1955172829514N08150327WA011610123800409000
B1955222829499N08150291WA011550123100409000
B1955272829488N08150250WA011510122700409000
B1955322829481N08150213WA011520122400409000
B1955372829490N08150186WA011470122100609000
B1955422829505N08150162WA011400121800809000
F1955470307080911162327
B1955472829524N08150166WA011350121200508000
F195552030708091116232627
B1955522829524N08150194WA011290120700809000
B1955572829495N08150220WA011230120000809000
B1956022829458N08150222WA011210119601009000
B1956072829414N08150216WA011160119200909000
B1956122829376N08150210WA011170119100509000
B1956172829339N08150202WA011160119000609000
B1956222829299N08150198WA011140118900709000
B1956272829262N08150187WA011090118700409000
B1956322829227N08150171WA011050118300409000
B1956372829190N08150157WA011010117800409000
B1956422829152N08150150WA010940117100409000
B1956472829119N08150148WA010860116300709000
B1956522829082N08150153WA010730115000609000
B1956572829047N08150162WA010640113900409000
B1957022829021N08150187WA010500112500509000
B1957072829004N08150218WA010380111300409000
B1957122828980N08150239WA010300110300509000
B1957172828958N08150261WA010130109000609000
B1957222828937N08150289WA010050108000609000
B1957272828914N08150312WA009920106800409000
B1957322828894N08150342WA009800105400509000
B1957372828874N08150372WA009710104300709000
F1957420307080911162326
B1957422828855N08150402WA009580103000708000
F195747030708091116232627
B1957472828838N08150430WA009450101800609000
B1957522828810N08150453WA009400101000609000
B1957572828782N08150480WA009260099900509000
B1958022828759N08150513WA009170098900609000
B1958072828734N08150545WA009060097800409000
B1958122828713N08150575WA008980097000509000
B1958172828680N08150592WA008840095900609000
B1958222828644N08150592WA008710094800509000
B1958272828603N08150582WA008640093600409000
B1958322828562N08150579WA008580092700509000
B1958372828523N08150578WA008520092000709000
B1958422828482N08150578WA008320091100809000
B1958472828438N08150576WA008220089900409000
B1958522828393N08150572WA008180089200609000
B1958572828346N08150563WA008050088000609000
B1959022828308N08150547WA008020087500509000
F1959070307080911162327
B1959072828272N08150526WA007980087000708000
B1959122828236N08150501WA008000087000708000
B1959172828214N08150466WA007950086700608000
F195922030708091116232627
B1959222828224N08150441WA007920086300809000
B1959272828227N08150459WA007850085901109000
B1959322828192N08150466WA007750085301109000
B1959372828155N08150433WA007720084400509000
B1959422828121N08150405WA007670083800709000
B1959472828080N08150385WA007590083100409000
B1959522828042N08150367WA007540082600409000
B1959572828004N08150344WA007470082000409000
B2000022827973N08150316WA007400081200509000
B2000072827939N08150290WA007350080600609000
B2000122827899N08150274WA007310080200409000
B2000172827872N08150255WA007260079500509000
B2000222827842N08150236WA007240079100409000
B2000272827811N08150224WA007220079100509000
B2000322827776N08150204WA007140078600509000
B2000372827738N08150187WA007070078000509000
B2000422827704N08150177WA007050077600709000
B2000472827668N08150172WA007000077200709000
B2000522827628N08150168WA006930076300509000
B2000572827588N08150162WA006840075400709000
B2001022827554N08150158WA006790074800909000
B2001072827519N08150152WA006720074200609000
B2001122827484N08150142WA006680073800409000
B2001172827454N08150132WA006640073300409000
B2001222827436N08150107WA006520072700709000
B2001272827406N08150088WA006490072000809000
B2001322827370N08150082WA006450071600509000
B2001372827335N08150076WA006390071200409000
B2001422827300N08150069WA006340070900409000
B2001472827264N08150064WA006320070600509000
B2001522827231N08150057WA006270070200509000
B2001572827201N08150052WA006220069700509000
B2002022827168N08150050WA006130068700709000
B2002072827135N08150048WA006100068200409000
B2002122827105N08150045WA006060067800709000
B2002172827070N08150052WA006000067200509000
B2002222827035N08150058WA005950066700509000
B2002272826999N08150058WA005890066100609000
B2002322826962N08150056WA005830065500609000
B2002372826926N08150051WA005780064900509000
B2002422826891N08150046WA005690064000709000
B2002472826858N08150049WA005570062800709000
B2002522826825N08150053WA005490061700509000
B2002572826796N08150055WA005380060700509000
B2003022826760N08150054WA005290059800609000
B2003072826721N08150045WA005230059100809000
B2003122826683N08150039WA005180058500809000
B2003172826643N08150033WA005110058000509000
B2003222826608N08150028WA005010057400609000
B2003272826572N08150028WA004920056400709000
B2003322826535N08150026WA004770055000609000
B2003372826493N08150032WA004590053100609000
B2003422826454N08150037WA004480051600709000
B2003472826420N08150037WA004390050600509000
B2003522826386N08150039WA004300049600509000
B2003572826351N08150049WA004170048600709000
B2004022826317N08150060WA004070047500709000
B2004072826280N08150066WA003990046500709000
B2004122826248N08150069WA003920045800509000
B2004172826213N08150068WA003800044900709000
B2004222826182N08150056WA003710043900409000
B2004272826149N08150044WA003590042800309000
B2004322826114N08150041WA003520041900609000
B2004372826080N08150041WA003460041100509000
B2004422826048N08150031WA003380040400309000
B2004472826018N08150012WA003290039600509000
B2004522825981N08150005WA003140038300409000
B2004572825941N08150005WA003010036900409000
B2005022825902N08150025WA002830035001009000
B2005072825885N08150067WA002690033400609000
B2005122825880N08150109WA002560031900509000
B2005172825872N08150153WA002410030300509000
B2005222825863N08150195WA002200028400609000
B2005272825862N08150241WA001980026100509000
B2005322825874N08150286WA001780024101109000
B2005372825894N08150252WA001560021901309000
F2005420307091116232627
B2005422825875N08150208WA001370019900908000
F200547030708091116232627
B2005472825905N08150206WA000940016901309000
B2005522825887N08150285WA000700013001309000
F2005570307081116232627
B2005572825922N08150314WA000410010101808000
F200602030708091116232627
B2006022825958N08150295WA000360007701509000
B2006072825939N08150247WA000200007000609000
F2006120307080911162627
B2006122825932N08150206WA000050005500608000
F200617030708091116232627
B2006172825959N08150172WA-00130003901709000
B2006222825996N08150171WA-00180003301209000
B2006272826009N08150170WA-00190003200809000
B2006322826009N08150170WA-00190003400809000
L   FlyChart®
L   Version 4.52(51) TEST, May 5th 2010
GB67D5212762FBDEBA92E3B7421799F62312F0420107E325996C8D489717D5502
