AFLY022x 07871
HFDTE050416
HFFXA010
HFPLTPILOT:Pete Wall       
HFGTYGLIDERTYPE:Hang Glider     
HFGIDGLIDERID:WW_Sport2-155   
HFDTM100GPSDATUM:WGS84
HFRFWFIRMWAREVERSION: 1.3.07  Eng
HFRHWHARDWAREVERSION:1.00
HFFTYFRTYPE:Brauniger,IQ-Basic GPS
HFGPS:FASTRAX,IT430,48
HFPRSPRESSALTSENSOR:INTERSEMA,MS5401BM,12000
HFTZNUTCOFFSET: -4
I033638FXA3940SIU4143TAS
C050416171222050416000701
C2831932N08150788WTakeoff
C2831982N08150800W00000000005000000000360000StartArea,QUEST           
C2820850N08140550W00000000001000000000360000TurnArea,T27192          
C2735514N08131612W00000000000400000000360000FinishArea,AVONPK          
C2810667N08138217WLanding
F17220703141622232627293132
B1722072831902N08150789WA-00150004000410007
F17223703141622232627293132
B1722372831902N08150789WA-00150003900310007
F17230703141622232627293132
B1723072831902N08150789WA-00160003900310011
F17233703141622232627293132
B1723372831902N08150789WA-00160003900410009
F17240703141622232627293132
B1724072831902N08150789WA-00150003900410005
F17243703141622232627293132
B1724372831902N08150789WA-00150003900410000
F17250703141622232627293132
B1725072831904N08150789WA-00150003900310000
F17253703141622232627293132
B1725372831904N08150789WA-00150003900410000
F17260703141622232627293132
B1726072831904N08150789WA-00150003900410006
E172618STA
E172618ATS1020.3
LFLYA100044
B1726182831932N08150788WA-00120003800410052
B1726232831972N08150788WA000030004300910069
B1726282832007N08150786WA000270006300910057
B1726332832040N08150786WA000410008600710057
B1726382832075N08150782WA000560010500710053
B1726432832108N08150773WA000700012100610057
B1726482832137N08150755WA000860013800510056
B1726532832167N08150736WA001050015700610057
B1726582832194N08150720WA001250017800610053
B1727032832222N08150708WA001450019900710058
B1727082832248N08150688WA001620021900510060
B1727132832275N08150664WA001720023400410057
B1727182832304N08150641WA001880025000410060
B1727232832332N08150625WA002070026700510056
B1727282832357N08150609WA002290028800510057
B1727332832383N08150596WA002520031100610058
B1727382832406N08150581WA002750033400610058
B1727432832428N08150565WA002950035600510056
B1727482832454N08150562WA003110037600410055
B1727532832480N08150567WA003270039400910053
B1727582832506N08150575WA003460041200610064
B1728032832531N08150587WA003680043400810054
B1728082832553N08150610WA003880045300410059
B1728132832579N08150636WA003980046800710056
B1728182832598N08150665WA004090047900510056
B1728232832615N08150698WA004170048700710054
B1728282832628N08150738WA004230049400410057
B1728332832642N08150780WA004300050000410054
B1728382832655N08150816WA004390050900510050
B1728432832672N08150842WA004540052200610050
B1728482832689N08150875WA004740053900610058
B1728532832704N08150920WA004960056000510059
B1728582832717N08150967WA005200058400510064
B1729032832726N08151018WA005390060800410059
B1729082832724N08151072WA005600063000410059
B1729132832711N08151129WA005780064900310062
B1729182832691N08151182WA005960066700410053
B1729232832664N08151220WA005970068000510042
B1729282832617N08151240WA006060068800710043
B1729332832569N08151238WA006140069200710043
B1729382832548N08151202WA006280070300910036
B1729432832566N08151186WA006440071300810046
B1729482832585N08151188WA006490072100610034
B1729532832605N08151191WA006430072000610040
B1729582832600N08151225WA006350071700810042
B1730032832554N08151248WA006430071700910046
B1730082832502N08151243WA006510072300810046
B1730132832455N08151226WA006620073300710038
B1730182832421N08151195WA006780074600610038
B1730232832429N08151172WA006830075500910040
B1730282832438N08151206WA006840075900610035
B1730332832404N08151238WA006930076600910042
B1730382832357N08151233WA007000077400610039
B1730432832327N08151202WA007080078100710040
B1730482832343N08151181WA007160078701210045
B1730532832352N08151217WA007190079100810039
B1730582832314N08151251WA007290079800810044
B1731032832269N08151249WA007350080800710041
F173108031416222326272932
B1731082832224N08151225WA007340081100609046
F17311303141622232627293132
B1731132832183N08151195WA007330081100710041
B1731182832138N08151167WA007270080700610042
B1731232832089N08151144WA007180079700510042
B1731282832035N08151128WA007130079000410046
B1731332831980N08151122WA007110078600410042
B1731382831928N08151123WA007170078800510040
B1731432831877N08151122WA007200079100510039
B1731482831841N08151097WA007240079600610043
B1731532831844N08151073WA007320080300610041
B1731582831860N08151091WA007370080801010044
B1732032831847N08151134WA007420081300610042
B1732082831817N08151176WA007440081600410041
B1732132831770N08151195WA007480082100610040
B1732182831731N08151179WA007550082800810038
B1732232831738N08151146WA007580083100810045
B1732282831763N08151166WA007700083901010041
B1732332831744N08151212WA007710084500710038
B1732382831698N08151217WA007760085100810043
B1732432831680N08151184WA007830085700910042
B1732482831689N08151152WA007900086400410045
B1732532831698N08151124WA007990087200410040
B1732582831710N08151101WA008050087900310039
B1733032831728N08151096WA008100088400510044
B1733082831738N08151118WA008090088500510037
B1733132831721N08151155WA008000088200710040
B1733182831667N08151162WA007930087400910038
B1733232831632N08151125WA007930087000710049
B1733282831622N08151086WA008000087500610043
B1733332831625N08151051WA008020087700410044
B1733382831642N08151047WA008040087901110040
B1733432831636N08151082WA008090088100710041
B1733482831585N08151094WA008040087801010047
B1733532831553N08151052WA008040087900810041
B1733582831561N08151014WA008060088100710047
B1734032831582N08150995WA008080088200710047
B1734082831607N08150987WA008090088300510044
F173413031416222627293132
B1734132831631N08150992WA008170088800809037
F17341803141622232627293132
B1734182831640N08151022WA008280089600710040
B1734232831600N08151044WA008380090601110044
B1734282831570N08151007WA008470091801010040
B1734332831584N08150983WA008540092801110044
B1734382831603N08151006WA008600093400810039
B1734432831596N08151046WA008670094000510041
B1734482831549N08151063WA008790094800710040
B1734532831504N08151047WA008920096200910040
B1734582831491N08151005WA009010097400710039
B1735032831514N08151011WA009070098401010042
B1735082831496N08151049WA009170099500910036
B1735132831450N08151039WA009290100301110044
B1735182831436N08150996WA009390101700710040
B1735232831452N08150976WA009450102300610035
B1735282831471N08150997WA009480102600710039
F173533031622232627293132
B1735332831454N08151036WA009450102800809042
F17353803141622232627293132
B1735382831404N08151018WA009660103201410049
B1735432831419N08150981WA009770104901310039
B1735482831430N08151016WA009760105800910043
B1735532831379N08151034WA009790106001210052
B1735582831344N08150986WA009990107300810048
B1736032831353N08150951WA010070108500910040
B1736082831374N08150977WA010080108500810043
B1736132831352N08151017WA010010108800910040
B1736182831294N08151001WA010060108701110056
B1736232831272N08150955WA010160109500610043
B1736282831278N08150916WA010190109900510041
B1736332831300N08150906WA010210110100910037
B1736382831312N08150946WA010180110000610040
B1736432831283N08150983WA010190110300610040
B1736482831237N08150976WA010200110301010050
B1736532831220N08150932WA010190110300810047
B1736582831238N08150901WA010240110500510047
B1737032831264N08150899WA010240110500910046
B1737082831277N08150927WA010300110900510041
B1737132831252N08150970WA010380111500510041
B1737182831208N08150979WA010390112000910036
B1737232831170N08150948WA010430112600710039
B1737282831164N08150913WA010480113100410037
B1737332831173N08150881WA010490113300610040
B1737382831194N08150890WA010520113500810041
B1737432831194N08150923WA010550113700510040
B1737482831169N08150962WA010590113900510046
B1737532831129N08150991WA010670114300410044
B1737582831082N08151005WA010660114700810043
B1738032831039N08150981WA010680115100610040
B1738082831036N08150942WA010710115200910040
B1738132831055N08150949WA010840115601110037
B1738182831035N08150990WA010900116600910046
B1738232830987N08150992WA010920117201010041
B1738282830952N08150954WA010940117700610038
B1738332830961N08150917WA010920117701110044
B1738382830986N08150933WA011020118200810041
B1738432830967N08150971WA011130119200610039
B1738482830922N08150970WA011140119701010041
B1738532830893N08150926WA011210120500710048
B1738582830905N08150892WA011250121000810042
B1739032830934N08150895WA011340121701010044
F173908031416222326272932
B1739082830937N08150928WA011420122500409040
F17391303141622232627293132
B1739132830904N08150954WA011500123300510040
B1739182830858N08150951WA011600124300610036
B1739232830824N08150912WA011680125200610042
B1739282830826N08150870WA011750126000710043
B1739332830849N08150865WA011870126700710035
B1739382830852N08150897WA011950127700510041
B1739432830824N08150929WA012030128600510042
B1739482830779N08150934WA012090129300710036
B1739532830744N08150896WA012190130200510042
B1739582830750N08150859WA012260130901210038
B1740032830773N08150878WA012280131000810049
B1740082830774N08150913WA012350131700610044
B1740132830759N08150948WA012400132200510045
B1740182830729N08150982WA012430132600510046
B1740232830683N08150988WA012520133300710040
B1740282830655N08150948WA012570134200710039
B1740332830673N08150915WA012590134401010044
B1740382830696N08150931WA012650134900910040
B1740432830673N08150960WA012680135200810038
B1740482830626N08150935WA012710135600810044
B1740532830625N08150890WA012740136100710040
B1740582830649N08150884WA012770136201110041
B1741032830643N08150922WA012790136400710044
F174108031416222326272932
B1741082830597N08150927WA012790136500909043
F17411303141622232627293132
B1741132830571N08150884WA012820136900710041
B1741182830590N08150860WA012830137001110042
B1741232830610N08150883WA012890137400710037
B1741282830590N08150921WA012890137600510041
B1741332830544N08150932WA012920137901210038
B1741382830514N08150891WA012950138500710044
B1741432830528N08150864WA012940138601110039
B1741482830548N08150892WA012970138501110040
B1741532830527N08150930WA012990138700610041
B1741582830478N08150933WA012970138601110042
B1742032830435N08150903WA012990138900710041
B1742082830424N08150861WA013020139100710043
B1742132830446N08150842WA013040139201410040
B1742182830475N08150854WA013030139100710043
B1742232830499N08150871WA013020139000610045
B1742282830519N08150892WA013030139100410043
B1742332830533N08150919WA013050139300510041
B1742382830531N08150953WA013120139800410037
B1742432830507N08150988WA013150140200310041
B1742482830468N08151003WA013180140700910041
B1742532830417N08150986WA013200140700910051
B1742582830386N08150946WA013260141200710034
B1743032830389N08150902WA013300141700410049
B1743082830410N08150883WA013380142401010034
B1743132830426N08150910WA013390142600810046
B1743182830406N08150948WA013390142700510045
B1743232830365N08150965WA013380142800910035
B1743282830327N08150930WA013380142800910047
B1743332830335N08150886WA013460143400710045
B1743382830360N08150875WA013510144000910040
B1743432830383N08150889WA013520144200710037
B1743482830367N08150928WA013500144300810044
B1743532830318N08150929WA013530144401210040
B1743582830284N08150885WA013520144400710045
B1744032830283N08150837WA013570144800510044
B1744082830306N08150820WA013540144501010042
B1744132830309N08150859WA013470144200910045
B1744182830264N08150882WA013470144101110045
B1744232830210N08150872WA013480144000810046
B1744282830158N08150852WA013470143900510046
B1744332830115N08150824WA013500144100410042
B1744382830105N08150784WA013470143900510044
B1744432830126N08150766WA013390143400910043
B1744482830146N08150787WA013310142500510039
B1744532830138N08150822WA013250141900510040
B1744582830098N08150843WA013180141201210045
B1745032830053N08150820WA013130140500610044
B1745082830031N08150782WA013100140000410040
B1745132830037N08150746WA013050139400710041
B1745182830060N08150735WA012960138700610042
B1745232830084N08150743WA012850137900610037
B1745282830097N08150770WA012740136700410039
B1745332830078N08150811WA012650135500310042
B1745382830039N08150834WA012610134900710037
B1745432829997N08150824WA012580134400410039
B1745482829980N08150787WA012520134000510039
B1745532829995N08150764WA012450133501110035
B1745582830016N08150783WA012350132800910038
B1746032830003N08150822WA012300132000510038
B1746082829966N08150841WA012250131401010036
B1746132829934N08150809WA012170130600610041
B1746182829924N08150768WA012090129900510037
B1746232829922N08150733WA011990129000410035
B1746282829916N08150690WA011850127600410044
B1746332829900N08150645WA011710126200510043
B1746382829865N08150602WA011650125000710042
B1746432829827N08150569WA011580124300610042
B1746482829791N08150538WA011510123500610035
B1746532829763N08150498WA011410122600410046
B1746582829728N08150464WA011320121700510044
B1747032829686N08150443WA011250120900510037
B1747082829639N08150421WA011170120200610042
B1747132829603N08150393WA011060119500610037
B1747182829564N08150358WA010950118400510045
B1747232829522N08150332WA010880117500410040
B1747282829479N08150304WA010770116300510042
B1747332829439N08150275WA010670115300510037
B1747382829408N08150239WA010580114300410043
B1747432829383N08150201WA010490113400310036
B1747482829363N08150162WA010370112400610037
B1747532829355N08150126WA010250111300510033
B1747582829377N08150115WA010100110101210044
B1748032829403N08150117WA010000108900910039
B1748082829420N08150090WA009860107400710047
B1748132829415N08150043WA009730105800810048
B1748182829387N08149999WA009640104700510044
B1748232829354N08149959WA009540103500410042
B1748282829328N08149918WA009420102300410046
B1748332829300N08149876WA009290101000310046
B1748382829275N08149838WA009190099900410039
B1748432829252N08149802WA009110099100510038
B1748482829233N08149764WA009030098100410039
B1748532829206N08149725WA008990097500510048
B1748582829169N08149695WA008950097100610041
B1749032829131N08149659WA008920096800510042
B1749082829099N08149617WA008980097100510041
B1749132829081N08149573WA009110098300610037
B1749182829094N08149551WA009190099400910038
B1749232829097N08149582WA009300100400710043
B1749282829056N08149610WA009360101200710039
B1749332829007N08149587WA009410101800810039
B1749382828996N08149540WA009480102500610044
B1749432829009N08149509WA009560103200810044
B1749482829021N08149525WA009610103800610037
B1749532828989N08149560WA009640104200810042
B1749582828938N08149541WA009740104801310048
B1750032828927N08149497WA009810105700810039
B1750082828949N08149487WA009820106000810043
B1750132828950N08149521WA009790106001010045
B1750182828903N08149543WA009790106001010041
B1750232828852N08149518WA009830106400710037
B1750282828833N08149469WA009870106800910045
B1750332828847N08149432WA009870106700610047
B1750382828869N08149406WA009840106600510048
B1750432828892N08149392WA009780106200710042
B1750482828918N08149380WA009670105300610047
B1750532828941N08149361WA009630104700610045
B1750582828958N08149336WA009590104200610046
B1751032828976N08149318WA009600104100510040
B1751082828996N08149303WA009580103900410046
B1751132829020N08149298WA009580103800410044
B1751182829045N08149303WA009550103600510043
B1751232829061N08149322WA009510103200410042
B1751282829059N08149359WA009470102800310039
B1751332829027N08149396WA009460102501210040
B1751382828976N08149380WA009480102600810043
B1751432828955N08149340WA009430102400510041
B1751482828951N08149295WA009370101900610046
B1751532828957N08149260WA009280101000610041
B1751582828964N08149221WA009160099700410047
B1752032828961N08149181WA009070098700410042
B1752082828947N08149142WA008940097500410045
B1752132828929N08149100WA008820096200410046
B1752182828911N08149055WA008740095300410046
B1752232828885N08149007WA008660094600510046
B1752282828856N08148961WA008550093500410044
B1752332828838N08148923WA008410092400410033
B1752382828816N08148876WA008220090700610048
B1752432828784N08148829WA008050088700510044
B1752482828757N08148785WA007920087100610042
B1752532828729N08148739WA007780085600510046
B1752582828698N08148695WA007630084100410044
B1753032828659N08148656WA007500082700510047
B1753082828621N08148618WA007430081700710044
B1753132828585N08148582WA007330080700510044
B1753182828551N08148544WA007260079700610045
B1753232828516N08148506WA007170079000610049
B1753282828486N08148471WA007050078000410042
B1753332828454N08148433WA006950076900410045
B1753382828417N08148398WA006840075700610047
B1753432828386N08148364WA006730074500610041
B1753482828355N08148325WA006600073100310046
B1753532828323N08148289WA006510072000510041
B1753582828280N08148263WA006350070700410044
B1754032828235N08148241WA006240069600410040
B1754082828201N08148207WA006110068300410040
B1754132828175N08148167WA006010067200410041
B1754182828142N08148132WA005940066400610041
B1754232828100N08148104WA005880065800510044
B1754282828056N08148076WA005880065500510046
B1754332828016N08148051WA005940065900710040
B1754382827987N08148022WA005940066100410040
B1754432827987N08147989WA005950066200810041
B1754482828004N08148000WA005980066400810042
B1754532827997N08148042WA005990066700510041
B1754582827950N08148077WA005970066500910047
B1755032827902N08148063WA006020066800910040
B1755082827886N08148024WA006010067000510041
B1755132827897N08147994WA005990066900710044
B1755182827920N08147977WA006000067000710043
B1755232827944N08147969WA005990067000610040
B1755282827972N08147975WA006070067200610049
B1755332827987N08148002WA006090067600710039
B1755382827949N08148043WA006030067701210051
B1755432827911N08148009WA006020067500810045
B1755482827921N08147981WA006040067601010047
B1755532827938N08147962WA006060067700610047
B1755582827957N08147942WA006120068000610044
B1756032827980N08147931WA006170068500610048
B1756082828004N08147954WA006280069101010044
B1756132827991N08147998WA006280069601110039
B1756182827939N08148007WA006180069501110041
B1756232827914N08147969WA006190069300710041
B1756282827931N08147939WA006260069701210044
B1756332827957N08147924WA006340070200610042
B1756382827984N08147937WA006470071000810045
B1756432827967N08147983WA006510072000810040
B1756482827917N08147967WA006510072201110050
B1756532827924N08147923WA006620072801110048
B1756582827945N08147896WA006740073800810048
B1757032827978N08147909WA006810074901010043
B1757082827985N08147946WA006710074800810043
F175713031416222326272932
B1757132827939N08147959WA006600074201009046
F17571803141622232627293132
B1757182827907N08147922WA006720074600810049
B1757232827914N08147892WA006780075001010037
B1757282827934N08147910WA006690074800810037
B1757332827904N08147947WA006580074200910045
B1757382827852N08147932WA006610073701010052
B1757432827828N08147893WA006670074000710048
B1757482827831N08147851WA006750074600710047
B1757532827852N08147845WA006800075101010043
B1757582827848N08147884WA006770075100810042
B1758032827806N08147914WA006730074800710040
B1758082827757N08147909WA006820074801010043
B1758132827740N08147868WA006850075300610045
B1758182827750N08147834WA006980076400910044
B1758232827769N08147830WA007080077500710042
B1758282827774N08147864WA007120078300610042
B1758332827734N08147887WA007160078900910038
B1758382827691N08147861WA007260079900910048
B1758432827692N08147830WA007350080800910038
B1758482827716N08147844WA007410081501110036
B1758532827697N08147883WA007470082200910041
B1758582827647N08147883WA007550082900810041
B1759032827618N08147848WA007640084000710046
B1759082827638N08147833WA007710084701110044
B1759132827647N08147876WA007760085300810045
B1759182827599N08147892WA007750085601110047
B1759232827577N08147854WA007850086200810049
B1759282827602N08147852WA007930086501210044
B1759332827590N08147900WA007930087001110045
B1759382827539N08147902WA007930087201610055
B1759432827521N08147864WA008010087900610042
B1759482827540N08147853WA008070088201210042
B1759532827543N08147898WA008120088501210046
B1759582827495N08147919WA008070088501010047
B1800032827471N08147889WA008100088801210046
B1800082827484N08147860WA008150089200710045
B1800132827504N08147839WA008200089600810045
F180018031622232627293132
B1800182827530N08147841WA008260090101209045
F18002303141622232627293132
B1800232827528N08147880WA008250090300910043
B1800282827479N08147892WA008210090101210050
B1800332827449N08147854WA008280090500510048
B1800382827460N08147827WA008340091101010043
B1800432827480N08147851WA008360091300910042
B1800482827450N08147888WA008370091500710040
B1800532827400N08147894WA008450092300810042
B1800582827371N08147863WA008510093000610040
B1801032827383N08147840WA008530093100910039
B1801082827403N08147864WA008540093200810042
B1801132827369N08147903WA008550093301210056
B1801182827322N08147876WA008590093800910048
B1801232827311N08147840WA008580094000610042
B1801282827315N08147802WA008560093900510046
B1801332827337N08147780WA008580094000810045
B1801382827360N08147798WA008630094300710043
B1801432827351N08147845WA008700094800610045
B1801482827307N08147866WA008760095400910033
B1801532827263N08147834WA008800095801010042
B1801582827277N08147798WA008760096001110048
B1802032827306N08147784WA008780096100710046
B1802082827334N08147788WA008850096400710043
B1802132827340N08147823WA008890096900510037
B1802182827302N08147852WA008920097201110046
B1802232827262N08147824WA008960097700610041
B1802282827259N08147789WA009020098300610039
B1802332827280N08147786WA009080098801110037
B1802382827285N08147823WA009150099101010037
B1802432827240N08147840WA009250099800910041
B1802482827206N08147812WA009320100700710039
B1802532827211N08147780WA009350101400810043
B1802582827236N08147773WA009400101600810043
B1803032827254N08147800WA009470102300610041
B1803082827236N08147839WA009500102800510043
B1803132827189N08147843WA009500103200710044
B1803182827156N08147812WA009590103900710045
B1803232827167N08147783WA009620104400810038
B1803282827196N08147785WA009690104800910041
B1803332827218N08147776WA009730105000710041
B1803382827239N08147769WA009740105300810039
B1803432827258N08147787WA009730105501010043
B1803482827231N08147827WA009750105700810042
B1803532827179N08147808WA009720105700910045
B1803582827165N08147765WA009720105700510043
B1804032827177N08147725WA009710105500710046
B1804082827192N08147689WA009720105500510045
B1804132827219N08147674WA009730105501010044
B1804182827227N08147708WA009770105901010043
B1804232827187N08147726WA009820106300910047
B1804282827155N08147688WA009890106900610042
B1804332827163N08147646WA009930107300810044
B1804382827188N08147637WA009950107700710038
B1804432827210N08147655WA009930107800610040
B1804482827211N08147693WA009780107000710046
B1804532827162N08147704WA009700106201310049
B1804582827124N08147661WA009720105901110045
B1805032827107N08147613WA009730105900510046
B1805082827100N08147571WA009730105900610036
B1805132827115N08147540WA009710105700810042
B1805182827136N08147546WA009600105300910042
B1805232827133N08147589WA009460104101010040
B1805282827094N08147619WA009360102900610045
B1805332827049N08147637WA009350102300710045
B1805382827002N08147639WA009320101900510043
B1805432826953N08147630WA009320101600410043
B1805482826905N08147626WA009320101600310043
B1805532826859N08147621WA009290101500310041
B1805582826813N08147613WA009270101300310045
F180603031416222326273132
B1806032826768N08147598WA009280101200509042
B1806082826724N08147579WA009280101100609043
B1806132826687N08147548WA009210101000409042
B1806182826651N08147518WA009140100200409039
B1806232826612N08147496WA008990099100709042
B1806282826564N08147490WA008780096900609047
B1806332826514N08147496WA008640095100609046
B1806382826466N08147511WA008500093300509049
B1806432826422N08147535WA008360091600509045
B1806482826383N08147565WA008280090500709040
B1806532826350N08147600WA008210089800509041
B1806582826319N08147639WA008180089500709044
B1807032826292N08147683WA008170089300409043
B1807082826261N08147726WA008180089500509045
B1807132826233N08147765WA008230089900409044
B1807182826205N08147801WA008330090700509041
B1807232826165N08147815WA008420091600609041
B1807282826148N08147781WA008450092301009043
B1807332826152N08147751WA008440092500709039
B1807382826179N08147746WA008470092600809045
B1807432826192N08147783WA008490092800809039
B1807482826171N08147832WA008550093200509046
B1807532826133N08147862WA008690094000609044
B1807582826113N08147831WA008680094601609054
B1808032826146N08147833WA008790095001009049
B1808082826150N08147879WA008850096000809042
B1808132826129N08147925WA008970097500809044
B1808182826085N08147941WA009060098501009044
B1808232826059N08147906WA009150099501409047
B1808282826082N08147879WA009220100201209040
F1808330316222326273132
B1808332826105N08147913WA009250100401308057
F180838031416222326273132
B1808382826091N08147963WA009390101700809040
B1808432826049N08147984WA009510103000709041
B1808482826015N08147957WA009630104101509043
B1808532826030N08147927WA009740105301109043
B1808582826050N08147952WA009860106401209042
B1809032826037N08147998WA009970107700709041
B1809082825998N08148021WA010080108800809041
B1809132825962N08147996WA010180110101209042
B1809182825960N08147956WA010300111401009041
B1809232825987N08147954WA010410112400909048
B1809282825979N08147994WA010460113201109047
B1809332825933N08148004WA010600114501209043
B1809382825915N08147961WA010710115301209046
B1809432825938N08147942WA010790116201009041
B1809482825955N08147977WA010840116800909043
B1809532825934N08148019WA010930117600809040
B1809582825889N08148016WA011000118401009047
B1810032825869N08147973WA011050118900909043
B1810082825885N08147938WA011110119300909049
B1810132825909N08147962WA011140119701109042
B1810182825907N08148012WA011180120200609048
B1810232825888N08148057WA011250120700609041
F1810280316222326273132
B1810282825844N08148071WA011300121400808042
F181033031416222326273132
B1810332825798N08148055WA011450122800609045
B1810382825767N08148025WA011530123801009042
B1810432825775N08147993WA011630124900909038
B1810482825797N08148009WA011740125901209046
B1810532825775N08148052WA011850127101009042
B1810582825730N08148066WA011960128300609045
B1811032825685N08148054WA012080129600709044
B1811082825665N08148016WA012230130900909041
B1811132825681N08147997WA012330132000909040
B1811182825689N08148034WA012400132901309044
B1811232825654N08148065WA012540134200609043
B1811282825607N08148059WA012650135600609038
F18113303081416222326273132
B1811332825578N08148021WA012760136701010047
B1811382825588N08147989WA012840137700610044
B1811432825612N08147995WA012930138500610042
B1811482825613N08148033WA013010139200710043
B1811532825576N08148061WA013130140300810043
B1811582825527N08148045WA013170141100810051
B1812032825482N08148018WA013240141900610047
B1812082825436N08147995WA013310142700810044
B1812132825394N08147969WA013360143300510043
B1812182825349N08147957WA013380143600810046
B1812232825305N08147981WA013300143500810048
B1812282825305N08148023WA013140142901110054
B1812332825335N08148009WA013040142000810050
B1812382825338N08147958WA013030141000710050
B1812432825335N08147909WA013120140800610049
B1812482825341N08147863WA013120140600510051
B1812532825336N08147815WA013090140500810047
B1812582825297N08147778WA013030140401210050
B1813032825246N08147782WA012990139701410049
B1813082825208N08147810WA013010139800610049
B1813132825183N08147844WA013000139700510044
B1813182825188N08147879WA013010139501010050
B1813232825222N08147873WA013020139501210050
B1813282825234N08147827WA013000139401310048
B1813332825230N08147772WA013040139700510045
B1813382825223N08147724WA012980139500910044
B1813432825197N08147682WA012880138900910044
B1813482825154N08147657WA012730137700910044
B1813532825103N08147659WA012630136300810047
B1813582825071N08147690WA012550135500710046
B1814032825060N08147735WA012460134600610052
B1814082825074N08147760WA012400133800610042
B1814132825097N08147733WA012340133301010049
B1814182825087N08147682WA012280132801110042
B1814232825076N08147638WA012210132100510037
B1814282825061N08147588WA012040131300610047
B1814332825052N08147537WA011990130300410044
B1814382825048N08147492WA011930129500610042
B1814432825035N08147447WA011850128800510046
B1814482825013N08147399WA011710127700610049
B1814532824988N08147357WA011620126600810044
B1814582824973N08147319WA011520125300410041
B1815032824960N08147281WA011400123900410042
B1815082824951N08147242WA011290122600410043
B1815132824945N08147206WA011180121400410040
B1815182824932N08147168WA011050120000410046
B1815232824919N08147130WA010940118900410041
B1815282824917N08147096WA010850117900410042
B1815332824919N08147065WA010780117100810038
B1815382824914N08147030WA010680116200410046
B1815432824907N08146994WA010640115600410044
B1815482824902N08146961WA010560115100410038
B1815532824895N08146926WA010460114300510040
B1815582824875N08146887WA010350113400810044
B1816032824865N08146849WA010260112300410041
B1816082824863N08146812WA010160111200610042
B1816132824856N08146774WA010120110500510040
B1816182824847N08146735WA010040109600410043
F1816230308091416222326273132
B1816232824846N08146697WA009960108800511039
B1816282824841N08146657WA009880107900311045
B1816332824829N08146617WA009800107100311045
B1816382824819N08146579WA009710106200311043
B1816432824812N08146542WA009580105000311044
B1816482824804N08146504WA009470103900311044
B1816532824796N08146466WA009370102900311043
B1816582824786N08146425WA009280101800411046
B1817032824781N08146388WA009180100900411042
B1817082824767N08146350WA009100099800511044
B1817132824745N08146313WA009040099000511044
B1817182824723N08146274WA008960098300411045
B1817232824705N08146236WA008900097800411041
B1817282824689N08146197WA008790096900411045
B1817332824678N08146156WA008700095900311044
B1817382824672N08146116WA008630095200311042
B1817432824666N08146074WA008540094400511043
B1817482824664N08146031WA008440093300311044
B1817532824665N08145989WA008330092200411040
F18175803080914222326273132
B1817582824663N08145951WA008330091600510036
F1818030308091416222326273132
B1818032824652N08145916WA008200090800611039
B1818082824631N08145875WA008130089800611050
B1818132824629N08145836WA008100089200411042
B1818182824643N08145800WA008010088500511048
B1818232824660N08145768WA007970087900411045
B1818282824686N08145754WA007910087300511045
B1818332824716N08145749WA007900086800511047
B1818382824743N08145739WA007950087000611052
B1818432824765N08145739WA007970087200511047
B1818482824782N08145715WA008000087200611052
B1818532824777N08145674WA008000087500511045
B1818582824756N08145633WA007970087500511044
B1819032824708N08145613WA007920087300911048
B1819082824657N08145638WA007890086701111053
B1819132824633N08145675WA007920086900511047
B1819182824624N08145717WA007920086900411047
B1819232824626N08145758WA007930087000411047
B1819282824634N08145795WA007950087100411046
B1819332824649N08145823WA007950087100311050
B1819382824671N08145829WA007880087000511046
B1819432824690N08145814WA007800086500411045
B1819482824685N08145781WA007730086100511045
B1819532824642N08145758WA007630085500711049
B1819582824592N08145748WA007640084800511045
B1820032824541N08145743WA007600084200511048
B1820082824493N08145750WA007590083700811046
B1820132824451N08145772WA007570083300611047
B1820182824427N08145809WA007510082900411044
B1820232824427N08145849WA007420082200511047
B1820282824445N08145872WA007340081300411042
B1820332824472N08145861WA007270080500611050
B1820382824491N08145835WA007230080000511043
B1820432824503N08145803WA007190079600311043
B1820482824512N08145764WA007130079000411046
B1820532824526N08145730WA007060078400511044
B1820582824538N08145698WA007050078000311046
B1821032824548N08145666WA007070077900511049
B1821082824563N08145642WA007000077700511045
B1821132824582N08145619WA006930077200411047
B1821182824589N08145583WA006880076800411046
B1821232824565N08145543WA006790076500911048
B1821282824516N08145547WA006680075201111047
B1821332824489N08145589WA006570073800811046
B1821382824502N08145631WA006510072700611048
B1821432824526N08145656WA006490072100411048
B1821482824547N08145677WA006370071400511041
B1821532824575N08145671WA006270070600611052
B1821582824591N08145638WA006240070000911044
B1822032824590N08145601WA006160069600411040
B1822082824569N08145558WA006040068800511048
B1822132824539N08145525WA005970068000611039
B1822182824491N08145521WA005850066801011047
B1822232824446N08145546WA005790065800611047
B1822282824401N08145572WA005720064900711045
B1822332824354N08145597WA005660064200611048
B1822382824311N08145630WA005650063800611048
B1822432824275N08145670WA005610063600411045
B1822482824247N08145710WA005610063400411042
B1822532824246N08145753WA005520062800511049
B1822582824273N08145765WA005450062301011051
B1823032824293N08145733WA005370061500811048
B1823082824308N08145700WA005290060400611047
B1823132824315N08145664WA005240059800411043
B1823182824313N08145623WA005160059300511046
B1823232824307N08145579WA005100058700311048
B1823282824304N08145537WA005070058300511048
B1823332824291N08145494WA005030058000511046
B1823382824259N08145460WA004930057200711042
B1823432824219N08145433WA004850056100911047
B1823482824173N08145456WA004780054900811051
B1823532824167N08145500WA004670054000811046
B1823582824190N08145518WA004550052900911046
B1824032824215N08145506WA004450051700511048
B1824082824221N08145467WA004370050900511046
B1824132824195N08145424WA004340050501011047
B1824182824145N08145417WA004300050200711044
B1824232824113N08145455WA004270049500811053
B1824282824103N08145495WA004180048700511045
B1824332824117N08145523WA004110048000711051
B1824382824143N08145496WA004000047300911050
B1824432824158N08145458WA003980046701011045
B1824482824178N08145431WA003990046800411047
B1824532824202N08145406WA003940046400411044
B1824582824228N08145383WA003840045600511047
B1825032824253N08145365WA003750044600611044
B1825082824280N08145348WA003590043300411049
B1825132824310N08145341WA003470041700411047
B1825182824339N08145344WA003340040400411048
B1825232824370N08145345WA003200038800411051
B1825282824401N08145346WA003140037800511046
B1825332824430N08145358WA003050036700311049
B1825382824458N08145376WA002960035700311046
B1825432824477N08145409WA002920035200611045
B1825482824485N08145448WA002850034700411043
B1825532824489N08145492WA002820034200311046
B1825582824491N08145534WA002860034400611050
B1826032824511N08145569WA002960035000511052
B1826082824524N08145599WA003010035900611039
B1826132824490N08145621WA003000036200811047
B1826182824457N08145580WA002920035700811047
B1826232824465N08145531WA002950035600811048
B1826282824490N08145504WA003030036200511050
B1826332824515N08145502WA003100036900511040
B1826382824518N08145535WA003170037600511043
B1826432824488N08145562WA003230038200611044
B1826482824451N08145536WA003290038600911046
B1826532824456N08145497WA003350039500811036
B1826582824484N08145491WA003370040100511047
B1827032824512N08145499WA003400040500511044
B1827082824540N08145519WA003470041100411049
B1827132824564N08145534WA003520041600411039
B1827182824578N08145562WA003630042400911042
B1827232824552N08145593WA003700043200611044
B1827282824502N08145575WA003780043801211051
B1827332824502N08145531WA003830044600811043
B1827382824536N08145525WA003900045100711051
B1827432824553N08145540WA004040046500511042
B1827482824536N08145573WA004090047400511038
B1827532824497N08145604WA004180048200511043
B1827582824448N08145594WA004280049200911041
B1828032824449N08145550WA004290049700711045
B1828082824474N08145554WA004420050700911045
B1828132824478N08145590WA004480051500611046
B1828182824447N08145621WA004520051900511040
B1828232824399N08145596WA004520052001111057
B1828282824416N08145560WA004630052600711046
B1828332824442N08145542WA004720053400511049
B1828382824464N08145548WA004770054100511042
B1828432824453N08145586WA004780054400611046
B1828482824405N08145590WA004770054500911044
B1828532824390N08145546WA004880055200911047
B1828582824409N08145511WA005010056200511047
B1829032824436N08145502WA005060057000511050
B1829082824430N08145537WA005060057400911049
B1829132824379N08145537WA005030057401011050
B1829182824373N08145488WA005130058000911046
B1829232824393N08145457WA005180058500411047
B1829282824420N08145444WA005210058900511047
B1829332824445N08145459WA005200059200411043
F18293803080914162326273132
B1829382824472N08145478WA005230059400410049
F1829430308091416222326273132
B1829432824498N08145494WA005300059900511050
B1829482824525N08145503WA005240059800511051
B1829532824531N08145541WA005100058800911049
B1829582824484N08145577WA005100058200611053
B1830032824430N08145573WA005180058900511042
B1830082824394N08145541WA005240059400611042
B1830132824398N08145505WA005330060100611036
B1830182824422N08145518WA005380060600811044
B1830232824410N08145556WA005420061200511035
B1830282824364N08145571WA005480061800511041
B1830332824321N08145553WA005530062600711035
B1830382824316N08145504WA005500062601011050
B1830432824352N08145507WA005580062900711038
B1830482824366N08145541WA005610063200511042
B1830532824348N08145584WA005640063400411046
B1830582824302N08145594WA005700063900711045
B1831032824280N08145552WA005740064400811039
B1831082824294N08145525WA005780064800511030
B1831132824315N08145535WA005770064800911039
B1831182824312N08145581WA005710064400611041
B1831232824279N08145622WA005820064600711042
B1831282824233N08145621WA005900065400511038
F18313303081416222326273132
B1831332824217N08145580WA005930066201010041
F1831380308091416222326273132
B1831382824243N08145585WA005920066501211044
B1831432824246N08145628WA005970067000811042
B1831482824239N08145668WA006020067500411037
B1831532824195N08145685WA005990067500711043
B1831582824164N08145647WA006050067801211041
B1832032824172N08145612WA006170068500711036
B1832082824197N08145615WA006230069000611037
B1832132824194N08145654WA006270069600711043
B1832182824147N08145670WA006310070000611040
B1832232824102N08145651WA006410070900711040
B1832282824087N08145613WA006560072500711039
B1832332824106N08145610WA006580073301111043
B1832382824105N08145656WA006620073600811040
B1832432824059N08145676WA006690074000611044
B1832482824020N08145646WA006750074700711045
B1832532824012N08145607WA006870075600611039
B1832582824031N08145583WA006910076100511038
F18330303080916222326273132
B1833032824051N08145597WA006940076401210042
B1833082824023N08145645WA006980076800710044
B1833132823977N08145647WA007070077900910038
B1833182823945N08145614WA007150078900510041
B1833232823951N08145584WA007180079600710037
B1833282823979N08145604WA007220079900710044
B1833332823965N08145651WA007250080101010037
B1833382823914N08145660WA007320080301010046
B1833432823887N08145626WA007380081100710039
B1833482823901N08145591WA007450081600610043
B1833532823927N08145606WA007480082101010041
B1833582823896N08145651WA007530082501010044
B1834032823849N08145633WA007600083401010041
B1834082823836N08145592WA007640083800910045
B1834132823857N08145563WA007730084500710042
B1834182823888N08145554WA007870085400510043
B1834232823896N08145589WA007860086000710043
B1834282823845N08145619WA007880086400910048
B1834332823815N08145578WA007980087100910041
B1834382823811N08145530WA008080088100710043
B1834432823824N08145490WA008160088900610040
B1834482823853N08145487WA008140089200710042
B1834532823851N08145530WA007970088501410048
F183458030809162223273132
B1834582823798N08145536WA007880087701409042
F18350303080916222326273132
B1835032823778N08145489WA007880087300710041
B1835082823777N08145446WA007910087100610038
B1835132823777N08145403WA007830086700710042
B1835182823790N08145371WA007660085600610040
B1835232823811N08145401WA007500083901410043
B1835282823777N08145434WA007350082100910036
B1835332823733N08145427WA007210080500610035
B1835382823708N08145387WA007050078800810040
B1835432823696N08145341WA006910077300610044
B1835482823699N08145301WA006810076000510038
B1835532823717N08145276WA006640074300510039
B1835582823738N08145251WA006500072700410039
B1836032823754N08145213WA006370071300410041
B1836082823766N08145172WA006310070200310036
B1836132823770N08145128WA006250069400410040
B1836182823775N08145083WA006150068700510042
B1836232823779N08145038WA006110068300510043
B1836282823770N08144992WA006080068000410042
B1836332823751N08144944WA006030067600410046
B1836382823732N08144896WA005940067300710041
B1836432823715N08144847WA005830066500610040
B1836482823700N08144803WA005690065500610037
B1836532823682N08144757WA005580064400710041
B1836582823656N08144712WA005520063100610041
F183703030816222326273132
B1837032823638N08144665WA005460062300609037
F18370803080916222326273132
B1837082823622N08144616WA005390061700410039
B1837132823597N08144572WA005340060800510039
B1837182823571N08144527WA005230060000510040
B1837232823546N08144481WA005140059200510041
B1837282823521N08144436WA005100058600510038
B1837332823482N08144398WA005060058000510041
B1837382823441N08144365WA005060057700510039
B1837432823408N08144326WA005060057600510034
B1837482823376N08144291WA005030057400610035
B1837532823349N08144257WA004980056900410034
B1837582823315N08144227WA004980056600310041
B1838032823277N08144212WA004990056700510043
B1838082823239N08144211WA005010056900710034
B1838132823196N08144207WA004980057000710039
B1838182823179N08144168WA005050057101010041
B1838232823201N08144147WA005140057800510037
B1838282823230N08144165WA005240058500910042
B1838332823226N08144205WA005280059400810037
B1838382823179N08144204WA005240059401210049
B1838432823159N08144155WA005280059500810045
B1838482823167N08144109WA005370060000510043
B1838532823196N08144080WA005500060800510044
B1838582823227N08144087WA005520061500910039
B1839032823211N08144134WA005530061801110045
B1839082823166N08144141WA005690062700710044
B1839132823151N08144103WA005760063901210043
B1839182823192N08144107WA005860064901510049
B1839232823172N08144154WA005960066301010046
B1839282823132N08144136WA006060067201510044
B1839332823149N08144097WA006150068401010045
B1839382823181N08144115WA006290069801410043
B1839432823160N08144154WA006430071100810043
B1839482823115N08144139WA006530072200910042
B1839532823117N08144097WA006670073501010041
F183958030809162223262731
B1839582823149N08144099WA006800074801209037
B1840032823146N08144143WA006930076000909047
B1840082823104N08144151WA007020077101209040
B1840132823081N08144113WA007120078201309041
F1840180809162223262731
B1840182823109N08144092WA007270079401108045
F184023030809162223262731
B1840232823116N08144130WA007400080701209042
B1840282823069N08144136WA007490082001409045
B1840332823066N08144088WA007660083601109040
B1840382823100N08144090WA007850085101209041
B1840432823084N08144134WA007970086701209048
B1840482823040N08144124WA008090088301009043
B1840532823049N08144083WA008230089801109045
B1840582823080N08144104WA008400091301209041
B1841032823057N08144148WA008590093201009041
B1841082823019N08144120WA008730094901109043
B1841132823039N08144091WA008900096701109043
B1841182823063N08144122WA009080098401509046
B1841232823029N08144152WA009260100301309041
B1841282823000N08144120WA009430102401209038
B1841332823020N08144090WA009570103901109045
B1841382823053N08144108WA009790106001109042
B1841432823034N08144153WA009950107601109050
B1841482822994N08144137WA010150109501309041
B1841532823007N08144098WA010280111301109047
B1841582823042N08144104WA010530113500809042
B1842032823039N08144148WA010720115701209046
B1842082822995N08144165WA010790117101109043
B1842132822975N08144123WA010980118701109044
B1842182823004N08144105WA011160120400909047
B1842232823027N08144139WA011320121900909041
B1842282822998N08144175WA011440123201009045
B1842332822960N08144146WA011510124101209046
B1842382822974N08144104WA011720125801109041
B1842432823009N08144094WA011900127400909041
B1842482823019N08144131WA012070129301509042
B1842532822975N08144148WA012310131301209041
B1842582822948N08144120WA012410133201509038
B1843032822954N08144073WA012600135100909039
B1843082822975N08144049WA012690136401009042
B1843132823013N08144055WA012780137400809043
B1843182823048N08144074WA012840137701009041
B1843232823040N08144125WA012930138301509050
B1843282822996N08144127WA013120139500909042
B1843332822970N08144094WA013230141101309040
B1843382822993N08144066WA013280141801309044
B1843432823020N08144098WA013360142501209040
B1843482822994N08144139WA013530143701109045
B1843532822958N08144116WA013720145501309041
B1843582822966N08144079WA013780146400909045
B1844032823005N08144081WA013810147000909047
B1844082823016N08144118WA013930147901209046
B1844132822981N08144151WA013920148300909042
B1844182822939N08144144WA014070149301109038
B1844232822924N08144104WA014190150400809043
B1844282822933N08144067WA014310151400709040
B1844332822960N08144044WA014410152800709042
B1844382822991N08144065WA014400153001109046
B1844432822972N08144109WA014400153501209041
B1844482822927N08144104WA014480154001009046
B1844532822914N08144059WA014590154900709037
B1844582822915N08144015WA014580155200609029
B1845032822922N08143964WA014700155900709043
B1845082822936N08143925WA014790156600709037
B1845132822942N08143882WA014890157600609034
B1845182822932N08143841WA014900158100609041
B1845232822932N08143795WA014930158600609041
B1845282822936N08143754WA014920158800509039
B1845332822940N08143708WA014880158600509041
B1845382822944N08143662WA014750158200709043
B1845432822963N08143639WA014670157400709033
B1845482822985N08143608WA014620156701009039
B1845532822982N08143552WA014530156100609045
B1845582822969N08143502WA014510155700809033
B1846032822949N08143452WA014330154501009052
B1846082822924N08143404WA014230153100709038
B1846132822900N08143359WA014070151700609043
B1846182822874N08143314WA013930150300809042
B1846232822847N08143270WA013810148500709038
B1846282822820N08143223WA013670146700609044
B1846332822780N08143184WA013510145100909041
B1846382822751N08143133WA013390143500809043
B1846432822731N08143079WA013300142300609046
B1846482822712N08143033WA013210141300509045
B1846532822695N08142989WA013150140500609044
B1846582822683N08142946WA012980139400509042
B1847032822660N08142901WA012770137900709046
B1847082822623N08142867WA012590135700709043
B1847132822585N08142823WA012520133900809050
B1847182822553N08142781WA012430132800609045
B1847232822529N08142732WA012330131800609049
B1847282822508N08142685WA012250131000609044
B1847332822492N08142640WA012110130000709048
B1847382822477N08142600WA011950128600509047
B1847432822456N08142558WA011740127200709053
B1847482822430N08142513WA011620125700609050
B1847532822411N08142466WA011510124400509048
B1847582822391N08142421WA011370123300609050
B1848032822371N08142373WA011270122200609052
B1848082822355N08142328WA011210121200509049
B1848132822339N08142281WA011140120200609053
B1848182822321N08142240WA011030119200609050
B1848232822311N08142200WA010930118400509045
B1848282822305N08142164WA010820117300509044
B1848332822298N08142126WA010680116300509045
B1848382822281N08142083WA010560115500609050
B1848432822266N08142038WA010440114500609053
B1848482822257N08141994WA010360112800609049
B1848532822243N08141954WA010350112000609043
B1848582822221N08141913WA010340111400609050
B1849032822211N08141869WA010320111100609051
B1849082822206N08141829WA010280110900409047
B1849132822191N08141789WA010180110400509049
B1849182822171N08141747WA010060109800609047
B1849232822163N08141702WA009900108900609048
B1849282822156N08141657WA009750107400409048
B1849332822138N08141609WA009620105800709050
B1849382822119N08141564WA009490104200509048
B1849432822107N08141520WA009350102300709046
F1849480308092223262731
B1849482822095N08141479WA009230100800408039
F184953030809162223262731
B1849532822073N08141437WA009070099500609048
B1849582822047N08141396WA008920098100609046
B1850032822023N08141355WA008800096900609046
B1850082822009N08141314WA008690095300509045
B1850132821991N08141274WA008580094200409046
B1850182821961N08141236WA008530093300609049
B1850232821935N08141198WA008470092700609046
B1850282821919N08141157WA008410092100509046
B1850332821893N08141117WA008360091600609048
B1850382821850N08141085WA008320091100809051
B1850432821814N08141053WA008310090900609045
B1850482821781N08141018WA008300090700609045
B1850532821752N08140976WA008270090500509044
B1850582821721N08140933WA008240090200709049
B1851032821678N08140902WA008200089800709048
B1851082821629N08140879WA008190089700609047
B1851132821594N08140851WA008220089700609038
B1851182821562N08140814WA008030089100609049
B1851232821527N08140767WA007930088100609051
B1851282821499N08140720WA007800087100709049
B1851332821466N08140673WA007670085500509052
B1851382821440N08140627WA007580084400609048
B1851432821418N08140578WA007480083300709050
B1851472821400N08140544WA007420082400509046
B1851482821394N08140536WA007410082200609044
B1851492821388N08140529WA007390082100609044
E185150TPC
B1851502821381N08140521WA007370081900509045
B1851512821372N08140514WA007350081700609049
B1851522821363N08140508WA007330081500809049
B1851532821353N08140504WA007290081201009048
B1851542821342N08140500WA007250080800609048
B1851552821331N08140497WA007210080500609050
B1851582821294N08140496WA007120079100809050
B1852032821245N08140523WA006970077300909050
B1852082821229N08140571WA006860075701009053
B1852132821229N08140612WA006780074700609048
B1852182821244N08140647WA006680073600709054
B1852232821260N08140672WA006580072900609047
B1852282821284N08140689WA006440071700509048
B1852332821308N08140682WA006290070300609047
B1852382821295N08140635WA006150068901209053
B1852432821248N08140602WA006030067600909049
B1852482821192N08140583WA005930066300709049
B1852532821144N08140569WA005860065600709039
B1852582821094N08140559WA005700064400709045
B1853032821042N08140553WA005580063400609043
B1853082820991N08140548WA005460062000409044
B1853132820940N08140542WA005310060500609047
B1853182820893N08140532WA005190059200509047
B1853232820849N08140518WA005100058200509043
B1853282820805N08140496WA005110057500509051
B1853332820758N08140482WA005100057400609046
B1853382820709N08140462WA005100057300509041
B1853432820664N08140431WA005100057300809047
B1853482820611N08140425WA005120057400709050
B1853532820560N08140442WA005170057800509051
B1853582820532N08140479WA005260058500909050
B1854032820548N08140510WA005310059100609052
B1854082820577N08140502WA005380060100909051
B1854132820584N08140462WA005440060901009049
B1854182820557N08140418WA005500061401109044
B1854232820505N08140399WA005530061701009053
B1854282820461N08140424WA005610062301009053
B1854332820446N08140464WA005650062900909048
B1854382820464N08140489WA005740063500709051
B1854432820494N08140476WA005820064300909053
B1854482820507N08140441WA005870065100709049
B1854532820497N08140395WA005870065500909048
B1854582820461N08140350WA005780065200809045
B1855032820405N08140335WA005790065001009050
B1855082820365N08140366WA005770064901109048
B1855132820365N08140418WA005790065000809051
B1855182820367N08140464WA005840065400909047
B1855232820387N08140496WA005950065900609050
B1855282820416N08140490WA006020066700909053
B1855332820426N08140453WA006060067600809045
B1855382820396N08140408WA006060067901409058
B1855432820344N08140420WA006080068101309048
B1855482820322N08140465WA006090068100909053
B1855532820326N08140510WA006170068600809047
B1855582820346N08140541WA006250069200609048
B1856032820377N08140537WA006280069600709054
B1856082820390N08140498WA006290070000809048
B1856132820379N08140448WA006260070100809046
B1856182820345N08140409WA006200069800809038
B1856232820310N08140373WA006230069700809042
B1856282820264N08140343WA006190069200609058
B1856332820216N08140328WA006210069200909055
B1856382820170N08140325WA006350069900609047
B1856432820127N08140316WA006510071100609044
B1856482820080N08140319WA006540071900809050
B1856532820062N08140367WA006630072600909054
B1856582820086N08140393WA006800073701409051
B1857032820108N08140359WA006890075101209052
B1857082820096N08140314WA006980076100909046
B1857132820056N08140291WA007110077700909050
B1857182820013N08140312WA007200078900909051
B1857232819993N08140363WA007310080000909049
B1857282820009N08140401WA007470081501109053
B1857332820039N08140379WA007570082701009055
B1857382820037N08140334WA007710083801309048
B1857432820002N08140302WA007850085200909055
B1857482819959N08140309WA007990087000709046
B1857532819932N08140351WA008170089000809051
B1857582819938N08140397WA008210090000909053
B1858032819976N08140402WA008350090901509054
B1858082819995N08140359WA008470092301009050
B1858132819985N08140312WA008670094001109048
B1858182819947N08140291WA008820095801109047
B1858232819917N08140322WA008970097500909053
B1858282819932N08140359WA009170099300809049
B1858332819968N08140354WA009340101100909054
B1858382819974N08140311WA009510103001009051
B1858432819934N08140282WA009630104601409047
B1858482819894N08140291WA009810106201109047
B1858532819887N08140337WA009860107001309066
B1858582819921N08140356WA010090108401009050
B1859032819950N08140324WA010220110001409051
B1859082819933N08140273WA010330111201309054
B1859132819884N08140262WA010390112101009051
B1859182819846N08140282WA010500113101009042
B1859232819825N08140320WA010550113800809050
B1859282819834N08140362WA010770115301109050
B1859332819867N08140365WA010850116200709051
B1859382819898N08140342WA011000117700909050
B1859432819893N08140290WA011080118901309056
B1859482819845N08140276WA011150120001009056
B1859532819810N08140308WA011180120400709054
B1859582819801N08140351WA011270121101009051
B1900032819811N08140390WA011390122000709053
B1900082819833N08140414WA011420122800609045
B1900132819866N08140396WA011280122601109056
B1900182819850N08140333WA011250122401409060
B1900232819800N08140338WA011320122301009050
B1900282819756N08140354WA011420122801009046
B1900332819709N08140367WA011530123400709048
B1900382819662N08140372WA011660124400709054
B1900432819615N08140391WA011800125900709053
B1900482819594N08140433WA012010127701109055
B1900532819618N08140459WA012180129801009054
B1900582819639N08140420WA012290131401309057
B1901032819607N08140384WA012450133001009045
B1901082819566N08140364WA012580134500809044
B1901132819518N08140359WA012700135900709047
B1901182819468N08140366WA012840137100709048
B1901232819418N08140372WA013030138700609043
B1901282819368N08140367WA013190140600509051
B1901332819324N08140391WA013320142100709049
B1901382819313N08140439WA013440143601209053
B1901432819340N08140464WA013670145300909053
B1901482819365N08140440WA013900147601009053
B1901532819350N08140389WA014130150101209061
B1901582819305N08140368WA014280152201209048
B1902032819257N08140371WA014310153000909049
B1902082819235N08140415WA014370153101309054
B1902132819248N08140456WA014540154500709050
B1902182819269N08140486WA014780156300509049
B1902232819297N08140486WA014940158200509048
B1902282819322N08140455WA015090160100609050
B1902332819314N08140400WA015290162001009055
B1902382819265N08140375WA015420163600909057
B1902432819218N08140394WA015520164700909049
B1902482819191N08140438WA015630165800809050
B1902532819189N08140481WA015760166900709048
B1902582819214N08140499WA015940168500709052
B1903032819240N08140483WA016100170300709047
B1903082819247N08140440WA016210171801209051
B1903132819210N08140399WA016340173000809048
B1903182819157N08140398WA016390173900609051
B1903232819121N08140435WA016450174700909051
B1903282819117N08140484WA016560175600809048
B1903332819132N08140518WA016690176700509049
B1903382819164N08140532WA016760177400409053
B1903432819195N08140519WA016800178000909050
B1903482819181N08140464WA016830178401109058
B1903532819126N08140458WA016990179301109054
B1903582819079N08140483WA017070180400709051
B1904032819040N08140525WA017180181200609057
B1904082819037N08140576WA017260182101309056
B1904132819069N08140581WA017240182400909055
B1904182819092N08140549WA017300182800709056
B1904232819075N08140500WA017380183301009057
B1904282819034N08140471WA017510184300709052
B1904332818980N08140475WA017660185800609056
F1904380308091622232631
B1904382818946N08140518WA017780187100908056
F190443030809162223262731
B1904432818952N08140562WA017860188200709046
B1904482818976N08140579WA017880188700609048
B1904532819002N08140559WA017920189101209056
B1904582818980N08140515WA017980189401309052
B1905032818935N08140488WA018070190301009052
B1905082818881N08140476WA018190191500709054
B1905132818829N08140493WA018270192500809052
B1905182818807N08140544WA018310192900909055
B1905232818823N08140581WA018380193600809051
B1905282818849N08140578WA018370193700709051
B1905332818852N08140538WA018420193901109056
B1905382818800N08140514WA018490194201109060
B1905432818743N08140519WA018540194800909050
B1905482818691N08140533WA018570195200709048
B1905532818648N08140575WA018580195400609057
B1905582818642N08140629WA018490195201009058
B1906032818668N08140652WA018470195000709052
B1906082818682N08140623WA018400194901209056
B1906132818642N08140582WA018390194301309059
B1906182818584N08140573WA018460194800809050
B1906232818528N08140574WA018490195100709043
B1906282818471N08140572WA018510195200609051
B1906332818418N08140557WA018550195400709048
B1906382818361N08140547WA018540195400709048
B1906432818303N08140534WA018500195300609047
B1906482818245N08140523WA018460194900709047
B1906532818185N08140507WA018300193600609053
B1906582818123N08140495WA018100191900609048
B1907032818063N08140484WA017860189600609046
B1907082817996N08140472WA017590186800609057
B1907132817943N08140458WA017490184700709041
B1907182817894N08140430WA017270182600809056
B1907232817834N08140409WA017190181500709052
B1907282817774N08140395WA017160180900609050
B1907332817714N08140382WA017120180500609052
B1907382817659N08140362WA017050179900509052
B1907432817606N08140338WA016970179300509054
B1907482817552N08140315WA016880178600609053
B1907532817496N08140288WA016790177800509051
B1907582817435N08140268WA016760177200509059
B1908032817377N08140254WA016650176400509053
B1908082817322N08140238WA016500175100509050
B1908132817268N08140219WA016390173700509050
B1908182817213N08140204WA016280172500409053
B1908232817162N08140189WA016240171500509049
B1908282817114N08140170WA016160170700409053
B1908332817072N08140143WA016060169900509052
B1908382817038N08140106WA015930168900609053
B1908432816999N08140067WA015740167900709053
B1908482816949N08140033WA015540165900709056
B1908532816896N08140004WA015390163900609052
B1908582816847N08139974WA015270162300409051
B1909032816796N08139945WA015120160900509054
B1909082816745N08139923WA015060159700609050
B1909132816692N08139904WA014950158700409054
B1909182816641N08139886WA014850157600509050
B1909232816588N08139873WA014730156300409052
B1909282816535N08139859WA014640155300509050
B1909332816483N08139845WA014550154500509051
B1909382816432N08139834WA014480153700509050
B1909432816382N08139820WA014420153000609050
B1909482816331N08139810WA014350152300409052
B1909532816277N08139805WA014280151600609049
B1909582816226N08139798WA014200151000609050
B1910032816178N08139791WA014120150300609046
B1910082816133N08139775WA014040149400409051
B1910132816085N08139762WA013950148500509050
B1910182816034N08139759WA013840147400409051
B1910232815986N08139754WA013760146600609049
B1910282815939N08139748WA013660145600409049
B1910332815889N08139743WA013530144600609053
B1910382815842N08139737WA013400143300509049
B1910432815794N08139735WA013260141900609052
B1910482815745N08139733WA013100140300609051
B1910532815697N08139734WA012920138600509054
B1910582815648N08139750WA012810137100609051
B1911032815599N08139746WA012770136100809053
B1911082815551N08139739WA012840136100709048
B1911132815505N08139726WA012880136600509048
B1911182815457N08139715WA012880136900709050
B1911232815409N08139712WA012840137000609047
B1911282815364N08139708WA012740136600709044
B1911332815311N08139697WA012670136000509052
B1911382815259N08139688WA012620135300709047
B1911432815209N08139678WA012600134900409043
B1911482815158N08139664WA012590134500509050
B1911532815110N08139651WA012600134500409041
B1911582815054N08139640WA012520133800609049
B1912032814999N08139628WA012350132800409046
B1912082814944N08139611WA012240131300609044
B1912132814889N08139588WA012050129700709052
B1912182814828N08139572WA011880127800609051
B1912232814769N08139554WA011730126300509049
B1912282814720N08139526WA011660125100609047
B1912332814669N08139503WA011610124200609049
B1912382814617N08139483WA011590123800409046
B1912432814567N08139459WA011540123300409049
B1912482814517N08139437WA011510123000609049
B1912532814467N08139413WA011440122600509050
B1912582814422N08139386WA011360122000509047
F1913030809162223262731
B1913032814374N08139360WA011240120900408050
F191308030809162223262731
B1913082814326N08139333WA011160120100509047
B1913132814281N08139303WA011040119000509047
B1913182814239N08139265WA010900117700509055
B1913232814201N08139230WA010810116600609047
B1913282814164N08139194WA010690115500509050
B1913332814128N08139156WA010550114200409050
B1913382814092N08139118WA010460113000509050
B1913432814057N08139080WA010360112000609050
B1913482814020N08139044WA010280111000509048
B1913532813979N08139014WA010200110300709051
B1913582813941N08138984WA010110109400509046
B1914032813900N08138953WA010000108300509050
B1914082813852N08138922WA009840106700609052
B1914132813808N08138889WA009730105500509050
B1914182813762N08138858WA009580103900609051
B1914232813714N08138829WA009440102400509051
B1914282813668N08138803WA009300101000509049
B1914332813622N08138777WA009150099600609050
B1914382813574N08138758WA009030098200409053
B1914432813532N08138736WA008910097000509045
B1914482813486N08138718WA008770095600609047
B1914532813435N08138711WA008700094700409046
B1914582813385N08138705WA008610093800409046
B1915032813333N08138691WA008530093100409048
B1915082813281N08138673WA008480092500609047
B1915132813233N08138644WA008470092200509044
B1915182813183N08138618WA008440091800609046
B1915232813132N08138596WA008410091700409047
B1915282813084N08138573WA008410091800509048
B1915332813033N08138555WA008410091700509051
B1915382812989N08138532WA008460092000709037
B1915432812940N08138509WA008430092000609048
B1915482812889N08138505WA008360091600709045
B1915532812840N08138508WA008220090500609046
B1915582812790N08138511WA008160089700509049
B1916032812740N08138511WA008070088600609046
B1916082812689N08138506WA007930087300609045
B1916132812640N08138502WA007790086000609043
B1916182812593N08138498WA007620084200609047
B1916232812544N08138488WA007470082500609044
B1916282812494N08138481WA007330080900409050
B1916332812442N08138482WA007160079200609048
B1916382812391N08138479WA007010077500509046
B1916432812340N08138479WA006840075600609049
B1916482812289N08138478WA006660073700609052
B1916532812238N08138474WA006550072300609048
B1916582812189N08138464WA006390070800509046
B1917032812140N08138455WA006230069300509047
B1917082812089N08138451WA006050067500609048
B1917132812039N08138449WA005870065900509046
B1917182811988N08138445WA005720064100609048
B1917232811936N08138440WA005580062500309047
F19172803070809162223262731
B1917282811887N08138435WA005460061100510044
B1917332811838N08138427WA005290059500510046
B1917382811789N08138425WA005140057800310048
B1917432811741N08138415WA004970056200410045
B1917482811692N08138401WA004850054600410049
B1917532811642N08138392WA004710053200510047
B1917582811592N08138392WA004590051900310049
B1918032811543N08138394WA004450050600310048
B1918082811495N08138395WA004350049600510042
B1918132811443N08138397WA004230048400510047
B1918182811394N08138402WA004160047300510044
B1918232811345N08138407WA004050046300310044
B1918282811297N08138412WA003960045300310042
B1918332811250N08138420WA003840044400310044
B1918382811203N08138421WA003730043400510040
B1918432811156N08138417WA003590042100410043
B1918482811106N08138415WA003430040700510042
B1918532811055N08138412WA003300039200510046
B1918582811005N08138413WA003130037500610047
B1919032810954N08138418WA002960035700310048
B1919082810905N08138416WA002810033900510046
B1919132810856N08138407WA002690032400510043
B1919182810802N08138398WA002490030700410048
B1919232810750N08138397WA002410029300310047
B1919282810701N08138395WA002380028600310042
B1919332810646N08138387WA002240027600410050
B1919382810594N08138393WA002180027100410037
B1919432810538N08138388WA002090026400310047
B1919482810493N08138369WA002080025900410040
B1919532810477N08138331WA002040025700410042
B1919582810477N08138293WA002000025600410041
B1920032810484N08138260WA001890025000610042
B1920082810501N08138242WA001770023700510040
B1920132810512N08138217WA001630022200410043
B1920182810513N08138178WA001440020700410045
B1920232810468N08138158WA001240018501410053
F192028030708091622232627
B1920282810466N08138202WA001070016001309052
F19203303070809162223262731
B1920332810490N08138199WA000920014401110044
B1920382810509N08138212WA000880013400910043
B1920432810494N08138253WA000840012900810042
B1920482810504N08138285WA000770012501310054
B1920532810509N08138238WA000620011901010051
B1920582810477N08138199WA000570011301310041
B1921032810506N08138204WA000390010101010058
B1921082810534N08138217WA000290008600510051
B1921132810570N08138223WA000160007300510050
B1921182810609N08138225WA000050006000610047
B1921232810647N08138224WA-00040004900710041
B1921282810667N08138218WA-00040004200810018
B1921332810668N08138217WA-00050004300610000
B1921382810668N08138217WA-00050004300610000
B1921432810668N08138217WA-00050004300510000
B1921482810668N08138217WA-00050004300410000
B1921532810668N08138217WA-00050004300510000
B1921582810668N08138217WA-00050004300410000
B1922032810668N08138217WA-00050004300510003
B1922082810668N08138217WA-00050004300610000
B1922132810668N08138217WA-00050004300510000
B1922182810667N08138217WA-00050004300610000
B1922232810667N08138217WA-00050004300610000
B1922282810667N08138217WA-00050004300710000
B1922332810667N08138217WA-00050004300710003
L   FlyChart
L   Version 4.52(62) TEST, April 27th 2011
G18F17C820034D99427226F7791C706B3D7D8F3457B10E51FBE65FD2A056D7C38
