AFLY017w 04336
HFDTE060416
HFFXA010
HFPLTPILOT:Owen McDermott-B
HFGTYGLIDERTYPE:Sport 2 155     
HFGIDGLIDERID:not-set         
HFDTM100GPSDATUM:WGS84
HFRFWFIRMWAREVERSION: 1.3.07  Eng
HFRHWHARDWAREVERSION:1.00
HFFTYFRTYPE:Flytec,6015
HFGPS:FASTRAX,IT430,48
HFPRSPRESSALTSENSOR:INTERSEMA,MS5401BM,12000
HFTZNUTCOFFSET: -4
I033638FXA3940SIU4143TAS
C060416150158060416003101
C2831995N08150925WTakeoff
C2831982N08150800W00000000005000000000360000StartArea,QUEST           
C2903626N08222539W00000000005000000000360000TurnArea,DUNELL          
C2921011N08227886W00000000001000000000360000FinishArea,WILLIS          
C2833250N08150191WLanding
F184647030809162223262731
B1846472831994N08150961WA-00200003600409000
F184717030809162223262731
B1847172831994N08150961WA-00200003600509000
F184747030809162223262731
B1847472831994N08150961WA-00190003600509000
F184817030809162223262731
B1848172831994N08150961WA-00190003600409000
F184847030809162223262731
B1848472831994N08150961WA-00190003500509000
F184917030809162223262731
B1849172831994N08150959WA-00190003500509000
F184947030809162223262731
B1849472831994N08150959WA-00190003500409000
F185017030809162223262731
B1850172831994N08150959WA-00180003500409000
F185047030809162223262731
B1850472831994N08150959WA-00180003500409000
E185101STA
E185101ATS1019.7
LFLYA100036
B1851012831995N08150925WA-00160003500709000
B1851062832003N08150874WA000000003900809000
B1851112832006N08150827WA000250005600909000
B1851162832003N08150798WA000460008500809000
B1851212831998N08150770WA000600010900509000
B1851262831995N08150737WA000740013000709000
B1851312831992N08150703WA000870014500709000
B1851362831985N08150670WA000960015700509000
B1851412831978N08150636WA001120017000509000
B1851462831971N08150602WA001250018300509000
B1851512831956N08150572WA001400019600509000
B1851562831939N08150547WA001560021200709000
B1852012831926N08150519WA001770023100709000
B1852062831911N08150493WA001990025400509000
B1852112831898N08150467WA002160027600609000
B1852162831891N08150438WA002350029400509000
B1852212831888N08150407WA002560031500509000
B1852262831878N08150381WA002720033500509000
B1852312831868N08150352WA002840035000509000
B1852362831863N08150323WA003000036500509000
B1852412831855N08150294WA003120037800509000
B1852462831860N08150261WA003190038800609000
B1852512831884N08150231WA003320039700509000
B1852562831911N08150202WA003370040300409000
B1853012831942N08150179WA003510041100609000
B1853062831971N08150157WA003660042400509000
B1853112832000N08150134WA003800043800709000
B1853162832024N08150109WA003950045400509000
B1853212832051N08150082WA004090046800609000
B1853262832081N08150060WA004260048400509000
B1853312832112N08150038WA004420050000509000
B1853362832146N08150018WA004560051500409000
B1853412832188N08150003WA004690052900509000
B1853462832229N08149987WA004810054100509000
B1853512832269N08149969WA004950055500509000
B1853562832312N08149953WA005070056800509000
B1854012832354N08149934WA005160057700409000
B1854062832397N08149916WA005280058900409000
B1854112832443N08149902WA005410060300509000
B1854162832491N08149888WA005560061700509000
B1854212832537N08149878WA005740063400609000
B1854262832582N08149870WA005850064900509000
B1854312832620N08149873WA005790065700809000
B1854362832636N08149923WA005710065301209000
B1854412832610N08149949WA005640064601009000
B1854462832586N08149958WA005580063800709000
B1854512832565N08149958WA005530063200509000
B1854562832546N08149955WA005450062600509000
B1855012832523N08149959WA005360062000609000
B1855062832500N08149980WA005280060900609000
B1855112832482N08150017WA005160059600509000
B1855162832472N08150066WA005040058400509000
B1855212832488N08150122WA004860056000909000
B1855262832528N08150163WA004770054400809000
B1855312832569N08150197WA004670053000509000
B1855362832608N08150235WA004580051900409000
B1855412832649N08150271WA004550051300409000
B1855462832691N08150298WA004490050700509000
B1855512832734N08150326WA004430050200409000
B1855562832775N08150354WA004340049600409000
B1856012832813N08150388WA004270048800609000
B1856062832854N08150415WA004160047900509000
B1856112832900N08150433WA004040046800409000
B1856162832947N08150450WA003940045700509000
B1856212832992N08150467WA003820044500609000
B1856262833037N08150488WA003710043200409000
B1856312833083N08150503WA003590041900509000
B1856362833128N08150515WA003490040800409000
B1856412833177N08150533WA003370039500609000
B1856462833220N08150522WA003230038300909000
B1856512833230N08150489WA003080037000809000
B1856562833238N08150459WA002980035700609000
B1857012833251N08150429WA002880034500609000
B1857062833260N08150401WA002760033300509000
B1857112833266N08150373WA002690032200709000
B1857162833271N08150347WA002590031200509000
B1857212833278N08150322WA002520030400709000
B1857262833291N08150292WA002510030000509000
B1857312833300N08150264WA002440029500509000
B1857362833305N08150238WA002320028700509000
B1857412833309N08150216WA002210027800509000
B1857462833317N08150192WA002050026600709000
B1857512833320N08150165WA001940025300509000
B1857562833320N08150140WA001910024300509000
B1858012833313N08150122WA001810023400709000
B1858062833315N08150100WA001760022800609000
B1858112833326N08150079WA001670022200709000
B1858162833350N08150056WA001580021400509000
B1858212833391N08150055WA001510020600609000
B1858262833430N08150089WA001430019700409000
B1858312833436N08150139WA001340018800609000
B1858352833424N08150183WA001260017900709000
B1858412833407N08150221WA001150016700609000
B1858462833384N08150259WA001030015500709000
B1858512833363N08150296WA000870014300709000
B1858562833340N08150323WA000760013400709000
B1859012833313N08150337WA000630012200609000
B1859062833289N08150337WA000600011500709000
B1859112833267N08150336WA000510010500709000
B1859162833248N08150330WA000390009700709000
B1859212833236N08150306WA000360009001109000
B1859262833227N08150277WA000370008800809000
B1859312833202N08150260WA000320008601209000
B1859362833168N08150274WA000220008201109000
B1859412833183N08150242WA000050007101009000
B1859462833222N08150222WA-00040005900909000
B1859512833246N08150197WA-00080004600909000
B1859562833251N08150188WA-00080004400809000
B1900012833251N08150188WA-00070004400909000
B1900062833251N08150188WA-00080004400909000
B1900112833251N08150188WA-00080004400909000
B1900162833251N08150188WA-00080004400909000
B1900212833251N08150188WA-00080004400909000
B1900262833251N08150188WA-00080004401009000
B1900312833251N08150189WA-00080004401009000
B1900362833251N08150189WA-00080004400909000
B1900412833251N08150189WA-00080004401009000
B1900462833251N08150189WA-00080004400909000
B1900512833250N08150191WA-00080004200509000
L   FlyChart®
L   Version 4.57, Sep. 1st 2014
GC674034CEB6F740F931C47CD7057E86CF82A5AC84A43325D7186C36CCFC599E9
