AFLY01FF 04789
HFDTE060416
HFFXA010
HFPLTPILOT:questAr         
HFGTYGLIDERTYPE:HangGlid        
HFGIDGLIDERID:not-set         
HFDTM100GPSDATUM:WGS84
HFRFWFIRMWAREVERSION: 1.3.07  Eng
HFRHWHARDWAREVERSION:1.00
HFFTYFRTYPE:Flytec,6015
HFGPS:FASTRAX,IT430,48
HFPRSPRESSALTSENSOR:INTERSEMA,MS5401BM,12000
HFTZNUTCOFFSET: -4
I033638FXA3940SIU4143TAS
C060416170838060416000701
C2831994N08150925WTakeoff
C2831982N08150800W00000000005000000000360000StartArea,QUEST           
C2903626N08222539W00000000005000000000360000TurnArea,DUNELL          
C2921011N08227886W00000000001000000000360000FinishArea,WILLIS          
C2834936N08158443WLanding
F17313203141622232627293132
B1731322831993N08150959WA-00410003600410000
F17320203141622232627293132
B1732022831993N08150957WA-00400004200310000
F17323203141622232627293132
B1732322831993N08150957WA-00400004100310000
F17330203141622232627293132
B1733022831993N08150957WA-00400004000410000
F17333203141622232627293132
B1733322831993N08150958WA-00390003900410000
F17340203141622232627293132
B1734022831993N08150957WA-00390003800410000
F17343203141622232627293132
B1734322831994N08150958WA-00390003800310000
F17350203141622232627293132
B1735022831994N08150957WA-00390003700410000
F17353203141622232627293132
B1735322831993N08150957WA-00390003500410000
E173551STA
E173551ATS1018.5
LFLYA100003
B1735512831994N08150925WA-00400003400410000
B1735562831994N08150879WA-00310003700610000
B1736012831992N08150837WA-00100004900810000
B1736062831991N08150793WA000050006900710000
B1736112832000N08150751WA000220009200710000
B1736162832015N08150710WA000470011700810000
B1736212832034N08150677WA000640013900610000
B1736262832053N08150641WA000730015400710000
B1736312832069N08150607WA000860016700510000
B1736362832086N08150574WA000970017900610000
B1736412832107N08150541WA001070018800510000
B1736462832129N08150510WA001210019800510000
B1736512832154N08150483WA001320020800610000
B1736562832179N08150457WA001410021800110000
B1737012832211N08150433WA001500022800110000
F1737060314232627293132
B1737062832261N08150436WA001580023600708000
F173711031416232627293132
B1737112832307N08150478WA001650024600609000
F17371603141622232627293132
B1737162832324N08150545WA001730025400510000
B1737212832307N08150610WA001770025900510000
B1737262832265N08150641WA001820026300910000
B1737312832226N08150639WA001880026900410000
B1737362832194N08150625WA002020027700610000
B1737412832176N08150599WA002180029300610000
B1737462832166N08150573WA002380031000710000
B1737512832159N08150546WA002550033000610000
B1737562832161N08150515WA002640034400710000
B1738012832165N08150480WA002690035300710000
B1738062832171N08150447WA002700035800610000
B1738112832166N08150419WA002760036100510000
B1738162832159N08150388WA002810036400410000
B1738212832152N08150358WA002890036900410000
B1738262832145N08150326WA002960037500410000
B1738312832139N08150292WA003030038200510000
B1738362832133N08150259WA003130039200310000
B1738412832124N08150227WA003220040100510000
B1738462832117N08150194WA003290041000610000
B1738512832112N08150164WA003410041800410000
B1738562832111N08150129WA003510043000610000
B1739012832115N08150097WA003580043700710000
B1739062832120N08150065WA003610044100510000
B1739112832133N08150031WA003640044600410000
B1739162832169N08150006WA003700044900610000
B1739212832219N08149998WA003770045600510000
B1739262832273N08150008WA003850046400610000
B1739312832319N08150057WA003950047300710000
B1739362832333N08150123WA004000048000610000
B1739412832323N08150181WA004090049100510000
B1739462832295N08150223WA004190050000410000
B1739512832263N08150239WA004280051000610000
B1739562832234N08150232WA004330051700410000
B1740012832217N08150208WA004380052200510000
B1740062832212N08150177WA004410052600510000
B1740112832217N08150144WA004490052900610000
B1740162832228N08150113WA004610053800710000
B1740212832243N08150082WA004710054800610000
B1740262832263N08150054WA004860056200510000
B1740312832284N08150026WA004980057900410000
B1740362832315N08150004WA005110059300610000
B1740412832358N08149994WA005260060900610000
B1740462832406N08149993WA005450062900610000
B1740512832460N08150003WA005700065400610000
B1740562832515N08150025WA005960068000510000
B1741012832562N08150047WA006110070400810000
B1741062832598N08150038WA006100071001010000
B1741112832602N08150025WA006130070900810000
B1741162832589N08150024WA006150070800410000
B1741212832566N08150039WA006200070900710000
B1741262832542N08150067WA006280071300510000
B1741312832523N08150079WA006380072000310000
B1741362832504N08150083WA006450072500310000
B1741412832484N08150092WA006520073100410000
B1741462832473N08150132WA006540073700710000
B1741512832484N08150178WA006530074000310000
B1741562832514N08150215WA006510073900810000
B1742012832558N08150229WA006560074200810000
F174206031422232627293132
B1742062832594N08150244WA006650074800609000
F17421103141622232627293132
B1742112832632N08150262WA006740075400510000
B1742162832661N08150263WA006840076100710000
B1742212832663N08150253WA006970077401110000
B1742262832645N08150285WA007060078401210000
B1742312832670N08150337WA007150079601010000
B1742362832707N08150343WA007290081000810000
B1742412832715N08150337WA007410082500910000
B1742462832699N08150342WA007540083800510000
B1742512832683N08150368WA007650085200510000
B1742562832677N08150418WA007700086100710000
F174301031422232627293132
B1743012832692N08150473WA007720086500509000
B1743062832727N08150514WA007810087300609000
F17431103141622232627293132
B1743112832761N08150517WA007900087901010000
B1743162832762N08150506WA007980088400810000
B1743212832740N08150524WA008080089101410000
B1743262832745N08150580WA008160089900710000
B1743312832786N08150611WA008220090600610000
B1743362832811N08150601WA008280091301210000
B1743412832792N08150614WA008370091901310000
B1743462832796N08150668WA008460093000810000
B1743512832835N08150692WA008500093701210000
B1743562832845N08150673WA008580094501110000
B1744012832824N08150690WA008680095201010000
B1744062832834N08150742WA008760096300710000
B1744112832872N08150754WA008800096600610000
B1744162832878N08150739WA008930097200610000
B1744212832857N08150740WA009030098500910000
B1744262832835N08150754WA009140099800610000
B1744312832813N08150784WA009250101100510000
B1744362832805N08150831WA009300102000710000
B1744412832815N08150888WA009330102400510000
B1744462832833N08150940WA009330102600410000
B1744512832867N08150981WA009270102400610000
B1744562832903N08150979WA009220102000910000
B1745012832909N08150956WA009230101700810000
B1745062832902N08150945WA009320102100710000
B1745112832892N08150930WA009380102500710000
B1745162832887N08150906WA009440103200610000
B1745212832890N08150885WA009510104100610000
B1745262832898N08150866WA009520104400510000
B1745312832888N08150855WA009500104400410000
B1745362832866N08150865WA009530104400410000
B1745412832839N08150886WA009520104300310000
B1745462832812N08150907WA009580104600610000
B1745512832784N08150926WA009620105000610000
B1745562832766N08150951WA009680105400510000
B1746012832747N08150995WA009670105600510000
B1746062832742N08151053WA009720105900510000
B1746112832732N08151105WA009570105500410000
B1746162832720N08151152WA009440104800410000
B1746212832712N08151203WA009320103400410000
B1746262832700N08151247WA009260102300810000
B1746312832686N08151278WA009260101800410000
B1746362832669N08151308WA009180101200410000
B1746412832652N08151336WA009120100500710000
B1746462832644N08151378WA009010099800610000
B1746512832628N08151416WA008990099300510000
B1746562832610N08151451WA008870098600510000
B1747012832604N08151501WA008800097900610000
B1747062832625N08151552WA008690096800610000
B1747112832665N08151574WA008560095300610000
B1747162832694N08151560WA008350093400810000
B1747212832713N08151534WA008130091200610000
B1747262832735N08151517WA008010089400510000
B1747312832758N08151500WA007880088000410000
B1747362832779N08151481WA007790086900410000
B1747412832797N08151464WA007740086300510000
B1747462832814N08151448WA007630085400410000
B1747512832831N08151434WA007470084200510000
B1747562832846N08151417WA007390083200510000
B1748012832860N08151401WA007260082000510000
B1748062832881N08151379WA007230081200510000
B1748112832901N08151357WA007270081100610000
B1748162832921N08151335WA007270081300610000
B1748212832944N08151309WA007340081500510000
B1748262832949N08151289WA007460082200710000
B1748312832930N08151288WA007560082800710000
B1748362832920N08151335WA007690084100810000
B1748412832959N08151351WA007790085901010000
B1748462832974N08151332WA007950087600910000
B1748512832955N08151329WA008080089200810000
B1748562832942N08151368WA008220091000910000
B1749012832972N08151398WA008330092300810000
B1749062832992N08151384WA008490093501210000
B1749112832975N08151375WA008610094800710000
B1749162832969N08151421WA008680095701210000
B1749212833009N08151446WA008810096801110000
B1749262833017N08151425WA008920097901510000
B1749312832995N08151447WA009050098701110000
B1749362833005N08151501WA009140099800910000
B1749412833045N08151515WA009310101601210000
B1749462833052N08151491WA009420102801410000
B1749512833029N08151512WA009550104001010000
B1749562833041N08151562WA009710106000910000
B1750012833083N08151569WA009830107601110000
B1750062833106N08151551WA009950109000710000
B1750112833100N08151530WA010050110300710000
B1750162833078N08151545WA010150111301010000
B1750212833076N08151589WA010250112000910000
B1750262833110N08151621WA010390113001310000
B1750312833140N08151603WA010540114201010000
B1750362833131N08151583WA010650115600610000
B1750412833110N08151599WA010720116501010000
B1750462833121N08151647WA010770117101210000
B1750512833168N08151665WA010890118101310000
B1750562833197N08151646WA011000119200810000
B1751012833203N08151625WA011100120200710000
B1751062833194N08151613WA011150120900610000
B1751112833175N08151630WA011160121001210000
B1751162833177N08151678WA011180121200610000
B1751212833210N08151719WA011220121601010000
B1751262833251N08151721WA011340122200910000
B1751312833251N08151708WA011390122801010000
B1751362833229N08151729WA011420123101110000
B1751412833225N08151779WA011430123500710000
B1751462833241N08151836WA011590124500810000
B1751512833279N08151855WA011700125600710000
B1751562833289N08151836WA011800126901110000
B1752012833270N08151833WA011890128000510000
B1752062833251N08151856WA012010129000610000
B1752112833247N08151906WA012120130400510000
B1752162833270N08151953WA012290131700710000
B1752212833315N08151973WA012400133100710000
B1752262833351N08151969WA012550134500610000
B1752312833357N08151949WA012620135600810000
B1752362833336N08151979WA012690136401310000
B1752412833359N08152034WA012850137700910000
B1752462833400N08152067WA012950139100810000
B1752512833439N08152095WA013040140300510000
B1752562833482N08152114WA013020140600610000
B1753012833518N08152149WA013010140800410000
B1753062833553N08152186WA012870139900810000
B1753112833595N08152214WA012770138400610000
B1753162833638N08152234WA012570136600710000
B1753212833678N08152260WA012480135100510000
B1753262833708N08152293WA012350133600310000
B1753312833739N08152327WA012170131900410000
B1753362833781N08152358WA011990130100510000
B1753412833822N08152379WA011920129100610000
B1753462833862N08152401WA011780127900510000
B1753512833898N08152433WA011700127000510000
B1753562833935N08152465WA011600125900310000
B1754012833969N08152500WA011530125000510000
B1754062834005N08152537WA011430124100410000
B1754112834035N08152575WA011390123700310000
B1754162834061N08152623WA011290122900310000
B1754212834082N08152673WA011210122200310000
B1754262834098N08152721WA011120121400610000
B1754312834112N08152769WA011100120900610000
B1754362834129N08152816WA011000120100410000
B1754412834139N08152860WA010930119400810000
B1754462834132N08152899WA010860119000510000
B1754512834125N08152930WA010780118400410000
B1754562834108N08152964WA010660117700510000
B1755012834093N08152992WA010630117200410000
B1755062834081N08153018WA010570116600410000
B1755112834063N08153037WA010460115700510000
B1755162834042N08153051WA010400114900410000
B1755212834024N08153069WA010360114200410000
F175526031416222326273132
B1755262834007N08153081WA010300113500409000
F17553103141622232627293132
B1755312833990N08153087WA010250112900310000
B1755362833973N08153091WA010210112400310000
B1755412833956N08153096WA010200112200310000
B1755462833945N08153100WA010180112000310000
B1755512833931N08153099WA010100111600510000
B1755562833918N08153093WA010060111200510000
B1756012833901N08153092WA009970110800310000
B1756062833879N08153100WA009900110200310000
B1756112833857N08153123WA009810109400410000
B1756162833846N08153163WA009710108300510000
B1756212833839N08153210WA009620106900510000
B1756262833836N08153252WA009580106000410000
F175631031622232627293132
B1756312833838N08153292WA009500104900709000
F17563603141622232627293132
B1756362833848N08153340WA009470104200410000
B1756412833855N08153385WA009410103700610000
B1756462833854N08153433WA009410103600410000
B1756512833850N08153478WA009440103900410000
B1756562833842N08153524WA009490104300410000
B1757012833840N08153567WA009610104801010000
B1757062833879N08153603WA009580105200810000
B1757112833899N08153650WA009670105800710000
B1757162833894N08153688WA009700106100810000
B1757212833883N08153723WA009760106700410000
B1757262833871N08153755WA009820107100610000
B1757312833883N08153791WA009920108101410000
B1757362833905N08153774WA009960108601210000
B1757412833895N08153794WA009980108900910000
B1757462833920N08153832WA010070109600910000
B1757512833956N08153842WA010130110200810000
B1757562833974N08153825WA010180110701210000
B1758012833959N08153835WA010210111101310000
B1758062833981N08153878WA010270111501210000
B1758112834019N08153861WA010320112101210000
B1758162834007N08153842WA010390112801110000
B1758212833991N08153878WA010460113400810000
B1758262834016N08153924WA010540114100910000
B1758312834060N08153929WA010560115001010000
B1758362834080N08153907WA010630115601210000
B1758412834062N08153907WA010680116000710000
B1758462834066N08153953WA010720116401110000
B1758512834110N08153957WA010750116801610000
B1758562834097N08153952WA010790117201310000
B1759012834100N08153998WA010850117900710000
B1759062834144N08154001WA010850118201310000
B1759112834169N08153983WA010910118600610000
B1759162834176N08153969WA010950119100710000
B1759212834154N08153976WA010950119100610000
B1759262834133N08153984WA011060119400610000
B1759312834116N08153982WA011110119900310000
B1759362834104N08153980WA011190120200410000
B1759412834092N08153977WA011230120700410000
B1759462834077N08153969WA011220121100310000
B1759512834055N08153969WA011190121300410000
B1759562834040N08154002WA011170121300510000
B1800012834043N08154050WA011110121200510000
B1800062834067N08154100WA011060121000510000
B1800112834102N08154137WA011090121200610000
B1800162834138N08154174WA011130121400710000
B1800212834173N08154209WA011150121700610000
B1800262834210N08154241WA011160121700310000
B1800312834245N08154262WA011150121700510000
B1800362834287N08154268WA011160121800610000
B1800412834329N08154261WA011150121600610000
B1800462834360N08154237WA011170121700910000
B1800512834376N08154221WA011270122100710000
B1800562834386N08154197WA011270122300710000
B1801012834397N08154175WA011280122500610000
B1801062834414N08154156WA011290122500410000
B1801112834425N08154138WA011310122700710000
B1801162834409N08154138WA011250122600610000
B1801212834401N08154187WA011210122500910000
B1801262834424N08154236WA011280122600610000
B1801312834446N08154280WA011250122500410000
B1801362834471N08154321WA011310122700510000
B1801412834502N08154358WA011290122900710000
B1801462834531N08154396WA011340123100710000
B1801512834557N08154435WA011320123100310000
B1801562834581N08154474WA011250122800510000
F180201031416222326273132
B1802012834616N08154516WA011050121800709000
B1802062834640N08154565WA010950120701009000
B1802112834654N08154610WA010780119000909000
B1802162834663N08154658WA010630117200809000
B1802212834678N08154706WA010490115500709000
B1802262834694N08154754WA010320113700409000
B1802312834706N08154802WA010160112000609000
B1802362834714N08154853WA010070110700609000
B1802412834722N08154902WA010050109800609000
B1802462834735N08154952WA010010109500709000
B1802512834743N08154999WA009980109200509000
B1802562834748N08155041WA009930108900709000
B1803012834759N08155086WA009900108700709000
B1803062834769N08155130WA009860108600509000
B1803112834775N08155179WA009800108100609000
B1803162834777N08155230WA009780107600509000
B1803212834788N08155279WA009730107200609000
B1803262834802N08155328WA009690106700509000
B1803312834812N08155376WA009650106300709000
B1803362834829N08155425WA009580105800509000
B1803412834851N08155469WA009540105200609000
B1803462834873N08155515WA009460104500609000
B1803512834895N08155558WA009370103600409000
B1803562834918N08155603WA009220102500609000
B1804012834933N08155650WA009070101200609000
B1804062834944N08155697WA008930099600609000
B1804112834946N08155742WA008810098200409000
B1804162834944N08155787WA008690096800709000
B1804212834931N08155828WA008580095500409000
B1804262834922N08155869WA008480094400409000
B1804312834927N08155918WA008370093200609000
B1804362834950N08155958WA008280092300709000
B1804412834972N08155991WA008230091500609000
B1804462834989N08156032WA008160090900509000
B1804512834996N08156074WA008140090500609000
B1804562835003N08156130WA008060090000709000
B1805012834992N08156169WA008130090301009000
B1805062834962N08156198WA008140090200809000
B1805112834965N08156243WA008130090201209000
B1805162834996N08156271WA008180090500709000
B1805212835033N08156280WA008200090700809000
B1805262835053N08156316WA008260091101409000
B1805312835032N08156331WA008330091701609000
B1805362835043N08156318WA008390092200909000
B1805412835076N08156321WA008450092500809000
B1805462835106N08156341WA008550093500809000
B1805512835138N08156379WA008570094100809000
B1805562835171N08156407WA008650095100509000
B1806012835201N08156429WA008710095800509000
B1806062835233N08156447WA008770096600309000
B1806112835267N08156470WA008800097100409000
B1806162835293N08156504WA008830097500609000
B1806212835317N08156543WA008820097700409000
B1806262835339N08156586WA008820097600509000
B1806312835361N08156630WA008750097600609000
B1806362835359N08156679WA008690097100809000
B1806412835351N08156720WA008640096800409000
B1806462835343N08156761WA008590096300409000
B1806512835338N08156805WA008490095500509000
B1806562835343N08156851WA008470095100709000
B1807012835351N08156899WA008430094500709000
B1807062835356N08156948WA008370093700709000
B1807112835362N08156996WA008290093000709000
B1807162835372N08157047WA008200091900509000
B1807212835382N08157097WA008070090700409000
B1807262835394N08157147WA007940089400409000
B1807312835411N08157198WA007800088100709000
B1807362835432N08157249WA007650086700909000
B1807412835442N08157303WA007540085400509000
B1807462835440N08157349WA007370084000409000
B1807512835438N08157394WA007250082600409000
F18075603081416222326273132
B1807562835432N08157440WA007140081100310000
B1808012835433N08157484WA007050079800610000
B1808062835433N08157528WA006950078800610000
B1808112835431N08157566WA006850077600410000
B1808162835421N08157602WA006750076600410000
B1808212835404N08157627WA006680075900610000
B1808262835384N08157641WA006640075400710000
B1808312835366N08157651WA006530074700810000
B1808362835350N08157658WA006490074200710000
B1808412835335N08157664WA006340073700610000
B1808462835317N08157678WA006230073100710000
B1808512835300N08157702WA006140072200610000
B1808562835281N08157728WA006060071200610000
B1809012835265N08157769WA005990070300510000
B1809062835257N08157819WA005950069400310000
B1809112835256N08157865WA005910068800610000
B1809162835256N08157913WA005870068200610000
B1809212835250N08157960WA005770067500410000
B1809262835243N08158008WA005700066800310000
B1809312835240N08158057WA005640066100110000
B1809362835242N08158105WA005570065500210000
B1809412835244N08158153WA005530064800410000
B1809462835246N08158201WA005470064200510000
B1809512835249N08158252WA005380063500610000
F180956030816222326273132
B1809562835246N08158296WA005310062800509000
F18100103081416222326273132
B1810012835234N08158339WA005190062000710000
B1810062835216N08158376WA005050060700510000
B1810112835201N08158429WA004990059300610000
B1810162835187N08158448WA004940058400910000
B1810212835176N08158448WA004890057800710000
B1810262835157N08158454WA004760056800710000
B1810312835140N08158481WA004630056100710000
B1810362835134N08158537WA004480054500610000
B1810412835144N08158591WA004380053300610000
B1810462835156N08158645WA004320052500610000
B1810512835164N08158700WA004300051800610000
B1810562835172N08158750WA004280051500610000
B1811012835184N08158802WA004240051200910000
B1811062835177N08158839WA004180050800810000
B1811112835156N08158855WA004070050200610000
B1811162835137N08158862WA004010049600410000
B1811212835116N08158871WA003950049000710000
B1811262835101N08158876WA003900048500610000
F1811310308091416222326273132
B1811312835087N08158886WA003780047600611000
B1811362835076N08158882WA003640046300711000
B1811412835090N08158866WA003580045500311000
B1811462835111N08158846WA003480044600311000
B1811512835127N08158822WA003400043600311000
B1811562835138N08158799WA003330042600311000
B1812012835145N08158781WA003280041800611000
B1812062835149N08158759WA003210040800411000
B1812112835148N08158738WA003130039700411000
F18121608091416222326273132
B1812162835150N08158718WA003040038800310000
F1812210308091416222326273132
B1812212835157N08158695WA002940037800311000
B1812262835163N08158665WA002820036800511000
B1812312835167N08158632WA002620035300611000
B1812362835179N08158596WA002470033500411000
B1812412835181N08158562WA002310031700711000
B1812462835184N08158532WA002160029900511000
B1812512835187N08158503WA002000028100311000
B1812562835190N08158471WA001810026400511000
B1813012835159N08158483WA001580024501311000
B1813062835152N08158549WA001360021700711000
B1813112835124N08158595WA001120019100711000
B1813162835090N08158589WA000750015601111000
B1813212835089N08158543WA000490012100811000
F18132603080914162223262732
B1813262835077N08158509WA000240009300710000
F18133103080914222326273132
B1813312835037N08158496WA-00040006100810000
F1813360308091416222326273132
B1813362835000N08158483WA-00240003600611000
B1813412834971N08158464WA-00360002000811000
B1813462834948N08158448WA-00400001900611000
B1813512834936N08158443WA-00390002300511000
B1813562834936N08158443WA-00390002300611000
B1814012834936N08158443WA-00390002400611000
B1814062834936N08158443WA-00390002400511000
B1814112834936N08158443WA-00390002400511000
B1814162834936N08158443WA-00390002400511000
B1814212834936N08158443WA-00390002400511000
B1814262834936N08158443WA-00390002400511000
B1814312834936N08158443WA-00390002400411000
B1814362834936N08158443WA-00390002400411000
L   FlyChart®
L   Version 4.52(51) TEST, May 5th 2010
G3A262469242FBF3493DD3A7AE5187B8C5B355F5AE2A394AFFF234E61C1F928E1
