AFLY022x 07871
HFDTE060416
HFFXA010
HFPLTPILOT:Pete Wall       
HFGTYGLIDERTYPE:Hang Glider     
HFGIDGLIDERID:WW_Sport2-155   
HFDTM100GPSDATUM:WGS84
HFRFWFIRMWAREVERSION: 1.3.07  Eng
HFRHWHARDWAREVERSION:1.00
HFFTYFRTYPE:Brauniger,IQ-Basic GPS
HFGPS:FASTRAX,IT430,48
HFPRSPRESSALTSENSOR:INTERSEMA,MS5401BM,12000
HFTZNUTCOFFSET: -4
I033638FXA3940SIU4143TAS
C060416173114060416000801
C2831994N08150931WTakeoff
C2831982N08150800W00000000005000000000360000StartArea,QUEST           
C2903626N08222539W00000000005000000000360000TurnArea,DUNELL          
C2921011N08227886W00000000001000000000360000FinishArea,WILLIS          
C2839197N08158709WLanding
F17353703141622232627293132
B1735372831995N08150964WA-00240003600610005
F17360703141622232627293132
B1736072831994N08150962WA-00240003500610006
F17363703141622232627293132
B1736372831994N08150962WA-00240003600310007
F17370703141622232627293132
B1737072831995N08150962WA-00240003600510003
F17373703141622232627293132
B1737372831995N08150962WA-00240003600410005
F17380703141622232627293132
B1738072831995N08150962WA-00240003600410000
F17383703141622232627293132
B1738372831994N08150962WA-00240003600510003
F17390703141622232627293132
B1739072831994N08150959WA-00230003700410002
F17393703141622232627293132
B1739372831994N08150957WA-00230003700410013
E173942STA
E173942ATS1020.7
LFLYA100036
B1739422831994N08150931WA-00240003700510041
B1739472831996N08150884WA-00180003900510067
B1739522832000N08150837WA-00040004700710055
B1739572831999N08150800WA000130006300510049
B1740022831996N08150766WA000300008200510063
B1740072831993N08150727WA000460009900510047
B1740122831987N08150694WA000570011800510053
B1740172831965N08150671WA000670012800510047
B1740222831940N08150648WA000740013800510052
B1740272831913N08150626WA000850014800410051
B1740322831891N08150599WA001010015900510045
B1740372831885N08150573WA001200017600510048
B1740422831887N08150540WA001320019100410057
B1740472831900N08150508WA001540021000510046
B1740522831921N08150480WA001730022700410042
B1740572831945N08150459WA001970025100610051
B1741022831974N08150433WA002200027600610048
B1741072832012N08150410WA002370030000510049
B1741122832052N08150394WA002520031800510047
B1741172832096N08150378WA002650033300510052
B1741222832149N08150376WA002770034700610047
B1741272832200N08150377WA002900036100510045
B1741322832251N08150379WA003010037200510049
B1741372832301N08150385WA003110038200510049
B1741422832354N08150394WA003180039000510048
B1741472832406N08150403WA003230039700410054
B1741522832460N08150410WA003330040300510052
B1741572832516N08150424WA003390040800610056
B1742022832570N08150437WA003540041700610044
B1742072832616N08150430WA003670043100710044
B1742122832653N08150414WA003830045000610043
B1742172832686N08150396WA004040047000410046
B1742222832716N08150371WA004220048900610049
B1742272832737N08150338WA004440051200510048
B1742322832748N08150301WA004650053300410050
B1742372832747N08150271WA004890055600410050
B1742422832742N08150240WA004970057100410052
B1742472832731N08150217WA005050058200510048
B1742522832715N08150203WA005180059200410048
B1742572832696N08150190WA005330060600410048
B1743022832675N08150177WA005460061800410052
B1743072832649N08150170WA005570063000410051
B1743122832618N08150171WA005750064300410047
B1743172832586N08150177WA005910066000410054
B1743222832549N08150187WA006080067700410052
B1743272832516N08150197WA006230069600410043
B1743322832482N08150203WA006240070500610048
B1743372832451N08150227WA006280071000510047
F174342031422232627293132
B1743422832421N08150256WA006260070900409047
F17434703141622232627293132
B1743472832407N08150306WA006200070501010042
B1743522832427N08150370WA006220070400610047
B1743572832451N08150426WA006310070900510038
B1744022832479N08150480WA006320071000510045
B1744072832512N08150530WA006360071300410037
B1744122832555N08150574WA006310071100610046
B1744172832603N08150606WA006340071100710036
B1744222832647N08150631WA006340071000510039
B1744272832683N08150625WA006340070900610041
B1744322832700N08150598WA006310070700510045
B1744372832693N08150571WA006310070800410041
B1744422832665N08150566WA006360070900510042
B1744472832631N08150583WA006450071300410041
B1744522832616N08150633WA006560072100710043
B1744572832644N08150682WA006610073100710045
B1745022832684N08150674WA006640073600810042
B1745072832702N08150647WA006710074100610046
B1745122832703N08150622WA006780074800510038
B1745172832680N08150606WA006810075100410045
B1745222832650N08150598WA006900075800410044
B1745272832622N08150591WA007000076800410043
B1745322832592N08150595WA007150078200510043
B1745372832565N08150624WA007150079300710042
B1745422832564N08150679WA007100079301010046
B1745472832614N08150714WA007120078801110056
B1745522832647N08150695WA007220079200810045
B1745572832664N08150666WA007270079800510044
B1746022832670N08150637WA007320080400410040
B1746072832679N08150603WA007380081000410045
B1746122832684N08150570WA007340081000410051
B1746172832671N08150553WA007180080600910047
B1746222832645N08150584WA007040079801010052
B1746272832658N08150644WA006970078700610044
B1746322832681N08150700WA007000077700510050
B1746372832699N08150763WA007090077900510053
B1746422832727N08150822WA007140078600510057
B1746472832758N08150868WA007280079900510046
B1746522832799N08150890WA007380081200810046
B1746572832813N08150859WA007430082001110053
B1747022832776N08150865WA007550082601310045
B1747072832755N08150910WA007630083500710043
B1747122832754N08150973WA007720084500510051
B1747172832769N08151036WA007870085800610044
B1747222832803N08151083WA007980087100510046
B1747272832848N08151092WA008100088400710048
B1747322832865N08151064WA008260089600710046
B1747372832861N08151032WA008440091400510043
B1747422832834N08151023WA008500092700810048
B1747472832817N08151074WA008600093800910045
B1747522832821N08151138WA008750095100510045
B1747572832841N08151196WA008850096400710043
B1748022832890N08151211WA008890097001210048
B1748072832916N08151179WA008940097601110047
B1748122832890N08151149WA009070098200810055
B1748172832864N08151139WA009220099400610046
B1748222832842N08151178WA009300100501410047
B1748272832865N08151242WA009320101300910048
B1748322832911N08151283WA009490102500810044
B1748372832953N08151320WA009620104100710044
B1748422832992N08151305WA009590104701110053
B1748472832997N08151266WA009700105000710047
B1748522832985N08151233WA009790105400510053
B1748572832972N08151202WA009900106300410047
B1749022832948N08151193WA009930107100610043
B1749072832928N08151237WA009850107201410051
B1749122832959N08151296WA009810106901010047
B1749172833000N08151330WA009930107200710044
B1749222833046N08151355WA010040108300810043
B1749272833094N08151355WA010120109200610052
B1749322833126N08151332WA010180109800510045
B1749372833146N08151302WA010270110400510047
B1749422833131N08151288WA010350111000810047
B1749472833110N08151325WA010350111501010051
B1749522833131N08151388WA010440112100810047
B1749572833177N08151423WA010520113000810046
B1750022833227N08151431WA010540113400810050
B1750072833264N08151408WA010520113401010048
B1750122833262N08151377WA010510113400510050
B1750172833243N08151360WA010570113600510045
B1750222833216N08151386WA010620113900610047
B1750272833201N08151434WA010740114800610037
B1750322833195N08151480WA010850115900410036
B1750372833175N08151521WA010880116600410042
B1750422833152N08151553WA010910117200410045
B1750472833130N08151595WA010930117300410048
B1750522833120N08151645WA010980117800410046
B1750572833129N08151702WA011060118400410045
B1751022833152N08151753WA011280120000610036
B1751072833189N08151791WA011360121400910047
B1751122833233N08151789WA011520122501110050
B1751172833233N08151759WA011660124201010052
B1751222833203N08151767WA011720125200810047
B1751272833192N08151827WA011820126001210055
B1751322833224N08151885WA012040127900910043
B1751372833271N08151903WA012190129701410044
B1751422833308N08151889WA012240130601210048
B1751472833324N08151857WA012380131500810052
B1751522833296N08151860WA012470132400710051
B1751572833275N08151903WA012590133700710048
B1752022833296N08151962WA012720134801010050
B1752072833344N08151979WA012810136201210042
B1752122833369N08151953WA012890137000710049
B1752172833363N08151932WA012980137800610044
B1752222833336N08151933WA013020138300710049
F175227031416222326272931
B1752272833307N08151960WA013160139000609046
B1752322833295N08152009WA013310140200709042
B1752372833322N08152063WA013380141501009050
F17524203141622232627293132
B1752422833372N08152093WA013500142900910037
B1752472833419N08152112WA013480143400710040
B1752522833464N08152135WA013380143000810047
B1752572833509N08152172WA013260142000810046
B1753022833557N08152207WA013130140500510042
B1753072833601N08152240WA012960138800710035
F175312031622232627293132
B1753122833650N08152274WA012780137000509044
F17531703141622232627293132
B1753172833697N08152305WA012650135300510040
B1753222833746N08152330WA012520133800510039
B1753272833788N08152360WA012400132500710040
B1753322833828N08152397WA012290131300510038
B1753372833869N08152435WA012200130200510040
B1753422833915N08152468WA012090129200410041
B1753472833960N08152497WA012020128500410036
B1753522834009N08152527WA011940127700410040
B1753572834055N08152564WA011850126800610037
B1754022834098N08152604WA011750125800410037
B1754072834142N08152638WA011620124800410035
B1754122834191N08152673WA011510123400510044
B1754172834235N08152715WA011450122700710033
B1754222834273N08152762WA011360121700510040
B1754272834295N08152814WA011320121000310035
B1754322834285N08152862WA011220120400410043
B1754372834263N08152896WA011190120000410043
F175442031416222326272931
B1754422834239N08152922WA011170119700409039
F17544703141622232627293132
B1754472834214N08152941WA011130119400410046
B1754522834189N08152961WA011110119200410041
B1754572834163N08152978WA011040118800410044
B1755022834139N08152993WA010970118300310039
B1755072834117N08153026WA010910117700610043
B1755122834098N08153065WA010860117100410041
B1755172834076N08153098WA010830116600510043
B1755222834058N08153133WA010790116300510039
B1755272834041N08153173WA010740115800310039
B1755322834020N08153209WA010750115700410037
B1755372834000N08153241WA010740115600410036
B1755422833976N08153271WA010690115200510035
B1755472833950N08153300WA010620114700410039
B1755522833939N08153347WA010540114200510048
B1755572833971N08153394WA010440113401010048
B1756022834024N08153413WA010380112400610048
B1756072834070N08153427WA010330111700610039
B1756122834107N08153415WA010200110800810044
B1756172834094N08153391WA010040109601010050
B1756222834062N08153419WA009970108501010045
B1756272834048N08153467WA009910107800510038
B1756322834045N08153516WA009840107000410036
B1756372834046N08153564WA009680105800510036
B1756422834018N08153595WA009520104200910051
B1756472833988N08153608WA009440102900610043
B1756522833959N08153618WA009400102300610045
B1756572833930N08153636WA009350101700410040
B1757022833899N08153656WA009390101600610048
B1757072833877N08153659WA009440102100610034
B1757122833852N08153654WA009500102300410048
B1757172833825N08153666WA009570102900410044
B1757222833808N08153710WA009560103200710052
B1757272833836N08153765WA009670104001110044
B1757322833883N08153777WA009680104600810045
B1757372833918N08153748WA009720105200710045
B1757422833927N08153712WA009800105600610050
B1757472833918N08153684WA009900106400510049
B1757522833898N08153679WA009930106900410042
B1757572833885N08153728WA009920107201210052
B1758022833924N08153775WA009990107601010045
B1758072833972N08153771WA010090108401410046
B1758122833994N08153741WA010170109300710040
B1758172833987N08153710WA010190109500510047
B1758222833967N08153690WA010260110000410050
B1758272833942N08153709WA010250110300610050
B1758322833956N08153770WA010240110601410054
B1758372834012N08153801WA010330111001010046
B1758422834060N08153798WA010390111801210047
B1758472834087N08153765WA010470112400810047
B1758522834092N08153733WA010450112800610044
B1758572834062N08153724WA010410112400610055
B1759022834046N08153773WA010480112600710047
B1759072834064N08153830WA010490112700610046
B1759122834093N08153881WA010590113500410044
B1759172834124N08153929WA010650114400410043
B1759222834172N08153955WA010700115100610046
B1759272834214N08153938WA010770115801310052
B1759322834217N08153909WA010750116101010046
B1759372834183N08153905WA010740115800810052
B1759422834170N08153956WA010790116000810048
B1759472834211N08154001WA010840116500910046
B1759522834261N08154024WA010930117300810043
B1759572834306N08154038WA010960117700610046
B1800022834338N08154024WA010950117901110041
B1800072834327N08153998WA010940117800710044
B1800122834297N08154018WA010930117700810042
B1800172834282N08154066WA010960117900510041
B1800222834266N08154107WA011010118300510040
B1800272834246N08154143WA011050118700410044
B1800322834231N08154188WA011080119000510046
B1800372834245N08154242WA011060119200610048
B1800422834291N08154270WA011080119200810044
B1800472834324N08154249WA011120119500710045
B1800522834335N08154221WA011180120000410040
B1800572834335N08154195WA011200120300410039
B1801022834332N08154172WA011230120600310035
B1801072834327N08154146WA011220120600310042
B1801122834332N08154120WA011210120500310035
B1801172834355N08154096WA011150120100610042
F180122031416222326293132
B1801222834393N08154078WA011100119600409043
F18012703141622232627293132
B1801272834436N08154076WA011090119400510040
B1801322834475N08154098WA011040119000510036
B1801372834503N08154143WA010990118400410042
B1801422834519N08154199WA010930117800410043
B1801472834535N08154254WA010880117300310041
B1801522834551N08154310WA010860117000410042
B1801572834569N08154363WA010870117000310037
F180202031416222326273132
B1802022834596N08154414WA010880117000509044
B1802072834609N08154467WA010860117100509039
B1802122834614N08154522WA010800116800509038
B1802172834625N08154580WA010660115800609042
B1802222834647N08154639WA010550114600509042
B1802272834672N08154693WA010470113600509036
B1802322834698N08154745WA010290112100609042
B1802372834717N08154797WA010180110700509043
B1802422834748N08154852WA010060109300509040
B1802472834778N08154910WA010000108200509045
B1802522834791N08154968WA009940107500409040
B1802572834801N08155024WA009890106900509039
B1803022834810N08155081WA009860106400409043
B1803072834802N08155138WA009790105900409049
B1803122834797N08155196WA009770105600609039
B1803172834801N08155253WA009730105100409039
B1803222834803N08155310WA009670104800409037
F1803270314162223262731
B1803272834798N08155363WA009630104300408039
F180332031416222326273132
B1803322834786N08155408WA009540103700409041
B1803372834773N08155455WA009490103100509039
B1803422834773N08155508WA009450102600509041
B1803472834768N08155553WA009430102300409036
B1803522834761N08155599WA009400101900609043
B1803572834756N08155646WA009400101900509038
B1804022834743N08155686WA009290101400509042
B1804072834735N08155736WA009220100800709041
B1804122834745N08155792WA009140099900409043
B1804172834764N08155846WA009080099200509040
B1804222834781N08155900WA009050098600409044
B1804272834792N08155951WA009020098100409040
B1804322834808N08156004WA008930097500509044
B1804372834827N08156059WA008880097000409046
B1804422834849N08156111WA008870096600609035
B1804472834835N08156161WA008800096000709044
B1804522834804N08156186WA008760095700509043
B1804572834773N08156192WA008710095200509046
B1805022834745N08156192WA008750095000509043
B1805072834720N08156191WA008900095600609038
B1805122834722N08156175WA008950096401009036
B1805172834766N08156177WA009060097201009040
B1805222834798N08156224WA009050097600709033
B1805272834796N08156281WA009000097500709039
B1805322834772N08156310WA009110098200809039
B1805372834749N08156317WA009110098600509039
B1805422834725N08156312WA009090098500609044
B1805472834696N08156312WA009090098500509048
B1805522834674N08156303WA009030098500709039
B1805572834689N08156281WA008890098001209045
B1806022834740N08156294WA008850097300809045
B1806072834788N08156333WA008900097400809047
B1806122834822N08156380WA008950097700609042
B1806172834818N08156436WA009020098001009040
B1806222834787N08156440WA009060098301409038
B1806272834793N08156410WA009090098501109047
B1806322834822N08156394WA009130098900609039
B1806372834867N08156404WA009160099300709049
B1806422834911N08156430WA009220099900609045
B1806472834926N08156482WA009270100500809043
B1806522834901N08156516WA009320100901009041
B1806572834888N08156489WA009320101201309051
B1807022834899N08156457WA009370101400909044
B1807072834932N08156437WA009410101700909045
B1807122834981N08156435WA009480102400509043
B1807172835023N08156462WA009470102700809040
B1807222835028N08156514WA009390102400909040
B1807272834998N08156518WA009310101801009049
B1807322835005N08156488WA009350101900809043
B1807372835038N08156461WA009360101900609045
B1807422835083N08156454WA009370101900509038
B1807472835122N08156474WA009290101700609037
F18075203081416222326273132
B1807522835165N08156511WA009170100800510045
B1807572835202N08156547WA009030099500410040
B1808022835232N08156591WA008970098500410043
B1808072835261N08156639WA008930097700410045
B1808122835295N08156682WA008920097400310044
B1808172835334N08156715WA008970097300610040
B1808222835364N08156758WA009050098000510035
B1808272835375N08156816WA009070098400510046
B1808322835411N08156852WA009220099100810042
B1808372835441N08156836WA009270099701010045
B1808422835426N08156814WA009330100600710042
B1808472835391N08156829WA009420101400710039
B1808522835374N08156878WA009510102200610047
B1808572835389N08156930WA009630103500510042
F180902030814162223262731
B1809022835430N08156949WA009720104800809041
F18090703081416222326273132
B1809072835455N08156922WA009780105600810048
B1809122835441N08156899WA009880106700710039
B1809172835404N08156902WA009930107300710047
B1809222835369N08156934WA010030108100510044
B1809272835356N08156982WA010140109300510038
B1809322835381N08157027WA010210110300610044
B1809372835422N08157020WA010260111000910049
B1809422835419N08156987WA010390112001010043
B1809472835389N08156977WA010450112700510044
B1809522835353N08157003WA010530113400510041
B1809572835346N08157054WA010600114200510040
B1810022835380N08157093WA010640114800610040
B1810072835422N08157094WA010750115501110042
B1810122835435N08157063WA010780116200710048
B1810172835424N08157029WA010870117100910043
B1810222835405N08157009WA010910117800510041
B1810272835369N08157024WA010870117800610044
B1810322835348N08157076WA010830117300710045
B1810372835379N08157123WA010720116600910049
B1810422835426N08157122WA010750116100910043
B1810472835465N08157117WA010810116400710046
B1810522835501N08157108WA010870117100610038
B1810572835531N08157091WA010910117600410041
B1811022835565N08157086WA010970118200410044
B1811072835598N08157078WA010950118400410047
B1811122835617N08157051WA010900118400510043
B1811172835608N08157018WA010930118300710042
B1811222835572N08157017WA010880117800710045
B1811272835546N08157054WA010740116900710043
F1811320308091416222326273132
B1811322835568N08157114WA010640115600711048
B1811372835606N08157148WA010620115200411040
B1811422835650N08157185WA010660115200411040
B1811472835687N08157229WA010780115800511040
B1811522835720N08157276WA010910117100611046
B1811572835765N08157300WA010940117900511044
B1812022835796N08157278WA010970118300711050
B1812072835780N08157262WA011050119000711045
B1812122835759N08157300WA011140119600611043
B1812172835774N08157355WA011170120000511045
B1812222835817N08157399WA011240120500411038
B1812272835860N08157431WA011210120600411045
B1812322835903N08157444WA011080120100611040
B1812372835921N08157415WA010840118301211055
B1812422835901N08157391WA010850117200811044
B1812472835881N08157374WA010890117100811042
B1812522835867N08157347WA010970117500511045
B1812572835859N08157319WA011070118400411045
B1813022835846N08157293WA011170119600511046
B1813072835820N08157289WA011180120300611048
B1813122835810N08157346WA011230120500811055
B1813172835855N08157374WA011330121300811047
B1813222835890N08157344WA011340121700911046
B1813272835883N08157310WA011310121700511043
B1813322835851N08157307WA011350121900611043
B1813372835831N08157344WA011390122200511042
B1813422835839N08157392WA011420122500611043
B1813472835882N08157428WA011490123300511044
B1813522835928N08157431WA011530123900511044
B1813572835951N08157398WA011480123700611048
B1814022835928N08157374WA011470123500711051
B1814072835901N08157398WA011530123700611042
B1814122835894N08157447WA011560124000411047
B1814172835905N08157497WA011610124500411040
B1814222835934N08157544WA011720125200411043
B1814272835968N08157591WA011790126000411043
B1814322836016N08157609WA011870126800411044
B1814372836054N08157592WA011890127200611041
B1814422836066N08157558WA011950127500511050
B1814472836051N08157543WA011940127700411044
B1814522836025N08157564WA011940127700411042
B1814572836014N08157615WA012070128600611045
B1815022836041N08157669WA012090129200711056
B1815072836092N08157684WA012200129800711046
B1815122836122N08157656WA012220130200711045
B1815172836116N08157629WA012210130400711046
B1815222836088N08157642WA012200130400511043
B1815272836076N08157691WA012250130800611042
B1815322836083N08157748WA012290131100511045
B1815372836097N08157804WA012320131500411044
B1815422836119N08157861WA012370131900411044
B1815472836143N08157912WA012380132500411039
B1815522836192N08157934WA012280132200711050
B1815572836227N08157901WA012230131700611043
B1816022836256N08157871WA012130130900511041
B1816072836282N08157846WA012020130200511042
B1816122836281N08157814WA011840128700711051
B1816172836251N08157818WA011710127300611041
B1816222836221N08157851WA011690126300611042
B1816272836194N08157886WA011670125700511041
B1816322836173N08157937WA011650125100411043
B1816372836158N08157990WA011690125100511040
B1816422836144N08158045WA011700125200311042
B1816472836132N08158099WA011690125300311042
B1816522836141N08158155WA011660125100511045
B1816572836183N08158199WA011710125200411048
B1817022836226N08158208WA011750125600611043
B1817072836244N08158173WA011780125900811051
B1817122836222N08158154WA011800126300611044
B1817172836193N08158167WA011750126200411040
B1817222836165N08158173WA011670125800511038
B1817272836151N08158149WA011600124900611042
B1817322836161N08158119WA011580124500311042
B1817372836195N08158106WA011560124200311046
B1817422836235N08158110WA011570124200411043
B1817472836276N08158120WA011500123700311036
B1817522836316N08158141WA011470123500411038
B1817572836354N08158183WA011430122800511042
B1818022836390N08158226WA011320122000411037
B1818072836422N08158273WA011190120800411037
B1818122836439N08158332WA011040119400411040
B1818172836435N08158393WA010920118000411038
B1818222836401N08158423WA010890117300511039
B1818272836374N08158413WA010830116700411040
B1818322836366N08158385WA010790116300411038
B1818372836380N08158357WA010720115800411042
B1818422836420N08158356WA010630115100511047
B1818472836459N08158359WA010490114000511046
B1818522836494N08158352WA010390113000411039
B1818572836529N08158344WA010250111500411043
B1819022836566N08158342WA010080109800411038
B1819072836608N08158342WA009880107800311043
B1819122836654N08158353WA009740106000411044
B1819172836695N08158376WA009600104500311044
B1819222836734N08158401WA009460103100311040
B1819272836764N08158437WA009320101500311040
B1819322836774N08158492WA009180100000411043
B1819372836751N08158537WA009110099100311038
B1819422836717N08158542WA008980098000411040
B1819472836698N08158515WA008830096400711042
B1819522836710N08158487WA008670094900411038
B1819572836743N08158481WA008470093100511043
B1820022836785N08158504WA008290091100511042
B1820072836825N08158537WA008080088900511040
B1820122836856N08158582WA008050087200411044
B1820172836881N08158634WA008040087200411045
B1820222836905N08158691WA008050087400411047
B1820272836935N08158742WA008080087900411046
B1820322836971N08158779WA008100088300411041
F18203703081416222326273132
B1820372837008N08158811WA008080088400310040
F1820420308091416222326273132
B1820422837048N08158822WA008000087900411044
B1820472837073N08158801WA007900087100411047
B1820522837077N08158773WA007840086200311042
B1820572837087N08158747WA007800085800411043
B1821022837116N08158730WA007790085700311044
B1821072837155N08158731WA007720085300311044
B1821122837197N08158735WA007660084600311043
B1821172837241N08158745WA007630084200311040
B1821222837289N08158764WA007620084000711042
B1821272837334N08158795WA007650084000411043
B1821322837374N08158831WA007670084300511046
B1821372837416N08158871WA007730084900411043
B1821422837457N08158884WA007720085200411046
B1821472837474N08158858WA007720085200711048
B1821522837458N08158836WA007720085100811051
B1821572837431N08158833WA007710085200411045
B1822022837403N08158866WA007720085200511043
B1822072837405N08158929WA007700085000511048
B1822122837450N08158973WA007730085100511049
B1822172837498N08158994WA007770085400411043
B1822222837543N08159000WA007760085400411052
B1822272837576N08158983WA007830085900711045
B1822322837577N08158952WA007860086100511048
B1822372837551N08158943WA007830086200411050
B1822422837529N08158983WA007830086100711045
B1822472837549N08159045WA007750085400511051
B1822522837590N08159099WA007850085600711045
B1822572837626N08159141WA007800085600411047
B1823022837676N08159153WA007870085600611042
B1823072837710N08159135WA007900086300611051
B1823122837716N08159107WA007950086800511049
B1823172837695N08159093WA007930087200611048
B1823222837668N08159112WA007950087400411043
B1823272837650N08159156WA007980087600311038
B1823322837626N08159197WA007940087500411048
B1823372837628N08159262WA007880087200711049
B1823422837680N08159296WA007880086800711048
B1823472837721N08159281WA007920087000611048
B1823522837755N08159269WA007940087200411043
B1823572837793N08159261WA007950087300411046
B1824022837824N08159245WA008040087800411049
B1824072837836N08159229WA008120088700611039
B1824122837809N08159231WA008090088901011053
B1824172837795N08159288WA008050089000811047
B1824222837832N08159339WA008030088400611055
B1824272837882N08159356WA008080088600611046
B1824322837923N08159358WA008080088600411046
B1824372837956N08159347WA008040088400511042
B1824422837980N08159329WA008030088300411042
B1824472838004N08159314WA008020088100411039
B1824522838035N08159301WA007980087800511039
B1824572838062N08159277WA007890087400411049
B1825022838074N08159246WA007840086700411047
B1825072838087N08159219WA007700085900511043
B1825122838111N08159194WA007570084600411044
B1825172838133N08159168WA007440082900511047
B1825222838134N08159139WA007300081300511044
B1825272838151N08159114WA007170079800311044
B1825322838190N08159118WA007030078500411041
B1825372838229N08159163WA006870076700611041
B1825422838252N08159221WA006740075100311041
B1825472838273N08159280WA006640074000311045
B1825522838287N08159336WA006560073100211041
B1825572838297N08159394WA006360071800411047
B1826022838338N08159443WA006330070600911049
B1826072838385N08159436WA006260070000711049
B1826122838401N08159407WA006160069600811046
B1826172838405N08159382WA006020068300611043
B1826222838410N08159357WA005860066800611040
B1826272838433N08159341WA005680065200311032
B1826322838470N08159331WA005420063100511053
B1826372838500N08159316WA005370061500511037
B1826422838509N08159295WA005230060300511042
B1826472838533N08159282WA005160059200411037
B1826522838573N08159281WA005090058400311044
B1826572838607N08159272WA005010057700411043
B1827022838640N08159258WA004980057100411043
B1827072838675N08159250WA004940056800411042
B1827122838711N08159238WA004910056400311046
B1827172838741N08159222WA004890056100511045
B1827222838767N08159204WA004810055500411041
B1827272838790N08159182WA004680054600511049
B1827322838815N08159163WA004610053700411043
B1827372838830N08159142WA004490052700411042
B1827422838847N08159119WA004390051600411045
B1827472838879N08159105WA004320050800411044
B1827522838917N08159100WA004260050000311043
B1827572838958N08159101WA004190049300311043
B1828022839004N08159115WA004120048700411039
B1828072839050N08159132WA004010047700411044
B1828122839094N08159167WA003920046600311038
B1828172839126N08159219WA003880045900511040
F18282203080916222326273132
B1828222839151N08159271WA003810045200410039
B1828272839195N08159303WA003700044300510047
B1828322839239N08159325WA003640043700410042
B1828372839284N08159341WA003580043100510043
B1828422839318N08159333WA003480042400810043
B1828472839324N08159305WA003370041600610051
B1828522839314N08159287WA003320040800610038
B1828572839305N08159276WA003230040100610041
B1829022839306N08159261WA003130039100510038
B1829072839308N08159245WA002990037800510043
B1829122839295N08159232WA002810036300510046
B1829172839286N08159216WA002640034500510042
B1829222839296N08159197WA002480032600410041
B1829272839321N08159178WA002340031000410043
B1829322839323N08159157WA002180029300510046
B1829372839302N08159141WA002060027800610043
B1829422839279N08159131WA002000026500610043
B1829472839259N08159119WA001940025900610044
B1829522839252N08159101WA001880025300610039
B1829572839251N08159081WA001790024600410040
B1830022839248N08159060WA001670023500510041
B1830072839238N08159041WA001590022500510047
B1830122839226N08159026WA001410021200510044
B1830172839215N08159007WA001290019600510040
B1830222839208N08158985WA001230018500410049
B1830272839204N08158961WA001170018000510044
B1830322839206N08158938WA001070017200610042
B1830372839209N08158915WA000950016300510044
B1830422839204N08158897WA000860015600410040
B1830472839189N08158882WA000770014600410041
B1830522839167N08158875WA000690013800410039
B1830572839174N08158859WA000640013100610045
B1831022839197N08158848WA000560012400510043
B1831072839214N08158833WA000400011400510042
B1831122839225N08158813WA000230009800610045
B1831172839218N08158792WA000100008500610047
B1831222839186N08158794WA000030007200610042
B1831272839163N08158794WA-00110006001410048
B1831322839164N08158761WA-00240004401010046
B1831372839145N08158746WA-00250003600910023
B1831422839140N08158749WA-00250003400510006
B1831472839142N08158748WA-00250003300610011
B1831522839145N08158746WA-00250003300510009
B1831572839148N08158742WA-00250003300510005
B1832022839151N08158739WA-00250003200510006
B1832072839155N08158737WA-00250003200410005
B1832122839157N08158734WA-00250003200310010
B1832172839158N08158733WA-00250003200510011
B1832222839162N08158730WA-00250003200510007
B1832272839165N08158727WA-00250003300310004
B1832322839169N08158724WA-00250003300410005
B1832372839173N08158722WA-00250003200310007
B1832422839176N08158720WA-00250003300410005
B1832472839179N08158719WA-00250003300410002
B1832522839183N08158718WA-00250003200510000
B1832572839187N08158717WA-00250003200410002
B1833022839191N08158716WA-00250003200510004
B1833072839194N08158714WA-00250003200510006
B1833122839196N08158711WA-00250003200510007
B1833172839197N08158708WA-00260003200510004
B1833222839197N08158708WA-00260003200410000
B1833272839197N08158708WA-00260003200410000
F183332030809162223262732
B1833322839197N08158708WA-00260003200309000
F18333703080916222326273132
B1833372839197N08158708WA-00260003200210000
B1833422839197N08158708WA-00260003200310002
B1833472839197N08158708WA-00260003200310000
B1833522839197N08158709WA-00250003200410005
B1833572839197N08158709WA-00250003200310000
B1834022839197N08158709WA-00250003200410000
B1834072839197N08158709WA-00250003200510000
B1834122839197N08158709WA-00260003200510000
B1834172839197N08158709WA-00260003200510008
B1834222839197N08158709WA-00260003200410007
B1834272839197N08158709WA-00260003200310008
B1834322839197N08158709WA-00260003200410008
B1834372839197N08158709WA-00260003200310005
B1834422839197N08158709WA-00260003200310005
F183447030809162223262731
B1834472839197N08158709WA-00260003200509000
B1834522839197N08158709WA-00260003200509000
B1834572839197N08158709WA-00260003200409004
B1835022839197N08158709WA-00260003200309004
B1835072839197N08158709WA-00260003200309004
L   FlyChart®
L   Version 4.52(51) TEST, May 5th 2010
G9E7E7126BC266699843F9EE221AC4E03702B0673E9F0A9CA7EAA4C838A3EF62F
