AFLY022x 07871
HFDTE090416
HFFXA010
HFPLTPILOT:Pete Wall       
HFGTYGLIDERTYPE:Hang Glider     
HFGIDGLIDERID:WW_Sport2-155   
HFDTM100GPSDATUM:WGS84
HFRFWFIRMWAREVERSION: 1.3.07  Eng
HFRHWHARDWAREVERSION:1.00
HFFTYFRTYPE:Brauniger,IQ-Basic GPS
HFGPS:FASTRAX,IT430,48
HFPRSPRESSALTSENSOR:INTERSEMA,MS5401BM,12000
HFTZNUTCOFFSET: -4
I033638FXA3940SIU4143TAS
C090416193202090416001101
C2831927N08150788WTakeoff
C2831982N08150800W00000000005000000000360000StartArea,QUEST           
C2815508N08149500W00000000000400000000360000TurnArea,T33DS           
C2803778N08145184W00000000012000000000360000FinishArea,GILBRT          
C2824839N08149481WLanding
F193146030708091623262731
E193146TPC
B1931462831904N08150787WA-00110004701009002
F193204030708091623262731
E193204TPC
B1932042831902N08150787WA-00110004700809006
F193215030708091623262731
B1932152831902N08150787WA-00110004700909000
F193245030708091623262731
B1932452831902N08150787WA-00110004000809010
F193315030708091623262731
B1933152831903N08150787WA-00100003800509002
F193345030708091623262731
B1933452831903N08150787WA-00100003800709000
F193415030708091623262731
B1934152831903N08150787WA-00100003700709000
F193445030708091623262731
B1934452831903N08150787WA-00100003700609003
F193515030708091623262731
B1935152831903N08150787WA-00100003700509003
E193542STA
E193542ATS1019.0
LFLYA100036
B1935422831927N08150788WA-00100003500409037
B1935472831963N08150793WA-00000003700509054
B1935522831998N08150797WA000130004500709051
B1935572832035N08150797WA000200005500709058
B1936022832069N08150794WA000320006800809043
B1936072832101N08150784WA000460008200609052
B1936122832133N08150769WA000560009600809055
B1936172832163N08150751WA000660010800609050
B1936222832193N08150733WA000770012000509050
B1936272832226N08150713WA000880013200609048
B1936322832256N08150696WA001070014600409048
B1936372832287N08150680WA001220016300609054
B1936422832318N08150665WA001320017500609055
B1936472832351N08150656WA001440018800709046
B1936522832383N08150653WA001570020200409043
B1936572832416N08150655WA001660021100409046
B1937022832449N08150663WA001680021700509053
B1937072832480N08150677WA001790022300709051
B1937122832508N08150701WA001950023200709048
B1937172832529N08150733WA002170025100709053
B1937222832535N08150776WA002300026900909047
B1937272832528N08150823WA002440028700809047
B1937322832500N08150869WA002610030600909052
B1937372832454N08150895WA002730032100609048
B1937422832402N08150894WA002890033800609045
B1937472832355N08150872WA003040035400609046
B1937522832323N08150834WA003250037400609041
B1937572832307N08150785WA003390039100509045
B1938022832311N08150735WA003490040500609046
B1938072832329N08150698WA003560041500509042
B1938122832352N08150671WA003670042700409044
B1938172832381N08150651WA003840043800509048
B1938222832411N08150641WA004050045300209045
B1938272832440N08150642WA004240047200809050
B1938322832470N08150651WA004380049000509048
B1938372832497N08150670WA004480050100609043
B1938422832521N08150694WA004540050800509045
B1938472832542N08150724WA004600051400509047
B1938522832562N08150757WA004660051900409046
B1938572832583N08150791WA004720052400309044
B1939022832607N08150825WA004750052800609052
F1939070307080916232627
B1939072832631N08150855WA004820053300608041
F193912030708091623262731
B1939122832641N08150895WA004930054000709046
B1939172832638N08150942WA005080055200709047
B1939222832624N08150986WA005310057500609048
B1939272832600N08151026WA005530060100709048
B1939322832567N08151066WA005690062400409055
B1939372832531N08151105WA005650063400609041
B1939422832489N08151130WA005650063200509037
B1939472832449N08151120WA005600062600909035
B1939522832430N08151077WA005660062100809040
B1939572832450N08151053WA005670062200709039
F19400203070809111623262731
B1940022832464N08151074WA005630062100710037
B1940072832436N08151111WA005610061800710035
B1940122832387N08151116WA005610061800510034
B1940172832345N08151090WA005700062200710038
B1940222832339N08151041WA005760063001110042
B1940272832370N08151027WA005900064000810037
B1940322832363N08151062WA005910064300810033
B1940372832316N08151072WA005940064901010039
B1940422832295N08151028WA006020065501110048
B1940472832320N08150993WA006090066101010043
B1940522832344N08150998WA006130067000510037
B1940572832334N08151033WA006150067201110037
B1941022832282N08151032WA006120067100710040
B1941072832253N08150990WA006190067500810044
B1941122832252N08150947WA006250068100510036
F194117030708091623262731
B1941172832275N08150937WA006270068300709040
F19412203070809111623262731
B1941222832281N08150967WA006300068700710037
B1941272832243N08150994WA006380069001010037
B1941322832204N08150965WA006400069601010043
B1941372832212N08150923WA006440069900810040
B1941422832236N08150925WA006480070200610037
B1941472832223N08150962WA006510070500810041
B1941522832173N08150974WA006560070800710042
B1941572832139N08150939WA006620071400910037
B1942022832147N08150897WA006640071900810044
B1942072832175N08150891WA006650072100510043
B1942122832195N08150912WA006670072200410039
B1942172832192N08150949WA006690072300610035
B1942222832154N08150977WA006710072500610036
B1942272832106N08150974WA006750072900410041
B1942322832075N08150938WA006780073200710039
B1942372832091N08150903WA006810073600710040
B1942422832117N08150910WA006840074000610036
B1942472832119N08150944WA006830074200710035
B1942522832080N08150970WA006870074201110045
B1942572832035N08150961WA006900074600710040
B1943022832018N08150917WA006940074900810040
B1943072832044N08150896WA006950075000710039
B1943122832060N08150923WA006980075300810036
B1943172832043N08150963WA006980075300610037
B1943222832009N08150998WA007070075800610041
B1943272831967N08151015WA007180076800610037
B1943322831928N08150988WA007290078101110041
B1943372831939N08150953WA007420079200910039
B1943422831957N08150980WA007510080401010038
B1943472831925N08151017WA007640081600910040
F194352030708091116232731
B1943522831881N08151015WA007760083100709041
F19435703070809111623262731
B1943572831865N08150975WA007850084100910041
B1944022831897N08150964WA008000085500710046
B1944072831913N08150993WA008150086900610039
B1944122831884N08151022WA008280088100710038
B1944172831846N08151005WA008400089800610032
B1944222831851N08150969WA008470090401010042
B1944272831872N08150992WA008570091400910042
B1944322831871N08151031WA008710092600610039
B1944372831838N08151052WA008820093801010039
B1944422831804N08151032WA008890094800610036
B1944472831809N08150993WA009000095500710045
B1944522831838N08150987WA009100096700610037
B1944572831848N08151016WA009270098100710038
B1945022831813N08151033WA009360099401210041
B1945072831788N08150998WA009430100200710037
B1945122831805N08150966WA009530100900710040
B1945172831834N08150975WA009620101900510034
B1945222831843N08151013WA009730103000610033
B1945272831808N08151040WA009820103900810040
B1945322831767N08151017WA009950105500610036
B1945372831750N08150970WA010010106000610046
B1945422831773N08150940WA010090106900910040
B1945472831801N08150960WA010110107400610036
B1945522831802N08151003WA010120107300710036
B1945572831775N08151043WA010210107800510041
B1946022831736N08151065WA010280108500510036
B1946072831695N08151042WA010340109200910041
B1946122831698N08151001WA010430109900910040
B1946172831726N08151017WA010480110501010044
B1946222831710N08151060WA010580111100610043
B1946272831670N08151072WA010660112100610035
B1946322831643N08151035WA010790113501010035
B1946372831665N08151008WA010850114100810040
B1946422831672N08151049WA010870114600810046
B1946472831636N08151082WA010980115200610043
B1946522831594N08151086WA011170117100610036
B1946572831579N08151049WA011310118800910044
B1947022831614N08151057WA011410120300810046
B1947072831609N08151102WA011540121500710041
B1947122831568N08151114WA011670122900710034
B1947172831544N08151075WA011770123600910042
B1947222831578N08151062WA011930124700810043
B1947272831585N08151103WA012040125800710040
B1947322831548N08151123WA012130127100910044
B1947372831533N08151078WA012220128201110042
B1947422831574N08151067WA012330129000810041
B1947472831590N08151110WA012420130001010041
B1947522831557N08151142WA012550131000810040
B1947572831525N08151116WA012630132101110043
B1948022831547N08151080WA012700132800710040
B1948072831581N08151103WA012740133300710046
B1948122831586N08151145WA012880134100610042
B1948172831561N08151171WA012880134800610037
B1948222831521N08151146WA012930135301010045
B1948272831511N08151099WA013070136100710040
B1948322831534N08151073WA013080136800610033
B1948372831560N08151104WA013020136700810048
B1948422831515N08151128WA013050136601010047
B1948472831466N08151116WA013150137600710041
F194852030708091116232627
B1948522831420N08151101WA013280138700709045
F19485703070809111623262731
B1948572831384N08151075WA013390139900410034
B1949022831374N08151028WA013470140500910046
F194907030708091116232627
B1949072831410N08151022WA013550141501109042
B1949122831407N08151064WA013600142101409039
B1949172831356N08151074WA013730143001209039
B1949222831323N08151041WA013760143600909044
B1949272831348N08151007WA013860144301509049
B1949322831370N08151034WA013960145600809035
B1949372831350N08151076WA014050146500709036
B1949422831305N08151075WA014100147200909034
B1949472831284N08151034WA014130147700809043
B1949522831289N08150990WA014190148200509038
B1949572831311N08150966WA014280148800609036
B1950022831336N08150978WA014230149000709035
B1950072831333N08151023WA014160148801009036
B1950122831282N08151029WA014210148400909046
B1950172831239N08151005WA014280148900809036
B1950222831202N08150973WA014310149200509040
B1950272831186N08150926WA014350149600409041
B1950322831202N08150898WA014360150101409038
B1950372831206N08150938WA014360150101309046
B1950422831152N08150932WA014410150501209041
B1950472831115N08150900WA014440150901109040
B1950522831078N08150866WA014470151200909037
B1950572831052N08150820WA014500151500509043
B1951022831053N08150780WA014530151800509038
B1951072831079N08150773WA014570152000509043
B1951122831090N08150804WA014550152200609039
B1951172831055N08150835WA014550152000909040
B1951222831023N08150800WA014550151800909047
B1951272831045N08150775WA014570151700709036
B1951322831063N08150795WA014550151500609034
B1951372831050N08150835WA014600151601009036
B1951422831000N08150841WA014640152200909041
B1951472830959N08150813WA014620152501209039
B1951522830960N08150771WA014590152400909038
B1951572830980N08150753WA014580152200609039
B1952022831005N08150765WA014590152100609037
B1952072831012N08150803WA014650152100709041
B1952122830970N08150823WA014720152701609038
B1952172830943N08150781WA014780153300909040
B1952222830970N08150775WA014800154101509038
B1952272830962N08150817WA014880154501109041
B1952322830916N08150819WA014890155101309036
B1952372830896N08150778WA014940155500709035
B1952422830921N08150761WA014960155600709037
B1952472830931N08150791WA015010155801109040
B1952522830886N08150813WA015010156001609041
B1952572830846N08150779WA015030156501109042
B1953022830834N08150735WA015060156900609036
B1953072830846N08150706WA015080157100509035
B1953122830868N08150718WA015130157300709044
B1953172830845N08150758WA015160157501109041
B1953222830793N08150745WA015170157901409040
B1953272830799N08150701WA015180158001109045
B1953322830824N08150715WA015240158200809038
B1953372830806N08150753WA015240158300909039
B1953422830754N08150744WA015230158601309042
B1953472830747N08150697WA015210158500909041
B1953522830774N08150693WA015250158700809040
B1953572830766N08150733WA015240158800809040
B1954022830715N08150741WA015190158301609037
B1954072830679N08150700WA015160158000709043
B1954122830661N08150655WA015170157900609039
B1954172830652N08150611WA015100157700609035
B1954222830667N08150580WA015040157300509037
B1954272830690N08150598WA015030157000609046
B1954322830699N08150636WA015060156800709038
B1954372830660N08150664WA015010156701109043
B1954422830619N08150637WA014990156501209037
B1954472830616N08150586WA014960156300909045
B1954522830579N08150550WA014920155900909047
B1954572830536N08150522WA014930155700709039
B1955022830508N08150481WA014900155400809038
B1955072830478N08150434WA014840154900609044
B1955122830434N08150397WA014730154000509044
B1955172830382N08150364WA014600152700709047
B1955222830328N08150334WA014470151200609044
B1955272830273N08150317WA014370150000409045
B1955322830221N08150299WA014290149100409039
B1955372830173N08150277WA014220148300509040
B1955422830123N08150263WA014100147400509040
B1955472830074N08150248WA013970146200409037
B1955522830028N08150228WA013840144900509036
B1955572829979N08150216WA013700143500509040
B1956022829930N08150206WA013560142200509038
B1956072829881N08150193WA013420140900409042
B1956122829829N08150183WA013300139700409041
B1956172829775N08150181WA013240138600409041
B1956222829726N08150175WA013190138000609037
B1956272829678N08150161WA013140137500409040
B1956322829635N08150140WA013120137200309038
B1956372829595N08150114WA013080136800409038
B1956422829555N08150083WA013030136500609038
B1956472829516N08150050WA012950136000609039
B1956522829475N08150016WA012910135700409037
F1956570307080911162327
B1956572829442N08149976WA012860135100808038
F195702030708091116232627
B1957022829410N08149938WA012820134700509039
B1957072829380N08149897WA012730133900609042
B1957122829354N08149856WA012640133100709037
B1957172829329N08149814WA012540132100609039
B1957222829301N08149771WA012450131100609041
B1957272829277N08149729WA012370130100509037
B1957322829250N08149688WA012270129000709039
B1957372829214N08149647WA012160127800409044
B1957422829185N08149603WA012040126800609041
B1957472829165N08149556WA011940125800609039
B1957522829143N08149509WA011850124800409041
B1957572829118N08149466WA011770123900409043
B1958022829093N08149423WA011670123000409042
B1958072829067N08149380WA011590122100609041
B1958122829037N08149342WA011520121400509041
B1958172829010N08149304WA011470120800409041
B1958222828984N08149264WA011430120400409040
B1958272828965N08149225WA011380120000409036
B1958322828956N08149182WA011310119400409038
B1958372828939N08149140WA011260118900409038
B1958422828912N08149100WA011200118300609038
B1958472828884N08149065WA011170118000509035
B1958522828849N08149036WA011110117400509037
B1958572828804N08149023WA011030116700609042
B1959022828759N08149011WA011000116200609036
B1959072828718N08148998WA010940115600609036
B1959122828678N08148987WA010880115100409036
B1959172828635N08148977WA010810114300609035
B1959222828596N08148963WA010720113700409035
B1959272828555N08148950WA010650113000409035
B1959322828515N08148935WA010580112300409037
B1959372828475N08148920WA010480111400409037
B1959422828435N08148907WA010410110500409036
B1959472828394N08148895WA010320109600409035
B1959522828353N08148885WA010250108800409035
B1959572828312N08148873WA010160107900409035
B2000022828270N08148863WA010100107100409037
B2000072828228N08148855WA010000106300409039
B2000122828184N08148842WA009920105400509042
B2000172828141N08148832WA009850104800509039
B2000222828101N08148825WA009770104000609036
B2000272828058N08148817WA009700103200509041
B2000322828017N08148807WA009650102600509041
B2000372827979N08148794WA009580101900509041
B2000422827940N08148783WA009490101100409040
B2000472827899N08148780WA009400100200509038
B2000522827856N08148771WA009340099400409042
B2000572827816N08148757WA009270098700609041
B2001022827774N08148746WA009210098200709038
B2001072827730N08148739WA009160097700509040
B2001122827686N08148731WA009110097200709041
B2001172827646N08148718WA009050096700509041
B2001222827608N08148706WA008970096100409038
B2001272827565N08148699WA008900095300309041
B2001322827527N08148685WA008820094600409036
B2001372827487N08148666WA008720093700509041
B2001422827443N08148657WA008640092600509043
B2001472827400N08148655WA008550091600509039
B2001522827357N08148655WA008470090700509037
B2001572827315N08148661WA008370089700409037
B2002022827271N08148668WA008280088800509042
B2002072827230N08148684WA008170087800509043
B2002122827200N08148715WA008010086800409037
B2002172827163N08148741WA007860085400409041
B2002222827124N08148765WA007690083500509039
B2002272827084N08148786WA007560082000409038
B2002322827050N08148812WA007420080500409036
B2002372827010N08148838WA007220078700509047
B2002422826976N08148874WA007070077000609041
B2002472826958N08148921WA006910075200409043
B2002522826952N08148968WA006780073500409047
B2002572826956N08149007WA006740072400509044
B2003022826963N08149043WA006680072000409038
B2003072826961N08149079WA006610071400609036
B2003122826965N08149124WA006550070900509041
B2003172826949N08149163WA006470070400509038
B2003222826903N08149164WA006430069901609044
B2003272826870N08149121WA006490070100709040
B2003322826861N08149077WA006490070300609041
B2003372826888N08149047WA006500070400809041
B2003422826915N08149063WA006460070500709035
B2003472826906N08149105WA006380070100909041
B2003522826860N08149104WA006350069601109045
B2003572826824N08149067WA006320069200709042
B2004022826802N08149024WA006320069000709043
B2004072826798N08148982WA006220068600409040
B2004122826823N08148964WA006110067700709037
B2004172826842N08148996WA006070067000609046
B2004222826838N08149039WA006010066300509043
B2004272826818N08149080WA006000065900609045
B2004322826787N08149103WA005940065400509040
B2004372826749N08149093WA005870064801009042
B2004422826747N08149052WA005790064300809040
B2004472826777N08149032WA005740063700809037
B2004522826804N08149048WA005690062900609039
B2004572826810N08149087WA005590062300509039
B2005022826791N08149130WA005510061500509041
B2005072826759N08149165WA005460060800609042
B2005122826727N08149199WA005410060200509042
B2005172826700N08149234WA005440060000509040
B2005222826672N08149262WA005440060000509039
B2005272826635N08149255WA005380059700709037
B2005322826627N08149208WA005370059300909043
B2005372826659N08149188WA005400059300909040
B2005422826674N08149221WA005400059400809043
B2005472826640N08149236WA005400059601609037
B2005522826610N08149196WA005440059800809045
B2005572826609N08149154WA005440060100809037
B2006022826635N08149150WA005330059701009038
B2006072826635N08149197WA005270059301109044
B2006122826591N08149213WA005270058800709040
B2006172826545N08149209WA005280058600709038
B2006222826499N08149189WA005280058400609038
B2006272826480N08149144WA005320058500509044
B2006322826503N08149125WA005260058501209042
B2006372826505N08149171WA005230058301209043
B2006422826456N08149189WA005250058301109040
B2006472826405N08149179WA005260058300909043
B2006522826376N08149141WA005280058500609039
B2006572826395N08149115WA005240058300909040
B2007022826404N08149149WA005250058100909043
B2007072826370N08149184WA005280058101109042
B2007122826336N08149211WA005290058500509037
B2007172826300N08149218WA005250058401209037
B2007222826288N08149174WA005220058200909043
B2007272826319N08149154WA005240058100709045
B2007322826337N08149183WA005270058200809040
B2007372826307N08149207WA005220058101209037
B2007422826271N08149169WA005200057700809044
B2007472826264N08149120WA005230057800709038
B2007522826285N08149096WA005230058000809041
B2007572826298N08149126WA005210057900709045
B2008022826272N08149161WA005210057900709041
B2008072826233N08149178WA005250058100809036
B2008122826202N08149151WA005230058200809039
B2008172826226N08149125WA005220058000909039
B2008222826241N08149159WA005240058000709043
B2008272826226N08149194WA005210058000709035
B2008322826192N08149219WA005210058001109036
B2008372826154N08149202WA005170057700709040
B2008422826171N08149166WA005140057301109042
B2008472826187N08149198WA005150057200809043
B2008522826167N08149238WA005110057300709037
B2008572826126N08149251WA005000056600709036
B2009022826081N08149241WA004890055400609038
B2009072826035N08149236WA004800054300409040
B2009122825990N08149239WA004720053300509038
B2009172825947N08149249WA004600052100509040
B2009222825903N08149261WA004460050800609039
B2009272825858N08149271WA004340049400309038
B2009322825813N08149282WA004230048200409039
B2009372825772N08149299WA004050047000409038
B2009422825728N08149326WA003870045500409045
B2009472825687N08149348WA003770044000509045
B2009522825648N08149367WA003620042600609040
B2009572825605N08149394WA003590041600509042
B2010022825563N08149419WA003580041700509042
B2010072825520N08149439WA003520041700509041
B2010122825478N08149455WA003500041200509035
B2010172825438N08149475WA003400040300509037
B2010222825398N08149489WA003280039100509038
B2010272825355N08149491WA003180037800509036
B2010322825311N08149491WA003080036600409037
B2010372825270N08149490WA002960035500409035
B2010422825227N08149493WA002840034200409037
B2010472825185N08149496WA002690032800509036
B2010522825143N08149494WA002560031300509037
B2010572825100N08149492WA002440029900509037
B2011022825057N08149494WA002290028500409038
B2011072825014N08149500WA002150027100609038
B2011122824973N08149507WA002040025900509036
B2011172824931N08149517WA001900024500409036
B2011222824888N08149529WA001780023000409038
B2011272824848N08149546WA001640021700409037
B2011322824810N08149565WA001500020400409036
B2011372824767N08149580WA001370018900509040
B2011422824722N08149572WA001240017500509036
B2011472824686N08149542WA001120016200509035
B2011522824674N08149500WA001020015100509033
F2011570708091116232627
B2011572824692N08149475WA000860014101308036
B2012022824705N08149505WA000730013101108038
B2012072824684N08149547WA000560011501208053
B2012122824708N08149566WA000390010002308054
B2012172824720N08149515WA000320008801208040
B2012222824744N08149493WA000170007201708046
B2012272824780N08149498WA-00000005201208047
B2012322824812N08149496WA-00060003800808028
B2012372824828N08149501WA-00060003401108005
B2012422824829N08149499WA-00060003600808003
B2012472824831N08149495WA-00060003600708000
B2012522824832N08149492WA-00060003600508000
B2012572824833N08149489WA-00070003600608000
B2013022824836N08149485WA-00070003700608000
B2013072824838N08149481WA-00070003700508000
B2013122824838N08149480WA-00070003800508000
B2013172824838N08149480WA-00080003800408000
B2013222824838N08149482WA-00080003800608000
B2013272824838N08149482WA-00080003800508000
B2013322824838N08149481WA-00080003800608000
B2013372824838N08149481WA-00080003800508000
B2013422824839N08149481WA-00080003800708000
B2013472824839N08149481WA-00080003900608000
B2013522824839N08149481WA-00080003800608000
B2013572824839N08149481WA-00070003800608000
L   FlyChart®
L   Version 4.52(51) TEST, May 5th 2010
G788179EEB2AF16E19B809BB3321018F0C0DBBBB8E9A2ECCFABBF6C7A2471A87C
